{
    "contractName": "NFT",
    "abi": [
        {
            "inputs": [],
            "stateMutability": "nonpayable",
            "type": "constructor"
        },
        {
            "anonymous": false,
            "inputs": [
                {
                    "indexed": true,
                    "internalType": "address",
                    "name": "owner",
                    "type": "address"
                },
                {
                    "indexed": true,
                    "internalType": "address",
                    "name": "approved",
                    "type": "address"
                },
                {
                    "indexed": true,
                    "internalType": "uint256",
                    "name": "tokenId",
                    "type": "uint256"
                }
            ],
            "name": "Approval",
            "type": "event"
        },
        {
            "anonymous": false,
            "inputs": [
                {
                    "indexed": true,
                    "internalType": "address",
                    "name": "owner",
                    "type": "address"
                },
                {
                    "indexed": true,
                    "internalType": "address",
                    "name": "operator",
                    "type": "address"
                },
                {
                    "indexed": false,
                    "internalType": "bool",
                    "name": "approved",
                    "type": "bool"
                }
            ],
            "name": "ApprovalForAll",
            "type": "event"
        },
        {
            "anonymous": false,
            "inputs": [
                {
                    "indexed": true,
                    "internalType": "address",
                    "name": "previousOwner",
                    "type": "address"
                },
                {
                    "indexed": true,
                    "internalType": "address",
                    "name": "newOwner",
                    "type": "address"
                }
            ],
            "name": "OwnershipTransferred",
            "type": "event"
        },
        {
            "anonymous": false,
            "inputs": [
                {
                    "indexed": true,
                    "internalType": "address",
                    "name": "from",
                    "type": "address"
                },
                {
                    "indexed": true,
                    "internalType": "address",
                    "name": "to",
                    "type": "address"
                },
                {
                    "indexed": true,
                    "internalType": "uint256",
                    "name": "tokenId",
                    "type": "uint256"
                }
            ],
            "name": "Transfer",
            "type": "event"
        },
        {
            "inputs": [
                {
                    "internalType": "address",
                    "name": "to",
                    "type": "address"
                },
                {
                    "internalType": "uint256",
                    "name": "tokenId",
                    "type": "uint256"
                }
            ],
            "name": "approve",
            "outputs": [],
            "stateMutability": "nonpayable",
            "type": "function"
        },
        {
            "inputs": [
                {
                    "internalType": "address",
                    "name": "owner",
                    "type": "address"
                }
            ],
            "name": "balanceOf",
            "outputs": [
                {
                    "internalType": "uint256",
                    "name": "",
                    "type": "uint256"
                }
            ],
            "stateMutability": "view",
            "type": "function"
        },
        {
            "inputs": [],
            "name": "galleryCollection",
            "outputs": [
                {
                    "internalType": "string",
                    "name": "",
                    "type": "string"
                }
            ],
            "stateMutability": "view",
            "type": "function"
        },
        {
            "inputs": [],
            "name": "galleryCollectionSymbol",
            "outputs": [
                {
                    "internalType": "string",
                    "name": "",
                    "type": "string"
                }
            ],
            "stateMutability": "view",
            "type": "function"
        },
        {
            "inputs": [],
            "name": "galleryCounter",
            "outputs": [
                {
                    "internalType": "uint256",
                    "name": "",
                    "type": "uint256"
                }
            ],
            "stateMutability": "view",
            "type": "function"
        },
        {
            "inputs": [
                {
                    "internalType": "uint256",
                    "name": "tokenId",
                    "type": "uint256"
                }
            ],
            "name": "getApproved",
            "outputs": [
                {
                    "internalType": "address",
                    "name": "",
                    "type": "address"
                }
            ],
            "stateMutability": "view",
            "type": "function"
        },
        {
            "inputs": [
                {
                    "internalType": "address",
                    "name": "owner",
                    "type": "address"
                },
                {
                    "internalType": "address",
                    "name": "operator",
                    "type": "address"
                }
            ],
            "name": "isApprovedForAll",
            "outputs": [
                {
                    "internalType": "bool",
                    "name": "",
                    "type": "bool"
                }
            ],
            "stateMutability": "view",
            "type": "function"
        },
        {
            "inputs": [],
            "name": "name",
            "outputs": [
                {
                    "internalType": "string",
                    "name": "",
                    "type": "string"
                }
            ],
            "stateMutability": "view",
            "type": "function"
        },
        {
            "inputs": [],
            "name": "owner",
            "outputs": [
                {
                    "internalType": "address",
                    "name": "",
                    "type": "address"
                }
            ],
            "stateMutability": "view",
            "type": "function"
        },
        {
            "inputs": [
                {
                    "internalType": "uint256",
                    "name": "tokenId",
                    "type": "uint256"
                }
            ],
            "name": "ownerOf",
            "outputs": [
                {
                    "internalType": "address",
                    "name": "",
                    "type": "address"
                }
            ],
            "stateMutability": "view",
            "type": "function"
        },
        {
            "inputs": [],
            "name": "renounceOwnership",
            "outputs": [],
            "stateMutability": "nonpayable",
            "type": "function"
        },
        {
            "inputs": [
                {
                    "internalType": "address",
                    "name": "from",
                    "type": "address"
                },
                {
                    "internalType": "address",
                    "name": "to",
                    "type": "address"
                },
                {
                    "internalType": "uint256",
                    "name": "tokenId",
                    "type": "uint256"
                }
            ],
            "name": "safeTransferFrom",
            "outputs": [],
            "stateMutability": "nonpayable",
            "type": "function"
        },
        {
            "inputs": [
                {
                    "internalType": "address",
                    "name": "from",
                    "type": "address"
                },
                {
                    "internalType": "address",
                    "name": "to",
                    "type": "address"
                },
                {
                    "internalType": "uint256",
                    "name": "tokenId",
                    "type": "uint256"
                },
                {
                    "internalType": "bytes",
                    "name": "_data",
                    "type": "bytes"
                }
            ],
            "name": "safeTransferFrom",
            "outputs": [],
            "stateMutability": "nonpayable",
            "type": "function"
        },
        {
            "inputs": [
                {
                    "internalType": "address",
                    "name": "operator",
                    "type": "address"
                },
                {
                    "internalType": "bool",
                    "name": "approved",
                    "type": "bool"
                }
            ],
            "name": "setApprovalForAll",
            "outputs": [],
            "stateMutability": "nonpayable",
            "type": "function"
        },
        {
            "inputs": [
                {
                    "internalType": "bytes4",
                    "name": "interfaceId",
                    "type": "bytes4"
                }
            ],
            "name": "supportsInterface",
            "outputs": [
                {
                    "internalType": "bool",
                    "name": "",
                    "type": "bool"
                }
            ],
            "stateMutability": "view",
            "type": "function"
        },
        {
            "inputs": [],
            "name": "symbol",
            "outputs": [
                {
                    "internalType": "string",
                    "name": "",
                    "type": "string"
                }
            ],
            "stateMutability": "view",
            "type": "function"
        },
        {
            "inputs": [
                {
                    "internalType": "string",
                    "name": "",
                    "type": "string"
                }
            ],
            "name": "tokenNameExists",
            "outputs": [
                {
                    "internalType": "bool",
                    "name": "",
                    "type": "bool"
                }
            ],
            "stateMutability": "view",
            "type": "function"
        },
        {
            "inputs": [
                {
                    "internalType": "uint256",
                    "name": "tokenId",
                    "type": "uint256"
                }
            ],
            "name": "tokenURI",
            "outputs": [
                {
                    "internalType": "string",
                    "name": "",
                    "type": "string"
                }
            ],
            "stateMutability": "view",
            "type": "function"
        },
        {
            "inputs": [
                {
                    "internalType": "string",
                    "name": "",
                    "type": "string"
                }
            ],
            "name": "tokenURIExists",
            "outputs": [
                {
                    "internalType": "bool",
                    "name": "",
                    "type": "bool"
                }
            ],
            "stateMutability": "view",
            "type": "function"
        },
        {
            "inputs": [
                {
                    "internalType": "uint256",
                    "name": "",
                    "type": "uint256"
                }
            ],
            "name": "totalCollection",
            "outputs": [
                {
                    "internalType": "uint256",
                    "name": "tokenId",
                    "type": "uint256"
                },
                {
                    "internalType": "string",
                    "name": "artTitle",
                    "type": "string"
                },
                {
                    "internalType": "string",
                    "name": "tokenURI",
                    "type": "string"
                },
                {
                    "internalType": "address payable",
                    "name": "mintedBy",
                    "type": "address"
                },
                {
                    "internalType": "address payable",
                    "name": "currentOwner",
                    "type": "address"
                },
                {
                    "internalType": "address payable",
                    "name": "artistOwner",
                    "type": "address"
                },
                {
                    "internalType": "uint256",
                    "name": "price",
                    "type": "uint256"
                },
                {
                    "internalType": "uint256",
                    "name": "numberOfTransfers",
                    "type": "uint256"
                },
                {
                    "internalType": "bool",
                    "name": "forSale",
                    "type": "bool"
                }
            ],
            "stateMutability": "view",
            "type": "function"
        },
        {
            "inputs": [
                {
                    "internalType": "address",
                    "name": "from",
                    "type": "address"
                },
                {
                    "internalType": "address",
                    "name": "to",
                    "type": "address"
                },
                {
                    "internalType": "uint256",
                    "name": "tokenId",
                    "type": "uint256"
                }
            ],
            "name": "transferFrom",
            "outputs": [],
            "stateMutability": "nonpayable",
            "type": "function"
        },
        {
            "inputs": [
                {
                    "internalType": "address",
                    "name": "newOwner",
                    "type": "address"
                }
            ],
            "name": "transferOwnership",
            "outputs": [],
            "stateMutability": "nonpayable",
            "type": "function"
        }
    ],
    "bytecode": "60806040523480156200001157600080fd5b50604080518082018252600b81526a4e46542047616c6c65727960a81b60208083019182528351808501909452600384526213919560ea1b9084015281519192916200006091600091620001dc565b50805162000076906001906020840190620001dc565b505050620000936200008d620000db60201b60201c565b620000df565b6200009d62000131565b8051620000b391600791602090910190620001dc565b50620000be620001cb565b8051620000d491600891602090910190620001dc565b50620002bf565b3390565b600680546001600160a01b038381166001600160a01b0319831681179093556040519116919082907f8be0079c531659141344cd1fd0a4f28419497f9722a3daafe3b4186f6b6457e090600090a35050565b606060008054620001429062000282565b80601f0160208091040260200160405190810160405280929190818152602001828054620001709062000282565b8015620001c15780601f106200019557610100808354040283529160200191620001c1565b820191906000526020600020905b815481529060010190602001808311620001a357829003601f168201915b5050505050905090565b606060018054620001429062000282565b828054620001ea9062000282565b90600052602060002090601f0160209004810192826200020e576000855562000259565b82601f106200022957805160ff191683800117855562000259565b8280016001018555821562000259579182015b82811115620002595782518255916020019190600101906200023c565b50620002679291506200026b565b5090565b5b808211156200026757600081556001016200026c565b600181811c908216806200029757607f821691505b60208210811415620002b957634e487b7160e01b600052602260045260246000fd5b50919050565b6117ca80620002cf6000396000f3fe608060405234801561001057600080fd5b50600436106101425760003560e01c80636352211e116100b8578063a22cb4651161007c578063a22cb465146102ae578063a46b1fac146102c1578063b88d4fde146102ef578063c87b56dd14610302578063e985e9c514610315578063f2fde38b1461035157600080fd5b80636352211e1461026757806370a082311461027a578063715018a61461028d5780638da5cb5b1461029557806395d89b41146102a657600080fd5b80630b28209e1161010a5780630b28209e146101cc578063201778f6146101e357806323058f03146101eb57806323b872dd1461021357806342842e0e1461022657806343d32ae71461023957600080fd5b806301ffc9a71461014757806306fdde031461016f578063081812fc14610184578063095ea7b3146101af57806309d4ed07146101c4575b600080fd5b61015a610155366004611209565b610364565b60405190151581526020015b60405180910390f35b6101776103b6565b604051610166919061127e565b610197610192366004611291565b610448565b6040516001600160a01b039091168152602001610166565b6101c26101bd3660046112c6565b6104e2565b005b6101776105f8565b6101d560095481565b604051908152602001610166565b610177610686565b6101fe6101f9366004611291565b610693565b604051610166999897969594939291906112f0565b6101c2610221366004611362565b6107fe565b6101c2610234366004611362565b61082f565b61015a61024736600461142a565b8051602081830181018051600c8252928201919093012091525460ff1681565b610197610275366004611291565b61084a565b6101d5610288366004611473565b6108c1565b6101c2610948565b6006546001600160a01b0316610197565b6101776109ae565b6101c26102bc36600461148e565b6109bd565b61015a6102cf36600461142a565b8051602081830181018051600b8252928201919093012091525460ff1681565b6101c26102fd3660046114ca565b610a82565b610177610310366004611291565b610aba565b61015a610323366004611546565b6001600160a01b03918216600090815260056020908152604080832093909416825291909152205460ff1690565b6101c261035f366004611473565b610ba2565b60006001600160e01b031982166380ac58cd60e01b148061039557506001600160e01b03198216635b5e139f60e01b145b806103b057506301ffc9a760e01b6001600160e01b03198316145b92915050565b6060600080546103c590611579565b80601f01602080910402602001604051908101604052809291908181526020018280546103f190611579565b801561043e5780601f106104135761010080835404028352916020019161043e565b820191906000526020600020905b81548152906001019060200180831161042157829003601f168201915b5050505050905090565b6000818152600260205260408120546001600160a01b03166104c65760405162461bcd60e51b815260206004820152602c60248201527f4552433732313a20617070726f76656420717565727920666f72206e6f6e657860448201526b34b9ba32b73a103a37b5b2b760a11b60648201526084015b60405180910390fd5b506000908152600460205260409020546001600160a01b031690565b60006104ed8261084a565b9050806001600160a01b0316836001600160a01b0316141561055b5760405162461bcd60e51b815260206004820152602160248201527f4552433732313a20617070726f76616c20746f2063757272656e74206f776e656044820152603960f91b60648201526084016104bd565b336001600160a01b038216148061057757506105778133610323565b6105e95760405162461bcd60e51b815260206004820152603860248201527f4552433732313a20617070726f76652063616c6c6572206973206e6f74206f7760448201527f6e6572206e6f7220617070726f76656420666f7220616c6c000000000000000060648201526084016104bd565b6105f38383610c6d565b505050565b6007805461060590611579565b80601f016020809104026020016040519081016040528092919081815260200182805461063190611579565b801561067e5780601f106106535761010080835404028352916020019161067e565b820191906000526020600020905b81548152906001019060200180831161066157829003601f168201915b505050505081565b6008805461060590611579565b600a60205260009081526040902080546001820180549192916106b590611579565b80601f01602080910402602001604051908101604052809291908181526020018280546106e190611579565b801561072e5780601f106107035761010080835404028352916020019161072e565b820191906000526020600020905b81548152906001019060200180831161071157829003601f168201915b50505050509080600201805461074390611579565b80601f016020809104026020016040519081016040528092919081815260200182805461076f90611579565b80156107bc5780601f10610791576101008083540402835291602001916107bc565b820191906000526020600020905b81548152906001019060200180831161079f57829003601f168201915b5050506003840154600485015460058601546006870154600788015460089098015496976001600160a01b039485169793851696509190931693509060ff1689565b6108083382610cdb565b6108245760405162461bcd60e51b81526004016104bd906115b4565b6105f3838383610dd2565b6105f383838360405180602001604052806000815250610a82565b6000818152600260205260408120546001600160a01b0316806103b05760405162461bcd60e51b815260206004820152602960248201527f4552433732313a206f776e657220717565727920666f72206e6f6e657869737460448201526832b73a103a37b5b2b760b91b60648201526084016104bd565b60006001600160a01b03821661092c5760405162461bcd60e51b815260206004820152602a60248201527f4552433732313a2062616c616e636520717565727920666f7220746865207a65604482015269726f206164647265737360b01b60648201526084016104bd565b506001600160a01b031660009081526003602052604090205490565b6006546001600160a01b031633146109a25760405162461bcd60e51b815260206004820181905260248201527f4f776e61626c653a2063616c6c6572206973206e6f7420746865206f776e657260448201526064016104bd565b6109ac6000610f72565b565b6060600180546103c590611579565b6001600160a01b038216331415610a165760405162461bcd60e51b815260206004820152601960248201527f4552433732313a20617070726f766520746f2063616c6c65720000000000000060448201526064016104bd565b3360008181526005602090815260408083206001600160a01b03871680855290835292819020805460ff191686151590811790915590519081529192917f17307eab39ab6107e8899845ad3d59bd9653f200f220920489ca2b5937696c31910160405180910390a35050565b610a8c3383610cdb565b610aa85760405162461bcd60e51b81526004016104bd906115b4565b610ab484848484610fc4565b50505050565b6000818152600260205260409020546060906001600160a01b0316610b395760405162461bcd60e51b815260206004820152602f60248201527f4552433732314d657461646174613a2055524920717565727920666f72206e6f60448201526e3732bc34b9ba32b73a103a37b5b2b760891b60648201526084016104bd565b6000610b5060408051602081019091526000815290565b90506000815111610b705760405180602001604052806000815250610b9b565b80610b7a84610ff7565b604051602001610b8b929190611605565b6040516020818303038152906040525b9392505050565b6006546001600160a01b03163314610bfc5760405162461bcd60e51b815260206004820181905260248201527f4f776e61626c653a2063616c6c6572206973206e6f7420746865206f776e657260448201526064016104bd565b6001600160a01b038116610c615760405162461bcd60e51b815260206004820152602660248201527f4f776e61626c653a206e6577206f776e657220697320746865207a65726f206160448201526564647265737360d01b60648201526084016104bd565b610c6a81610f72565b50565b600081815260046020526040902080546001600160a01b0319166001600160a01b0384169081179091558190610ca28261084a565b6001600160a01b03167f8c5be1e5ebec7d5bd14f71427d1e84f3dd0314c0f7b2291e5b200ac8c7c3b92560405160405180910390a45050565b6000818152600260205260408120546001600160a01b0316610d545760405162461bcd60e51b815260206004820152602c60248201527f4552433732313a206f70657261746f7220717565727920666f72206e6f6e657860448201526b34b9ba32b73a103a37b5b2b760a11b60648201526084016104bd565b6000610d5f8361084a565b9050806001600160a01b0316846001600160a01b03161480610d9a5750836001600160a01b0316610d8f84610448565b6001600160a01b0316145b80610dca57506001600160a01b0380821660009081526005602090815260408083209388168352929052205460ff165b949350505050565b826001600160a01b0316610de58261084a565b6001600160a01b031614610e4d5760405162461bcd60e51b815260206004820152602960248201527f4552433732313a207472616e73666572206f6620746f6b656e2074686174206960448201526839903737ba1037bbb760b91b60648201526084016104bd565b6001600160a01b038216610eaf5760405162461bcd60e51b8152602060048201526024808201527f4552433732313a207472616e7366657220746f20746865207a65726f206164646044820152637265737360e01b60648201526084016104bd565b610eba600082610c6d565b6001600160a01b0383166000908152600360205260408120805460019290610ee390849061164a565b90915550506001600160a01b0382166000908152600360205260408120805460019290610f11908490611661565b909155505060008181526002602052604080822080546001600160a01b0319166001600160a01b0386811691821790925591518493918716917fddf252ad1be2c89b69c2b068fc378daa952ba7f163c4a11628f55a4df523b3ef91a4505050565b600680546001600160a01b038381166001600160a01b0319831681179093556040519116919082907f8be0079c531659141344cd1fd0a4f28419497f9722a3daafe3b4186f6b6457e090600090a35050565b610fcf848484610dd2565b610fdb848484846110f5565b610ab45760405162461bcd60e51b81526004016104bd90611679565b60608161101b5750506040805180820190915260018152600360fc1b602082015290565b8160005b8115611045578061102f816116cb565b915061103e9050600a836116fc565b915061101f565b60008167ffffffffffffffff8111156110605761106061139e565b6040519080825280601f01601f19166020018201604052801561108a576020820181803683370190505b5090505b8415610dca5761109f60018361164a565b91506110ac600a86611710565b6110b7906030611661565b60f81b8183815181106110cc576110cc611724565b60200101906001600160f81b031916908160001a9053506110ee600a866116fc565b945061108e565b60006001600160a01b0384163b156111e857604051630a85bd0160e11b81526001600160a01b0385169063150b7a029061113990339089908890889060040161173a565b6020604051808303816000875af1925050508015611174575060408051601f3d908101601f1916820190925261117191810190611777565b60015b6111ce573d8080156111a2576040519150601f19603f3d011682016040523d82523d6000602084013e6111a7565b606091505b5080516111c65760405162461bcd60e51b81526004016104bd90611679565b805181602001fd5b6001600160e01b031916630a85bd0160e11b149050610dca565b506001949350505050565b6001600160e01b031981168114610c6a57600080fd5b60006020828403121561121b57600080fd5b8135610b9b816111f3565b60005b83811015611241578181015183820152602001611229565b83811115610ab45750506000910152565b6000815180845261126a816020860160208601611226565b601f01601f19169290920160200192915050565b602081526000610b9b6020830184611252565b6000602082840312156112a357600080fd5b5035919050565b80356001600160a01b03811681146112c157600080fd5b919050565b600080604083850312156112d957600080fd5b6112e2836112aa565b946020939093013593505050565b60006101208b835280602084015261130a8184018c611252565b9050828103604084015261131e818b611252565b6001600160a01b03998a166060850152978916608084015250509390951660a084015260c083019190915260e0820152911515610100909201919091529392505050565b60008060006060848603121561137757600080fd5b611380846112aa565b925061138e602085016112aa565b9150604084013590509250925092565b634e487b7160e01b600052604160045260246000fd5b600067ffffffffffffffff808411156113cf576113cf61139e565b604051601f8501601f19908116603f011681019082821181831017156113f7576113f761139e565b8160405280935085815286868601111561141057600080fd5b858560208301376000602087830101525050509392505050565b60006020828403121561143c57600080fd5b813567ffffffffffffffff81111561145357600080fd5b8201601f8101841361146457600080fd5b610dca848235602084016113b4565b60006020828403121561148557600080fd5b610b9b826112aa565b600080604083850312156114a157600080fd5b6114aa836112aa565b9150602083013580151581146114bf57600080fd5b809150509250929050565b600080600080608085870312156114e057600080fd5b6114e9856112aa565b93506114f7602086016112aa565b925060408501359150606085013567ffffffffffffffff81111561151a57600080fd5b8501601f8101871361152b57600080fd5b61153a878235602084016113b4565b91505092959194509250565b6000806040838503121561155957600080fd5b611562836112aa565b9150611570602084016112aa565b90509250929050565b600181811c9082168061158d57607f821691505b602082108114156115ae57634e487b7160e01b600052602260045260246000fd5b50919050565b60208082526031908201527f4552433732313a207472616e736665722063616c6c6572206973206e6f74206f6040820152701ddb995c881b9bdc88185c1c1c9bdd9959607a1b606082015260800190565b60008351611617818460208801611226565b83519083019061162b818360208801611226565b01949350505050565b634e487b7160e01b600052601160045260246000fd5b60008282101561165c5761165c611634565b500390565b6000821982111561167457611674611634565b500190565b60208082526032908201527f4552433732313a207472616e7366657220746f206e6f6e20455243373231526560408201527131b2b4bb32b91034b6b83632b6b2b73a32b960711b606082015260800190565b60006000198214156116df576116df611634565b5060010190565b634e487b7160e01b600052601260045260246000fd5b60008261170b5761170b6116e6565b500490565b60008261171f5761171f6116e6565b500690565b634e487b7160e01b600052603260045260246000fd5b6001600160a01b038581168252841660208201526040810183905260806060820181905260009061176d90830184611252565b9695505050505050565b60006020828403121561178957600080fd5b8151610b9b816111f356fea26469706673582212200f8c90f68afa306315353e168ce2e9d8f8f0acebafeae31867fb5864371ef7c864736f6c634300080a0033",
    "sourcePath": "/Users/qiandong/blockchain-dev/blockchain-developer-bootcamp-final-project/contracts/NFT.sol",
    "compiler": {
        "name": "solc",
        "version": "0.8.10+commit.fc410830"
    },
    "functionHashes": {
        "approve(address,uint256)": "095ea7b3",
        "balanceOf(address)": "70a08231",
        "galleryCollection()": "09d4ed07",
        "galleryCollectionSymbol()": "201778f6",
        "galleryCounter()": "0b28209e",
        "getApproved(uint256)": "081812fc",
        "isApprovedForAll(address,address)": "e985e9c5",
        "name()": "06fdde03",
        "owner()": "8da5cb5b",
        "ownerOf(uint256)": "6352211e",
        "renounceOwnership()": "715018a6",
        "safeTransferFrom(address,address,uint256)": "42842e0e",
        "safeTransferFrom(address,address,uint256,bytes)": "b88d4fde",
        "setApprovalForAll(address,bool)": "a22cb465",
        "supportsInterface(bytes4)": "01ffc9a7",
        "symbol()": "95d89b41",
        "tokenNameExists(string)": "a46b1fac",
        "tokenURI(uint256)": "c87b56dd",
        "tokenURIExists(string)": "43d32ae7",
        "totalCollection(uint256)": "23058f03",
        "transferFrom(address,address,uint256)": "23b872dd",
        "transferOwnership(address)": "f2fde38b"
    },
    "gasEstimates": {
        "creation": {
            "codeDepositCost": "1218000",
            "executionCost": "infinite",
            "totalCost": "infinite"
        },
        "external": {
            "approve(address,uint256)": "infinite",
            "balanceOf(address)": "2634",
            "galleryCollection()": "infinite",
            "galleryCollectionSymbol()": "infinite",
            "galleryCounter()": "2318",
            "getApproved(uint256)": "4760",
            "isApprovedForAll(address,address)": "infinite",
            "name()": "infinite",
            "owner()": "2420",
            "ownerOf(uint256)": "2579",
            "renounceOwnership()": "28184",
            "safeTransferFrom(address,address,uint256)": "infinite",
            "safeTransferFrom(address,address,uint256,bytes)": "infinite",
            "setApprovalForAll(address,bool)": "26650",
            "supportsInterface(bytes4)": "534",
            "symbol()": "infinite",
            "tokenNameExists(string)": "infinite",
            "tokenURI(uint256)": "infinite",
            "tokenURIExists(string)": "infinite",
            "totalCollection(uint256)": "infinite",
            "transferFrom(address,address,uint256)": "infinite",
            "transferOwnership(address)": "28444"
        }
    }
}