{
  "contractName": "NFT",
  "abi": [
    {
      "inputs": [],
      "stateMutability": "nonpayable",
      "type": "constructor"
    },
    {
      "anonymous": false,
      "inputs": [
        {
          "indexed": true,
          "internalType": "address",
          "name": "owner",
          "type": "address"
        },
        {
          "indexed": true,
          "internalType": "address",
          "name": "approved",
          "type": "address"
        },
        {
          "indexed": true,
          "internalType": "uint256",
          "name": "tokenId",
          "type": "uint256"
        }
      ],
      "name": "Approval",
      "type": "event"
    },
    {
      "anonymous": false,
      "inputs": [
        {
          "indexed": true,
          "internalType": "address",
          "name": "owner",
          "type": "address"
        },
        {
          "indexed": true,
          "internalType": "address",
          "name": "operator",
          "type": "address"
        },
        {
          "indexed": false,
          "internalType": "bool",
          "name": "approved",
          "type": "bool"
        }
      ],
      "name": "ApprovalForAll",
      "type": "event"
    },
    {
      "anonymous": false,
      "inputs": [
        {
          "indexed": false,
          "internalType": "address",
          "name": "owner",
          "type": "address"
        },
        {
          "indexed": false,
          "internalType": "uint256",
          "name": "price",
          "type": "uint256"
        },
        {
          "indexed": false,
          "internalType": "uint256",
          "name": "id",
          "type": "uint256"
        },
        {
          "indexed": false,
          "internalType": "string",
          "name": "uri",
          "type": "string"
        }
      ],
      "name": "Mint",
      "type": "event"
    },
    {
      "anonymous": false,
      "inputs": [
        {
          "indexed": true,
          "internalType": "address",
          "name": "previousOwner",
          "type": "address"
        },
        {
          "indexed": true,
          "internalType": "address",
          "name": "newOwner",
          "type": "address"
        }
      ],
      "name": "OwnershipTransferred",
      "type": "event"
    },
    {
      "anonymous": false,
      "inputs": [
        {
          "indexed": true,
          "internalType": "address",
          "name": "from",
          "type": "address"
        },
        {
          "indexed": true,
          "internalType": "address",
          "name": "to",
          "type": "address"
        },
        {
          "indexed": true,
          "internalType": "uint256",
          "name": "tokenId",
          "type": "uint256"
        }
      ],
      "name": "Transfer",
      "type": "event"
    },
    {
      "inputs": [
        {
          "internalType": "address",
          "name": "to",
          "type": "address"
        },
        {
          "internalType": "uint256",
          "name": "tokenId",
          "type": "uint256"
        }
      ],
      "name": "approve",
      "outputs": [],
      "stateMutability": "nonpayable",
      "type": "function"
    },
    {
      "inputs": [
        {
          "internalType": "address",
          "name": "owner",
          "type": "address"
        }
      ],
      "name": "balanceOf",
      "outputs": [
        {
          "internalType": "uint256",
          "name": "",
          "type": "uint256"
        }
      ],
      "stateMutability": "view",
      "type": "function"
    },
    {
      "inputs": [
        {
          "internalType": "uint256",
          "name": "",
          "type": "uint256"
        }
      ],
      "name": "collection",
      "outputs": [
        {
          "internalType": "uint256",
          "name": "tokenId",
          "type": "uint256"
        },
        {
          "internalType": "string",
          "name": "title",
          "type": "string"
        },
        {
          "internalType": "string",
          "name": "artist",
          "type": "string"
        },
        {
          "internalType": "string",
          "name": "tokenURI",
          "type": "string"
        },
        {
          "internalType": "address payable",
          "name": "gallery",
          "type": "address"
        },
        {
          "internalType": "address payable",
          "name": "currentOwner",
          "type": "address"
        },
        {
          "internalType": "address payable",
          "name": "previousOwner",
          "type": "address"
        },
        {
          "internalType": "uint256",
          "name": "price",
          "type": "uint256"
        },
        {
          "internalType": "uint256",
          "name": "numberOfTransfers",
          "type": "uint256"
        },
        {
          "internalType": "bool",
          "name": "forSale",
          "type": "bool"
        }
      ],
      "stateMutability": "view",
      "type": "function"
    },
    {
      "inputs": [],
      "name": "collectionName",
      "outputs": [
        {
          "internalType": "string",
          "name": "",
          "type": "string"
        }
      ],
      "stateMutability": "view",
      "type": "function"
    },
    {
      "inputs": [],
      "name": "collectionNameSymbol",
      "outputs": [
        {
          "internalType": "string",
          "name": "",
          "type": "string"
        }
      ],
      "stateMutability": "view",
      "type": "function"
    },
    {
      "inputs": [
        {
          "internalType": "address",
          "name": "",
          "type": "address"
        }
      ],
      "name": "galleryOnlyMinter",
      "outputs": [
        {
          "internalType": "bool",
          "name": "",
          "type": "bool"
        }
      ],
      "stateMutability": "view",
      "type": "function"
    },
    {
      "inputs": [
        {
          "internalType": "uint256",
          "name": "tokenId",
          "type": "uint256"
        }
      ],
      "name": "getApproved",
      "outputs": [
        {
          "internalType": "address",
          "name": "",
          "type": "address"
        }
      ],
      "stateMutability": "view",
      "type": "function"
    },
    {
      "inputs": [
        {
          "internalType": "address",
          "name": "owner",
          "type": "address"
        },
        {
          "internalType": "address",
          "name": "operator",
          "type": "address"
        }
      ],
      "name": "isApprovedForAll",
      "outputs": [
        {
          "internalType": "bool",
          "name": "",
          "type": "bool"
        }
      ],
      "stateMutability": "view",
      "type": "function"
    },
    {
      "inputs": [],
      "name": "name",
      "outputs": [
        {
          "internalType": "string",
          "name": "",
          "type": "string"
        }
      ],
      "stateMutability": "view",
      "type": "function"
    },
    {
      "inputs": [],
      "name": "owner",
      "outputs": [
        {
          "internalType": "address",
          "name": "",
          "type": "address"
        }
      ],
      "stateMutability": "view",
      "type": "function"
    },
    {
      "inputs": [
        {
          "internalType": "uint256",
          "name": "tokenId",
          "type": "uint256"
        }
      ],
      "name": "ownerOf",
      "outputs": [
        {
          "internalType": "address",
          "name": "",
          "type": "address"
        }
      ],
      "stateMutability": "view",
      "type": "function"
    },
    {
      "inputs": [],
      "name": "renounceOwnership",
      "outputs": [],
      "stateMutability": "nonpayable",
      "type": "function"
    },
    {
      "inputs": [
        {
          "internalType": "address",
          "name": "from",
          "type": "address"
        },
        {
          "internalType": "address",
          "name": "to",
          "type": "address"
        },
        {
          "internalType": "uint256",
          "name": "tokenId",
          "type": "uint256"
        }
      ],
      "name": "safeTransferFrom",
      "outputs": [],
      "stateMutability": "nonpayable",
      "type": "function"
    },
    {
      "inputs": [
        {
          "internalType": "address",
          "name": "from",
          "type": "address"
        },
        {
          "internalType": "address",
          "name": "to",
          "type": "address"
        },
        {
          "internalType": "uint256",
          "name": "tokenId",
          "type": "uint256"
        },
        {
          "internalType": "bytes",
          "name": "_data",
          "type": "bytes"
        }
      ],
      "name": "safeTransferFrom",
      "outputs": [],
      "stateMutability": "nonpayable",
      "type": "function"
    },
    {
      "inputs": [
        {
          "internalType": "address",
          "name": "operator",
          "type": "address"
        },
        {
          "internalType": "bool",
          "name": "approved",
          "type": "bool"
        }
      ],
      "name": "setApprovalForAll",
      "outputs": [],
      "stateMutability": "nonpayable",
      "type": "function"
    },
    {
      "inputs": [
        {
          "internalType": "bytes4",
          "name": "interfaceId",
          "type": "bytes4"
        }
      ],
      "name": "supportsInterface",
      "outputs": [
        {
          "internalType": "bool",
          "name": "",
          "type": "bool"
        }
      ],
      "stateMutability": "view",
      "type": "function"
    },
    {
      "inputs": [],
      "name": "symbol",
      "outputs": [
        {
          "internalType": "string",
          "name": "",
          "type": "string"
        }
      ],
      "stateMutability": "view",
      "type": "function"
    },
    {
      "inputs": [],
      "name": "tokenCounter",
      "outputs": [
        {
          "internalType": "uint256",
          "name": "",
          "type": "uint256"
        }
      ],
      "stateMutability": "view",
      "type": "function"
    },
    {
      "inputs": [
        {
          "internalType": "string",
          "name": "",
          "type": "string"
        }
      ],
      "name": "tokenNameExists",
      "outputs": [
        {
          "internalType": "bool",
          "name": "",
          "type": "bool"
        }
      ],
      "stateMutability": "view",
      "type": "function"
    },
    {
      "inputs": [
        {
          "internalType": "uint256",
          "name": "tokenId",
          "type": "uint256"
        }
      ],
      "name": "tokenURI",
      "outputs": [
        {
          "internalType": "string",
          "name": "",
          "type": "string"
        }
      ],
      "stateMutability": "view",
      "type": "function"
    },
    {
      "inputs": [
        {
          "internalType": "string",
          "name": "",
          "type": "string"
        }
      ],
      "name": "tokenURIExists",
      "outputs": [
        {
          "internalType": "bool",
          "name": "",
          "type": "bool"
        }
      ],
      "stateMutability": "view",
      "type": "function"
    },
    {
      "inputs": [
        {
          "internalType": "address",
          "name": "from",
          "type": "address"
        },
        {
          "internalType": "address",
          "name": "to",
          "type": "address"
        },
        {
          "internalType": "uint256",
          "name": "tokenId",
          "type": "uint256"
        }
      ],
      "name": "transferFrom",
      "outputs": [],
      "stateMutability": "nonpayable",
      "type": "function"
    },
    {
      "inputs": [
        {
          "internalType": "address",
          "name": "newOwner",
          "type": "address"
        }
      ],
      "name": "transferOwnership",
      "outputs": [],
      "stateMutability": "nonpayable",
      "type": "function"
    },
    {
      "inputs": [
        {
          "internalType": "address",
          "name": "_account",
          "type": "address"
        }
      ],
      "name": "getMinterRole",
      "outputs": [
        {
          "internalType": "bool",
          "name": "",
          "type": "bool"
        }
      ],
      "stateMutability": "view",
      "type": "function"
    },
    {
      "inputs": [
        {
          "internalType": "address",
          "name": "_minter",
          "type": "address"
        }
      ],
      "name": "addMinter",
      "outputs": [],
      "stateMutability": "payable",
      "type": "function"
    },
    {
      "inputs": [
        {
          "internalType": "string",
          "name": "_name",
          "type": "string"
        },
        {
          "internalType": "string",
          "name": "_title",
          "type": "string"
        },
        {
          "internalType": "string",
          "name": "_artist",
          "type": "string"
        },
        {
          "internalType": "string",
          "name": "_tokenURI",
          "type": "string"
        },
        {
          "internalType": "address payable",
          "name": "_gallery",
          "type": "address"
        },
        {
          "internalType": "address payable",
          "name": "_currentOwner",
          "type": "address"
        },
        {
          "internalType": "address payable",
          "name": "_previousOwner",
          "type": "address"
        },
        {
          "internalType": "uint256",
          "name": "_price",
          "type": "uint256"
        }
      ],
      "name": "mint",
      "outputs": [],
      "stateMutability": "nonpayable",
      "type": "function"
    },
    {
      "inputs": [
        {
          "internalType": "uint256",
          "name": "_tokenId",
          "type": "uint256"
        }
      ],
      "name": "getTokenOwner",
      "outputs": [
        {
          "internalType": "address",
          "name": "",
          "type": "address"
        }
      ],
      "stateMutability": "view",
      "type": "function"
    },
    {
      "inputs": [
        {
          "internalType": "uint256",
          "name": "_tokenId",
          "type": "uint256"
        }
      ],
      "name": "getTokenMetaData",
      "outputs": [
        {
          "internalType": "string",
          "name": "",
          "type": "string"
        }
      ],
      "stateMutability": "view",
      "type": "function"
    },
    {
      "inputs": [],
      "name": "getNumberOfTokensMinted",
      "outputs": [
        {
          "internalType": "uint256",
          "name": "",
          "type": "uint256"
        }
      ],
      "stateMutability": "view",
      "type": "function"
    },
    {
      "inputs": [
        {
          "internalType": "address",
          "name": "_owner",
          "type": "address"
        }
      ],
      "name": "getTotalNumberOfTokensOwnedByAnAddress",
      "outputs": [
        {
          "internalType": "uint256",
          "name": "",
          "type": "uint256"
        }
      ],
      "stateMutability": "view",
      "type": "function"
    },
    {
      "inputs": [
        {
          "internalType": "uint256",
          "name": "_tokenId",
          "type": "uint256"
        }
      ],
      "name": "getTokenExists",
      "outputs": [
        {
          "internalType": "bool",
          "name": "",
          "type": "bool"
        }
      ],
      "stateMutability": "view",
      "type": "function"
    },
    {
      "inputs": [
        {
          "internalType": "uint256",
          "name": "_tokenId",
          "type": "uint256"
        }
      ],
      "name": "buy",
      "outputs": [],
      "stateMutability": "payable",
      "type": "function"
    },
    {
      "inputs": [
        {
          "internalType": "uint256",
          "name": "_tokenId",
          "type": "uint256"
        }
      ],
      "name": "toggleForSale",
      "outputs": [],
      "stateMutability": "nonpayable",
      "type": "function"
    }
  ],
  "bytecode": "0x60806040523480156200001157600080fd5b506040518060400160405280600b81526020017f4e46542047616c6c6572790000000000000000000000000000000000000000008152506040518060400160405280600381526020017f4e465400000000000000000000000000000000000000000000000000000000008152508160009080519060200190620000969291906200032a565b508060019080519060200190620000af9291906200032a565b505050620000d2620000c66200012860201b60201c565b6200013060201b60201c565b620000e2620001f660201b60201c565b60089080519060200190620000f99291906200032a565b506200010a6200029060201b60201c565b60099080519060200190620001219291906200032a565b506200043f565b600033905090565b6000600760009054906101000a900473ffffffffffffffffffffffffffffffffffffffff16905081600760006101000a81548173ffffffffffffffffffffffffffffffffffffffff021916908373ffffffffffffffffffffffffffffffffffffffff1602179055508173ffffffffffffffffffffffffffffffffffffffff168173ffffffffffffffffffffffffffffffffffffffff167f8be0079c531659141344cd1fd0a4f28419497f9722a3daafe3b4186f6b6457e060405160405180910390a35050565b606060008054620002079062000409565b80601f0160208091040260200160405190810160405280929190818152602001828054620002359062000409565b8015620002865780601f106200025a5761010080835404028352916020019162000286565b820191906000526020600020905b8154815290600101906020018083116200026857829003601f168201915b5050505050905090565b606060018054620002a19062000409565b80601f0160208091040260200160405190810160405280929190818152602001828054620002cf9062000409565b8015620003205780601f10620002f45761010080835404028352916020019162000320565b820191906000526020600020905b8154815290600101906020018083116200030257829003601f168201915b5050505050905090565b828054620003389062000409565b90600052602060002090601f0160209004810192826200035c5760008555620003a8565b82601f106200037757805160ff1916838001178555620003a8565b82800160010185558215620003a8579182015b82811115620003a75782518255916020019190600101906200038a565b5b509050620003b79190620003bb565b5090565b5b80821115620003d6576000816000905550600101620003bc565b5090565b7f4e487b7100000000000000000000000000000000000000000000000000000000600052602260045260246000fd5b600060028204905060018216806200042257607f821691505b60208210811415620004395762000438620003da565b5b50919050565b614c44806200044f6000396000f3fe6080604052600436106101ee5760003560e01c8063887463071161010d578063b88d4fde116100a0578063d96a094a1161006f578063d96a094a14610760578063e5326ab11461077c578063e985e9c5146107a7578063f0772377146107e4578063f2fde38b1461082a576101ee565b8063b88d4fde146106a4578063c87b56dd146106cd578063cc151f3a1461070a578063d082e38114610735576101ee565b8063a22cb465116100dc578063a22cb465146105d8578063a32018b914610601578063a46b1fac1461062a578063a5cd761f14610667576101ee565b8063887463071461053d5780638da5cb5b1461056657806395d89b4114610591578063983b2d56146105bc576101ee565b806343d32ae7116101855780636f9507f9116101545780636f9507f91461048157806370a08231146104ac578063715018a6146104e957806376a6a8c914610500576101ee565b806343d32ae71461038d57806358dda898146103ca5780636352211e1461040757806367c623cf14610444576101ee565b8063142687f3116101c1578063142687f3146102c157806323b872dd146102fe57806342842e0e146103275780634390285014610350576101ee565b806301ffc9a7146101f357806306fdde0314610230578063081812fc1461025b578063095ea7b314610298575b600080fd5b3480156101ff57600080fd5b5061021a60048036038101906102159190613569565b610853565b60405161022791906135b1565b60405180910390f35b34801561023c57600080fd5b50610245610935565b6040516102529190613665565b60405180910390f35b34801561026757600080fd5b50610282600480360381019061027d91906136bd565b6109c7565b60405161028f919061372b565b60405180910390f35b3480156102a457600080fd5b506102bf60048036038101906102ba9190613772565b610a4c565b005b3480156102cd57600080fd5b506102e860048036038101906102e391906136bd565b610b64565b6040516102f591906135b1565b60405180910390f35b34801561030a57600080fd5b50610325600480360381019061032091906137b2565b610b7b565b005b34801561033357600080fd5b5061034e600480360381019061034991906137b2565b610bdb565b005b34801561035c57600080fd5b5061037760048036038101906103729190613805565b610bfb565b6040516103849190613841565b60405180910390f35b34801561039957600080fd5b506103b460048036038101906103af9190613991565b610c12565b6040516103c191906135b1565b60405180910390f35b3480156103d657600080fd5b506103f160048036038101906103ec9190613805565b610c48565b6040516103fe91906135b1565b60405180910390f35b34801561041357600080fd5b5061042e600480360381019061042991906136bd565b610c9e565b60405161043b919061372b565b60405180910390f35b34801561045057600080fd5b5061046b600480360381019061046691906136bd565b610d50565b6040516104789190613665565b60405180910390f35b34801561048d57600080fd5b50610496610d68565b6040516104a39190613665565b60405180910390f35b3480156104b857600080fd5b506104d360048036038101906104ce9190613805565b610df6565b6040516104e09190613841565b60405180910390f35b3480156104f557600080fd5b506104fe610eae565b005b34801561050c57600080fd5b5061052760048036038101906105229190613805565b610f36565b60405161053491906135b1565b60405180910390f35b34801561054957600080fd5b50610564600480360381019061055f9190613a18565b610f56565b005b34801561057257600080fd5b5061057b611362565b604051610588919061372b565b60405180910390f35b34801561059d57600080fd5b506105a661138c565b6040516105b39190613665565b60405180910390f35b6105d660048036038101906105d19190613805565b61141e565b005b3480156105e457600080fd5b506105ff60048036038101906105fa9190613b6a565b6114d6565b005b34801561060d57600080fd5b50610628600480360381019061062391906136bd565b611657565b005b34801561063657600080fd5b50610651600480360381019061064c9190613991565b611b8a565b60405161065e91906135b1565b60405180910390f35b34801561067357600080fd5b5061068e600480360381019061068991906136bd565b611bc0565b60405161069b919061372b565b60405180910390f35b3480156106b057600080fd5b506106cb60048036038101906106c69190613c4b565b611bd7565b005b3480156106d957600080fd5b506106f460048036038101906106ef91906136bd565b611c39565b6040516107019190613665565b60405180910390f35b34801561071657600080fd5b5061071f611d8b565b60405161072c9190613841565b60405180910390f35b34801561074157600080fd5b5061074a611d9a565b6040516107579190613841565b60405180910390f35b61077a600480360381019061077591906136bd565b611da0565b005b34801561078857600080fd5b506107916123e4565b60405161079e9190613665565b60405180910390f35b3480156107b357600080fd5b506107ce60048036038101906107c99190613cce565b612472565b6040516107db91906135b1565b60405180910390f35b3480156107f057600080fd5b5061080b600480360381019061080691906136bd565b612506565b6040516108219a99989796959493929190613d1d565b60405180910390f35b34801561083657600080fd5b50610851600480360381019061084c9190613805565b61275f565b005b60007f80ac58cd000000000000000000000000000000000000000000000000000000007bffffffffffffffffffffffffffffffffffffffffffffffffffffffff1916827bffffffffffffffffffffffffffffffffffffffffffffffffffffffff1916148061091e57507f5b5e139f000000000000000000000000000000000000000000000000000000007bffffffffffffffffffffffffffffffffffffffffffffffffffffffff1916827bffffffffffffffffffffffffffffffffffffffffffffffffffffffff1916145b8061092e575061092d82612857565b5b9050919050565b60606000805461094490613dfd565b80601f016020809104026020016040519081016040528092919081815260200182805461097090613dfd565b80156109bd5780601f10610992576101008083540402835291602001916109bd565b820191906000526020600020905b8154815290600101906020018083116109a057829003601f168201915b5050505050905090565b60006109d2826128c1565b610a11576040517f08c379a0000000000000000000000000000000000000000000000000000000008152600401610a0890613ea1565b60405180910390fd5b6004600083815260200190815260200160002060009054906101000a900473ffffffffffffffffffffffffffffffffffffffff169050919050565b6000610a5782610c9e565b90508073ffffffffffffffffffffffffffffffffffffffff168373ffffffffffffffffffffffffffffffffffffffff161415610ac8576040517f08c379a0000000000000000000000000000000000000000000000000000000008152600401610abf90613f33565b60405180910390fd5b8073ffffffffffffffffffffffffffffffffffffffff16610ae761292d565b73ffffffffffffffffffffffffffffffffffffffff161480610b165750610b1581610b1061292d565b612472565b5b610b55576040517f08c379a0000000000000000000000000000000000000000000000000000000008152600401610b4c90613fc5565b60405180910390fd5b610b5f8383612935565b505050565b600080610b70836128c1565b905080915050919050565b610b8c610b8661292d565b826129ee565b610bcb576040517f08c379a0000000000000000000000000000000000000000000000000000000008152600401610bc290614057565b60405180910390fd5b610bd6838383612acc565b505050565b610bf683838360405180602001604052806000815250611bd7565b505050565b600080610c0783610df6565b905080915050919050565b600d818051602081018201805184825260208301602085012081835280955050505050506000915054906101000a900460ff1681565b6000600e60008373ffffffffffffffffffffffffffffffffffffffff1673ffffffffffffffffffffffffffffffffffffffff16815260200190815260200160002060009054906101000a900460ff169050919050565b6000806002600084815260200190815260200160002060009054906101000a900473ffffffffffffffffffffffffffffffffffffffff169050600073ffffffffffffffffffffffffffffffffffffffff168173ffffffffffffffffffffffffffffffffffffffff161415610d47576040517f08c379a0000000000000000000000000000000000000000000000000000000008152600401610d3e906140e9565b60405180910390fd5b80915050919050565b60606000610d5d83611c39565b905080915050919050565b60098054610d7590613dfd565b80601f0160208091040260200160405190810160405280929190818152602001828054610da190613dfd565b8015610dee5780601f10610dc357610100808354040283529160200191610dee565b820191906000526020600020905b815481529060010190602001808311610dd157829003601f168201915b505050505081565b60008073ffffffffffffffffffffffffffffffffffffffff168273ffffffffffffffffffffffffffffffffffffffff161415610e67576040517f08c379a0000000000000000000000000000000000000000000000000000000008152600401610e5e9061417b565b60405180910390fd5b600360008373ffffffffffffffffffffffffffffffffffffffff1673ffffffffffffffffffffffffffffffffffffffff168152602001908152602001600020549050919050565b610eb661292d565b73ffffffffffffffffffffffffffffffffffffffff16610ed4611362565b73ffffffffffffffffffffffffffffffffffffffff1614610f2a576040517f08c379a0000000000000000000000000000000000000000000000000000000008152600401610f21906141e7565b60405180910390fd5b610f346000612d28565b565b600e6020528060005260406000206000915054906101000a900460ff1681565b600e60008573ffffffffffffffffffffffffffffffffffffffff1673ffffffffffffffffffffffffffffffffffffffff16815260200190815260200160002060009054906101000a900460ff16610fe2576040517f08c379a0000000000000000000000000000000000000000000000000000000008152600401610fd990614253565b60405180910390fd5b600a6000815480929190610ff5906142a2565b9190505550611005600a546128c1565b1561100f57600080fd5b600d8560405161101f9190614327565b908152602001604051809103902060009054906101000a900460ff161561104557600080fd5b600c856040516110559190614327565b908152602001604051809103902060009054906101000a900460ff161561107b57600080fd5b6001600d8660405161108d9190614327565b908152602001604051809103902060006101000a81548160ff0219169083151502179055506001600c896040516110c49190614327565b908152602001604051809103902060006101000a81548160ff0219169083151502179055506110f584600a54612dee565b611101600a5486612fbc565b6000604051806101400160405280600a5481526020018981526020018881526020018781526020018673ffffffffffffffffffffffffffffffffffffffff1681526020018573ffffffffffffffffffffffffffffffffffffffff1681526020018473ffffffffffffffffffffffffffffffffffffffff1681526020018381526020016000815260200160011515815250905080600b6000600a5481526020019081526020016000206000820151816000015560208201518160010190805190602001906111cf92919061345a565b5060408201518160020190805190602001906111ec92919061345a565b50606082015181600301908051906020019061120992919061345a565b5060808201518160040160006101000a81548173ffffffffffffffffffffffffffffffffffffffff021916908373ffffffffffffffffffffffffffffffffffffffff16021790555060a08201518160050160006101000a81548173ffffffffffffffffffffffffffffffffffffffff021916908373ffffffffffffffffffffffffffffffffffffffff16021790555060c08201518160060160006101000a81548173ffffffffffffffffffffffffffffffffffffffff021916908373ffffffffffffffffffffffffffffffffffffffff16021790555060e0820151816007015561010082015181600801556101208201518160090160006101000a81548160ff0219169083151502179055509050507fcd0e00beb8e6d5ab96ee16e6a1a735ff07cae8702f2e48feb32fefe40f25692c8583600a548960405161134f949392919061439d565b60405180910390a1505050505050505050565b6000600760009054906101000a900473ffffffffffffffffffffffffffffffffffffffff16905090565b60606001805461139b90613dfd565b80601f01602080910402602001604051908101604052809291908181526020018280546113c790613dfd565b80156114145780601f106113e957610100808354040283529160200191611414565b820191906000526020600020905b8154815290600101906020018083116113f757829003601f168201915b5050505050905090565b60001515600e60008373ffffffffffffffffffffffffffffffffffffffff1673ffffffffffffffffffffffffffffffffffffffff16815260200190815260200160002060009054906101000a900460ff1615151461147b57600080fd5b6001600e60008373ffffffffffffffffffffffffffffffffffffffff1673ffffffffffffffffffffffffffffffffffffffff16815260200190815260200160002060006101000a81548160ff02191690831515021790555050565b6114de61292d565b73ffffffffffffffffffffffffffffffffffffffff168273ffffffffffffffffffffffffffffffffffffffff16141561154c576040517f08c379a000000000000000000000000000000000000000000000000000000000815260040161154390614435565b60405180910390fd5b806005600061155961292d565b73ffffffffffffffffffffffffffffffffffffffff1673ffffffffffffffffffffffffffffffffffffffff16815260200190815260200160002060008473ffffffffffffffffffffffffffffffffffffffff1673ffffffffffffffffffffffffffffffffffffffff16815260200190815260200160002060006101000a81548160ff0219169083151502179055508173ffffffffffffffffffffffffffffffffffffffff1661160661292d565b73ffffffffffffffffffffffffffffffffffffffff167f17307eab39ab6107e8899845ad3d59bd9653f200f220920489ca2b5937696c318360405161164b91906135b1565b60405180910390a35050565b611660816128c1565b61166957600080fd5b600061167482610c9e565b90503373ffffffffffffffffffffffffffffffffffffffff168173ffffffffffffffffffffffffffffffffffffffff16146116ae57600080fd5b6000600b600084815260200190815260200160002060405180610140016040529081600082015481526020016001820180546116e990613dfd565b80601f016020809104026020016040519081016040528092919081815260200182805461171590613dfd565b80156117625780601f1061173757610100808354040283529160200191611762565b820191906000526020600020905b81548152906001019060200180831161174557829003601f168201915b5050505050815260200160028201805461177b90613dfd565b80601f01602080910402602001604051908101604052809291908181526020018280546117a790613dfd565b80156117f45780601f106117c9576101008083540402835291602001916117f4565b820191906000526020600020905b8154815290600101906020018083116117d757829003601f168201915b5050505050815260200160038201805461180d90613dfd565b80601f016020809104026020016040519081016040528092919081815260200182805461183990613dfd565b80156118865780601f1061185b57610100808354040283529160200191611886565b820191906000526020600020905b81548152906001019060200180831161186957829003601f168201915b505050505081526020016004820160009054906101000a900473ffffffffffffffffffffffffffffffffffffffff1673ffffffffffffffffffffffffffffffffffffffff1673ffffffffffffffffffffffffffffffffffffffff1681526020016005820160009054906101000a900473ffffffffffffffffffffffffffffffffffffffff1673ffffffffffffffffffffffffffffffffffffffff1673ffffffffffffffffffffffffffffffffffffffff1681526020016006820160009054906101000a900473ffffffffffffffffffffffffffffffffffffffff1673ffffffffffffffffffffffffffffffffffffffff1673ffffffffffffffffffffffffffffffffffffffff16815260200160078201548152602001600882015481526020016009820160009054906101000a900460ff16151515158152505090506001816101200190151590811515815250156119ef57600081610120019015159081151581525050611a02565b6001816101200190151590811515815250505b80600b6000858152602001908152602001600020600082015181600001556020820151816001019080519060200190611a3c92919061345a565b506040820151816002019080519060200190611a5992919061345a565b506060820151816003019080519060200190611a7692919061345a565b5060808201518160040160006101000a81548173ffffffffffffffffffffffffffffffffffffffff021916908373ffffffffffffffffffffffffffffffffffffffff16021790555060a08201518160050160006101000a81548173ffffffffffffffffffffffffffffffffffffffff021916908373ffffffffffffffffffffffffffffffffffffffff16021790555060c08201518160060160006101000a81548173ffffffffffffffffffffffffffffffffffffffff021916908373ffffffffffffffffffffffffffffffffffffffff16021790555060e0820151816007015561010082015181600801556101208201518160090160006101000a81548160ff021916908315150217905550905050505050565b600c818051602081018201805184825260208301602085012081835280955050505050506000915054906101000a900460ff1681565b600080611bcc83610c9e565b905080915050919050565b611be8611be261292d565b836129ee565b611c27576040517f08c379a0000000000000000000000000000000000000000000000000000000008152600401611c1e90614057565b60405180910390fd5b611c3384848484613030565b50505050565b6060611c44826128c1565b611c83576040517f08c379a0000000000000000000000000000000000000000000000000000000008152600401611c7a906144c7565b60405180910390fd5b6000600660008481526020019081526020016000208054611ca390613dfd565b80601f0160208091040260200160405190810160405280929190818152602001828054611ccf90613dfd565b8015611d1c5780601f10611cf157610100808354040283529160200191611d1c565b820191906000526020600020905b815481529060010190602001808311611cff57829003601f168201915b505050505090506000611d2d61308c565b9050600081511415611d43578192505050611d86565b600082511115611d78578082604051602001611d609291906144e7565b60405160208183030381529060405292505050611d86565b611d81846130a3565b925050505b919050565b600080600a5490508091505090565b600a5481565b600073ffffffffffffffffffffffffffffffffffffffff163373ffffffffffffffffffffffffffffffffffffffff161415611dda57600080fd5b611de3816128c1565b611dec57600080fd5b6000611df782610c9e565b90503373ffffffffffffffffffffffffffffffffffffffff168173ffffffffffffffffffffffffffffffffffffffff161415611e3257600080fd5b6000600b60008481526020019081526020016000206040518061014001604052908160008201548152602001600182018054611e6d90613dfd565b80601f0160208091040260200160405190810160405280929190818152602001828054611e9990613dfd565b8015611ee65780601f10611ebb57610100808354040283529160200191611ee6565b820191906000526020600020905b815481529060010190602001808311611ec957829003601f168201915b50505050508152602001600282018054611eff90613dfd565b80601f0160208091040260200160405190810160405280929190818152602001828054611f2b90613dfd565b8015611f785780601f10611f4d57610100808354040283529160200191611f78565b820191906000526020600020905b815481529060010190602001808311611f5b57829003601f168201915b50505050508152602001600382018054611f9190613dfd565b80601f0160208091040260200160405190810160405280929190818152602001828054611fbd90613dfd565b801561200a5780601f10611fdf5761010080835404028352916020019161200a565b820191906000526020600020905b815481529060010190602001808311611fed57829003601f168201915b505050505081526020016004820160009054906101000a900473ffffffffffffffffffffffffffffffffffffffff1673ffffffffffffffffffffffffffffffffffffffff1673ffffffffffffffffffffffffffffffffffffffff1681526020016005820160009054906101000a900473ffffffffffffffffffffffffffffffffffffffff1673ffffffffffffffffffffffffffffffffffffffff1673ffffffffffffffffffffffffffffffffffffffff1681526020016006820160009054906101000a900473ffffffffffffffffffffffffffffffffffffffff1673ffffffffffffffffffffffffffffffffffffffff1673ffffffffffffffffffffffffffffffffffffffff16815260200160078201548152602001600882015481526020016009820160009054906101000a900460ff16151515158152505090508060e0015134101561215757600080fd5b600181610120019015159081151581525061217157600080fd5b61217c823385612acc565b60008160a0015190508073ffffffffffffffffffffffffffffffffffffffff166108fc349081150290604051600060405180830381858888f193505050501580156121cb573d6000803e3d6000fd5b508160a001518260c0019073ffffffffffffffffffffffffffffffffffffffff16908173ffffffffffffffffffffffffffffffffffffffff1681525050338260a0019073ffffffffffffffffffffffffffffffffffffffff16908173ffffffffffffffffffffffffffffffffffffffff168152505060018261010001818151612254919061450b565b9150818152505081600b600086815260200190815260200160002060008201518160000155602082015181600101908051906020019061229592919061345a565b5060408201518160020190805190602001906122b292919061345a565b5060608201518160030190805190602001906122cf92919061345a565b5060808201518160040160006101000a81548173ffffffffffffffffffffffffffffffffffffffff021916908373ffffffffffffffffffffffffffffffffffffffff16021790555060a08201518160050160006101000a81548173ffffffffffffffffffffffffffffffffffffffff021916908373ffffffffffffffffffffffffffffffffffffffff16021790555060c08201518160060160006101000a81548173ffffffffffffffffffffffffffffffffffffffff021916908373ffffffffffffffffffffffffffffffffffffffff16021790555060e0820151816007015561010082015181600801556101208201518160090160006101000a81548160ff02191690831515021790555090505050505050565b600880546123f190613dfd565b80601f016020809104026020016040519081016040528092919081815260200182805461241d90613dfd565b801561246a5780601f1061243f5761010080835404028352916020019161246a565b820191906000526020600020905b81548152906001019060200180831161244d57829003601f168201915b505050505081565b6000600560008473ffffffffffffffffffffffffffffffffffffffff1673ffffffffffffffffffffffffffffffffffffffff16815260200190815260200160002060008373ffffffffffffffffffffffffffffffffffffffff1673ffffffffffffffffffffffffffffffffffffffff16815260200190815260200160002060009054906101000a900460ff16905092915050565b600b60205280600052604060002060009150905080600001549080600101805461252f90613dfd565b80601f016020809104026020016040519081016040528092919081815260200182805461255b90613dfd565b80156125a85780601f1061257d576101008083540402835291602001916125a8565b820191906000526020600020905b81548152906001019060200180831161258b57829003601f168201915b5050505050908060020180546125bd90613dfd565b80601f01602080910402602001604051908101604052809291908181526020018280546125e990613dfd565b80156126365780601f1061260b57610100808354040283529160200191612636565b820191906000526020600020905b81548152906001019060200180831161261957829003601f168201915b50505050509080600301805461264b90613dfd565b80601f016020809104026020016040519081016040528092919081815260200182805461267790613dfd565b80156126c45780601f10612699576101008083540402835291602001916126c4565b820191906000526020600020905b8154815290600101906020018083116126a757829003601f168201915b5050505050908060040160009054906101000a900473ffffffffffffffffffffffffffffffffffffffff16908060050160009054906101000a900473ffffffffffffffffffffffffffffffffffffffff16908060060160009054906101000a900473ffffffffffffffffffffffffffffffffffffffff16908060070154908060080154908060090160009054906101000a900460ff1690508a565b61276761292d565b73ffffffffffffffffffffffffffffffffffffffff16612785611362565b73ffffffffffffffffffffffffffffffffffffffff16146127db576040517f08c379a00000000000000000000000000000000000000000000000000000000081526004016127d2906141e7565b60405180910390fd5b600073ffffffffffffffffffffffffffffffffffffffff168173ffffffffffffffffffffffffffffffffffffffff16141561284b576040517f08c379a0000000000000000000000000000000000000000000000000000000008152600401612842906145d3565b60405180910390fd5b61285481612d28565b50565b60007f01ffc9a7000000000000000000000000000000000000000000000000000000007bffffffffffffffffffffffffffffffffffffffffffffffffffffffff1916827bffffffffffffffffffffffffffffffffffffffffffffffffffffffff1916149050919050565b60008073ffffffffffffffffffffffffffffffffffffffff166002600084815260200190815260200160002060009054906101000a900473ffffffffffffffffffffffffffffffffffffffff1673ffffffffffffffffffffffffffffffffffffffff1614159050919050565b600033905090565b816004600083815260200190815260200160002060006101000a81548173ffffffffffffffffffffffffffffffffffffffff021916908373ffffffffffffffffffffffffffffffffffffffff160217905550808273ffffffffffffffffffffffffffffffffffffffff166129a883610c9e565b73ffffffffffffffffffffffffffffffffffffffff167f8c5be1e5ebec7d5bd14f71427d1e84f3dd0314c0f7b2291e5b200ac8c7c3b92560405160405180910390a45050565b60006129f9826128c1565b612a38576040517f08c379a0000000000000000000000000000000000000000000000000000000008152600401612a2f90614665565b60405180910390fd5b6000612a4383610c9e565b90508073ffffffffffffffffffffffffffffffffffffffff168473ffffffffffffffffffffffffffffffffffffffff161480612ab257508373ffffffffffffffffffffffffffffffffffffffff16612a9a846109c7565b73ffffffffffffffffffffffffffffffffffffffff16145b80612ac35750612ac28185612472565b5b91505092915050565b8273ffffffffffffffffffffffffffffffffffffffff16612aec82610c9e565b73ffffffffffffffffffffffffffffffffffffffff1614612b42576040517f08c379a0000000000000000000000000000000000000000000000000000000008152600401612b39906146f7565b60405180910390fd5b600073ffffffffffffffffffffffffffffffffffffffff168273ffffffffffffffffffffffffffffffffffffffff161415612bb2576040517f08c379a0000000000000000000000000000000000000000000000000000000008152600401612ba990614789565b60405180910390fd5b612bbd83838361314a565b612bc8600082612935565b6001600360008573ffffffffffffffffffffffffffffffffffffffff1673ffffffffffffffffffffffffffffffffffffffff1681526020019081526020016000206000828254612c1891906147a9565b925050819055506001600360008473ffffffffffffffffffffffffffffffffffffffff1673ffffffffffffffffffffffffffffffffffffffff1681526020019081526020016000206000828254612c6f919061450b565b92505081905550816002600083815260200190815260200160002060006101000a81548173ffffffffffffffffffffffffffffffffffffffff021916908373ffffffffffffffffffffffffffffffffffffffff160217905550808273ffffffffffffffffffffffffffffffffffffffff168473ffffffffffffffffffffffffffffffffffffffff167fddf252ad1be2c89b69c2b068fc378daa952ba7f163c4a11628f55a4df523b3ef60405160405180910390a4505050565b6000600760009054906101000a900473ffffffffffffffffffffffffffffffffffffffff16905081600760006101000a81548173ffffffffffffffffffffffffffffffffffffffff021916908373ffffffffffffffffffffffffffffffffffffffff1602179055508173ffffffffffffffffffffffffffffffffffffffff168173ffffffffffffffffffffffffffffffffffffffff167f8be0079c531659141344cd1fd0a4f28419497f9722a3daafe3b4186f6b6457e060405160405180910390a35050565b600073ffffffffffffffffffffffffffffffffffffffff168273ffffffffffffffffffffffffffffffffffffffff161415612e5e576040517f08c379a0000000000000000000000000000000000000000000000000000000008152600401612e5590614829565b60405180910390fd5b612e67816128c1565b15612ea7576040517f08c379a0000000000000000000000000000000000000000000000000000000008152600401612e9e90614895565b60405180910390fd5b612eb36000838361314a565b6001600360008473ffffffffffffffffffffffffffffffffffffffff1673ffffffffffffffffffffffffffffffffffffffff1681526020019081526020016000206000828254612f03919061450b565b92505081905550816002600083815260200190815260200160002060006101000a81548173ffffffffffffffffffffffffffffffffffffffff021916908373ffffffffffffffffffffffffffffffffffffffff160217905550808273ffffffffffffffffffffffffffffffffffffffff16600073ffffffffffffffffffffffffffffffffffffffff167fddf252ad1be2c89b69c2b068fc378daa952ba7f163c4a11628f55a4df523b3ef60405160405180910390a45050565b612fc5826128c1565b613004576040517f08c379a0000000000000000000000000000000000000000000000000000000008152600401612ffb90614927565b60405180910390fd5b8060066000848152602001908152602001600020908051906020019061302b92919061345a565b505050565b61303b848484612acc565b6130478484848461314f565b613086576040517f08c379a000000000000000000000000000000000000000000000000000000000815260040161307d906149b9565b60405180910390fd5b50505050565b606060405180602001604052806000815250905090565b60606130ae826128c1565b6130ed576040517f08c379a00000000000000000000000000000000000000000000000000000000081526004016130e490614a4b565b60405180910390fd5b60006130f761308c565b905060008151116131175760405180602001604052806000815250613142565b80613121846132e6565b6040516020016131329291906144e7565b6040516020818303038152906040525b915050919050565b505050565b60006131708473ffffffffffffffffffffffffffffffffffffffff16613447565b156132d9578373ffffffffffffffffffffffffffffffffffffffff1663150b7a0261319961292d565b8786866040518563ffffffff1660e01b81526004016131bb9493929190614ac0565b602060405180830381600087803b1580156131d557600080fd5b505af192505050801561320657506040513d601f19601f820116820180604052508101906132039190614b21565b60015b613289573d8060008114613236576040519150601f19603f3d011682016040523d82523d6000602084013e61323b565b606091505b50600081511415613281576040517f08c379a0000000000000000000000000000000000000000000000000000000008152600401613278906149b9565b60405180910390fd5b805181602001fd5b63150b7a0260e01b7bffffffffffffffffffffffffffffffffffffffffffffffffffffffff1916817bffffffffffffffffffffffffffffffffffffffffffffffffffffffff1916149150506132de565b600190505b949350505050565b6060600082141561332e576040518060400160405280600181526020017f30000000000000000000000000000000000000000000000000000000000000008152509050613442565b600082905060005b60008214613360578080613349906142a2565b915050600a826133599190614b7d565b9150613336565b60008167ffffffffffffffff81111561337c5761337b613866565b5b6040519080825280601f01601f1916602001820160405280156133ae5781602001600182028036833780820191505090505b5090505b6000851461343b576001826133c791906147a9565b9150600a856133d69190614bae565b60306133e2919061450b565b60f81b8183815181106133f8576133f7614bdf565b5b60200101907effffffffffffffffffffffffffffffffffffffffffffffffffffffffffffff1916908160001a905350600a856134349190614b7d565b94506133b2565b8093505050505b919050565b600080823b905060008111915050919050565b82805461346690613dfd565b90600052602060002090601f01602090048101928261348857600085556134cf565b82601f106134a157805160ff19168380011785556134cf565b828001600101855582156134cf579182015b828111156134ce5782518255916020019190600101906134b3565b5b5090506134dc91906134e0565b5090565b5b808211156134f95760008160009055506001016134e1565b5090565b6000604051905090565b600080fd5b600080fd5b60007fffffffff0000000000000000000000000000000000000000000000000000000082169050919050565b61354681613511565b811461355157600080fd5b50565b6000813590506135638161353d565b92915050565b60006020828403121561357f5761357e613507565b5b600061358d84828501613554565b91505092915050565b60008115159050919050565b6135ab81613596565b82525050565b60006020820190506135c660008301846135a2565b92915050565b600081519050919050565b600082825260208201905092915050565b60005b838110156136065780820151818401526020810190506135eb565b83811115613615576000848401525b50505050565b6000601f19601f8301169050919050565b6000613637826135cc565b61364181856135d7565b93506136518185602086016135e8565b61365a8161361b565b840191505092915050565b6000602082019050818103600083015261367f818461362c565b905092915050565b6000819050919050565b61369a81613687565b81146136a557600080fd5b50565b6000813590506136b781613691565b92915050565b6000602082840312156136d3576136d2613507565b5b60006136e1848285016136a8565b91505092915050565b600073ffffffffffffffffffffffffffffffffffffffff82169050919050565b6000613715826136ea565b9050919050565b6137258161370a565b82525050565b6000602082019050613740600083018461371c565b92915050565b61374f8161370a565b811461375a57600080fd5b50565b60008135905061376c81613746565b92915050565b6000806040838503121561378957613788613507565b5b60006137978582860161375d565b92505060206137a8858286016136a8565b9150509250929050565b6000806000606084860312156137cb576137ca613507565b5b60006137d98682870161375d565b93505060206137ea8682870161375d565b92505060406137fb868287016136a8565b9150509250925092565b60006020828403121561381b5761381a613507565b5b60006138298482850161375d565b91505092915050565b61383b81613687565b82525050565b60006020820190506138566000830184613832565b92915050565b600080fd5b600080fd5b7f4e487b7100000000000000000000000000000000000000000000000000000000600052604160045260246000fd5b61389e8261361b565b810181811067ffffffffffffffff821117156138bd576138bc613866565b5b80604052505050565b60006138d06134fd565b90506138dc8282613895565b919050565b600067ffffffffffffffff8211156138fc576138fb613866565b5b6139058261361b565b9050602081019050919050565b82818337600083830152505050565b600061393461392f846138e1565b6138c6565b9050828152602081018484840111156139505761394f613861565b5b61395b848285613912565b509392505050565b600082601f8301126139785761397761385c565b5b8135613988848260208601613921565b91505092915050565b6000602082840312156139a7576139a6613507565b5b600082013567ffffffffffffffff8111156139c5576139c461350c565b5b6139d184828501613963565b91505092915050565b60006139e5826136ea565b9050919050565b6139f5816139da565b8114613a0057600080fd5b50565b600081359050613a12816139ec565b92915050565b600080600080600080600080610100898b031215613a3957613a38613507565b5b600089013567ffffffffffffffff811115613a5757613a5661350c565b5b613a638b828c01613963565b985050602089013567ffffffffffffffff811115613a8457613a8361350c565b5b613a908b828c01613963565b975050604089013567ffffffffffffffff811115613ab157613ab061350c565b5b613abd8b828c01613963565b965050606089013567ffffffffffffffff811115613ade57613add61350c565b5b613aea8b828c01613963565b9550506080613afb8b828c01613a03565b94505060a0613b0c8b828c01613a03565b93505060c0613b1d8b828c01613a03565b92505060e0613b2e8b828c016136a8565b9150509295985092959890939650565b613b4781613596565b8114613b5257600080fd5b50565b600081359050613b6481613b3e565b92915050565b60008060408385031215613b8157613b80613507565b5b6000613b8f8582860161375d565b9250506020613ba085828601613b55565b9150509250929050565b600067ffffffffffffffff821115613bc557613bc4613866565b5b613bce8261361b565b9050602081019050919050565b6000613bee613be984613baa565b6138c6565b905082815260208101848484011115613c0a57613c09613861565b5b613c15848285613912565b509392505050565b600082601f830112613c3257613c3161385c565b5b8135613c42848260208601613bdb565b91505092915050565b60008060008060808587031215613c6557613c64613507565b5b6000613c738782880161375d565b9450506020613c848782880161375d565b9350506040613c95878288016136a8565b925050606085013567ffffffffffffffff811115613cb657613cb561350c565b5b613cc287828801613c1d565b91505092959194509250565b60008060408385031215613ce557613ce4613507565b5b6000613cf38582860161375d565b9250506020613d048582860161375d565b9150509250929050565b613d17816139da565b82525050565b600061014082019050613d33600083018d613832565b8181036020830152613d45818c61362c565b90508181036040830152613d59818b61362c565b90508181036060830152613d6d818a61362c565b9050613d7c6080830189613d0e565b613d8960a0830188613d0e565b613d9660c0830187613d0e565b613da360e0830186613832565b613db1610100830185613832565b613dbf6101208301846135a2565b9b9a5050505050505050505050565b7f4e487b7100000000000000000000000000000000000000000000000000000000600052602260045260246000fd5b60006002820490506001821680613e1557607f821691505b60208210811415613e2957613e28613dce565b5b50919050565b7f4552433732313a20617070726f76656420717565727920666f72206e6f6e657860008201527f697374656e7420746f6b656e0000000000000000000000000000000000000000602082015250565b6000613e8b602c836135d7565b9150613e9682613e2f565b604082019050919050565b60006020820190508181036000830152613eba81613e7e565b9050919050565b7f4552433732313a20617070726f76616c20746f2063757272656e74206f776e6560008201527f7200000000000000000000000000000000000000000000000000000000000000602082015250565b6000613f1d6021836135d7565b9150613f2882613ec1565b604082019050919050565b60006020820190508181036000830152613f4c81613f10565b9050919050565b7f4552433732313a20617070726f76652063616c6c6572206973206e6f74206f7760008201527f6e6572206e6f7220617070726f76656420666f7220616c6c0000000000000000602082015250565b6000613faf6038836135d7565b9150613fba82613f53565b604082019050919050565b60006020820190508181036000830152613fde81613fa2565b9050919050565b7f4552433732313a207472616e736665722063616c6c6572206973206e6f74206f60008201527f776e6572206e6f7220617070726f766564000000000000000000000000000000602082015250565b60006140416031836135d7565b915061404c82613fe5565b604082019050919050565b6000602082019050818103600083015261407081614034565b9050919050565b7f4552433732313a206f776e657220717565727920666f72206e6f6e657869737460008201527f656e7420746f6b656e0000000000000000000000000000000000000000000000602082015250565b60006140d36029836135d7565b91506140de82614077565b604082019050919050565b60006020820190508181036000830152614102816140c6565b9050919050565b7f4552433732313a2062616c616e636520717565727920666f7220746865207a6560008201527f726f206164647265737300000000000000000000000000000000000000000000602082015250565b6000614165602a836135d7565b915061417082614109565b604082019050919050565b6000602082019050818103600083015261419481614158565b9050919050565b7f4f776e61626c653a2063616c6c6572206973206e6f7420746865206f776e6572600082015250565b60006141d16020836135d7565b91506141dc8261419b565b602082019050919050565b60006020820190508181036000830152614200816141c4565b9050919050565b7f4f6e6c79207468652067616c6c6572792063616e206d696e7421000000000000600082015250565b600061423d601a836135d7565b915061424882614207565b602082019050919050565b6000602082019050818103600083015261426c81614230565b9050919050565b7f4e487b7100000000000000000000000000000000000000000000000000000000600052601160045260246000fd5b60006142ad82613687565b91507fffffffffffffffffffffffffffffffffffffffffffffffffffffffffffffffff8214156142e0576142df614273565b5b600182019050919050565b600081905092915050565b6000614301826135cc565b61430b81856142eb565b935061431b8185602086016135e8565b80840191505092915050565b600061433382846142f6565b915081905092915050565b6000819050919050565b600061436361435e614359846136ea565b61433e565b6136ea565b9050919050565b600061437582614348565b9050919050565b60006143878261436a565b9050919050565b6143978161437c565b82525050565b60006080820190506143b2600083018761438e565b6143bf6020830186613832565b6143cc6040830185613832565b81810360608301526143de818461362c565b905095945050505050565b7f4552433732313a20617070726f766520746f2063616c6c657200000000000000600082015250565b600061441f6019836135d7565b915061442a826143e9565b602082019050919050565b6000602082019050818103600083015261444e81614412565b9050919050565b7f45524337323155524953746f726167653a2055524920717565727920666f722060008201527f6e6f6e6578697374656e7420746f6b656e000000000000000000000000000000602082015250565b60006144b16031836135d7565b91506144bc82614455565b604082019050919050565b600060208201905081810360008301526144e0816144a4565b9050919050565b60006144f382856142f6565b91506144ff82846142f6565b91508190509392505050565b600061451682613687565b915061452183613687565b9250827fffffffffffffffffffffffffffffffffffffffffffffffffffffffffffffffff0382111561455657614555614273565b5b828201905092915050565b7f4f776e61626c653a206e6577206f776e657220697320746865207a65726f206160008201527f6464726573730000000000000000000000000000000000000000000000000000602082015250565b60006145bd6026836135d7565b91506145c882614561565b604082019050919050565b600060208201905081810360008301526145ec816145b0565b9050919050565b7f4552433732313a206f70657261746f7220717565727920666f72206e6f6e657860008201527f697374656e7420746f6b656e0000000000000000000000000000000000000000602082015250565b600061464f602c836135d7565b915061465a826145f3565b604082019050919050565b6000602082019050818103600083015261467e81614642565b9050919050565b7f4552433732313a207472616e73666572206f6620746f6b656e2074686174206960008201527f73206e6f74206f776e0000000000000000000000000000000000000000000000602082015250565b60006146e16029836135d7565b91506146ec82614685565b604082019050919050565b60006020820190508181036000830152614710816146d4565b9050919050565b7f4552433732313a207472616e7366657220746f20746865207a65726f2061646460008201527f7265737300000000000000000000000000000000000000000000000000000000602082015250565b60006147736024836135d7565b915061477e82614717565b604082019050919050565b600060208201905081810360008301526147a281614766565b9050919050565b60006147b482613687565b91506147bf83613687565b9250828210156147d2576147d1614273565b5b828203905092915050565b7f4552433732313a206d696e7420746f20746865207a65726f2061646472657373600082015250565b60006148136020836135d7565b915061481e826147dd565b602082019050919050565b6000602082019050818103600083015261484281614806565b9050919050565b7f4552433732313a20746f6b656e20616c7265616479206d696e74656400000000600082015250565b600061487f601c836135d7565b915061488a82614849565b602082019050919050565b600060208201905081810360008301526148ae81614872565b9050919050565b7f45524337323155524953746f726167653a2055524920736574206f66206e6f6e60008201527f6578697374656e7420746f6b656e000000000000000000000000000000000000602082015250565b6000614911602e836135d7565b915061491c826148b5565b604082019050919050565b6000602082019050818103600083015261494081614904565b9050919050565b7f4552433732313a207472616e7366657220746f206e6f6e20455243373231526560008201527f63656976657220696d706c656d656e7465720000000000000000000000000000602082015250565b60006149a36032836135d7565b91506149ae82614947565b604082019050919050565b600060208201905081810360008301526149d281614996565b9050919050565b7f4552433732314d657461646174613a2055524920717565727920666f72206e6f60008201527f6e6578697374656e7420746f6b656e0000000000000000000000000000000000602082015250565b6000614a35602f836135d7565b9150614a40826149d9565b604082019050919050565b60006020820190508181036000830152614a6481614a28565b9050919050565b600081519050919050565b600082825260208201905092915050565b6000614a9282614a6b565b614a9c8185614a76565b9350614aac8185602086016135e8565b614ab58161361b565b840191505092915050565b6000608082019050614ad5600083018761371c565b614ae2602083018661371c565b614aef6040830185613832565b8181036060830152614b018184614a87565b905095945050505050565b600081519050614b1b8161353d565b92915050565b600060208284031215614b3757614b36613507565b5b6000614b4584828501614b0c565b91505092915050565b7f4e487b7100000000000000000000000000000000000000000000000000000000600052601260045260246000fd5b6000614b8882613687565b9150614b9383613687565b925082614ba357614ba2614b4e565b5b828204905092915050565b6000614bb982613687565b9150614bc483613687565b925082614bd457614bd3614b4e565b5b828206905092915050565b7f4e487b7100000000000000000000000000000000000000000000000000000000600052603260045260246000fdfea2646970667358221220c60a59897447350b42b940ca86c1ce88b60a27d2d57897c03eaa3345762fa65d64736f6c63430008090033",
  "immutableReferences": {},
  "source": "// SPDX-License-Identifier: MIT\npragma solidity >=0.5.16 <0.9.0;\npragma abicoder v2;\n\nimport \"@openzeppelin/contracts/token/ERC721/ERC721.sol\";\nimport \"@openzeppelin/contracts/access/Ownable.sol\";\nimport \"@openzeppelin/contracts/token/ERC721/extensions/ERC721URIStorage.sol\";\n// import \"@openzeppelin/contracts/utils/Counters.sol\";\nimport \"@openzeppelin/contracts/utils/math/SafeMath.sol\";\n\ncontract NFT is ERC721URIStorage, Ownable {\n    // using Counters for Counters.Counter;\n    // Counters.Counter private _tokenCounter;\n\n    // Contract's collection name\n    string public collectionName;\n    // Contract's token symbol\n    string public collectionNameSymbol;\n    // Total number of NFT's minted\n    uint256 public tokenCounter;\n    struct Item {\n        uint256 tokenId;\n        string title;\n        string artist;\n        string tokenURI;\n        address payable gallery; //minted by\n        address payable currentOwner;\n        address payable previousOwner;\n        uint256 price;\n        uint256 numberOfTransfers;\n        bool forSale;\n    }\n\n    // Puts all pieces in a collection\n    // Item[] public collection;\n    mapping(uint256 => Item) public collection;\n\n    // Checking if token name exists\n    mapping(string => bool) public tokenNameExists;\n    // Check if tokenURI exists\n    mapping(string => bool) public tokenURIExists;\n\n    // Creates role for minting only\n    mapping(address => bool) public galleryOnlyMinter;\n\n    // // Mapping for tokenURIs\n    // mapping(uint256 => string) _tokenURIs;\n\n    // Initialize contract while deployment with contract's collection name and token\n    constructor() ERC721(\"NFT Gallery\", \"NFT\") {\n        collectionName = name();\n        collectionNameSymbol = symbol();\n        // _owner = msg.sender;\n        // _setBaseURI(\"ipfs://\");\n        // tokenCounter = 0;\n        // _mint(msg.sender, 1);\n    }\n\n    // Minting permissions\n    function getMinterRole(address _account) public view returns (bool) {\n        return galleryOnlyMinter[_account];\n    }\n\n    function addMinter(address _minter) public payable {\n        require(galleryOnlyMinter[_minter] == false);\n        galleryOnlyMinter[_minter] = true;\n    }\n\n    event Mint(address owner, uint256 price, uint256 id, string uri);\n\n    //Mint all - how to get preloaded IPFS files upon connection -- only one right now\n    function mint(\n        string memory _name,\n        string memory _title,\n        string memory _artist,\n        string memory _tokenURI,\n        address payable _gallery,\n        address payable _currentOwner,\n        address payable _previousOwner,\n        uint256 _price\n    ) public {\n        // Only the gallery can mint\n        require(galleryOnlyMinter[_gallery], \"Only the gallery can mint!\");\n        // Increment Counter\n        tokenCounter++;\n        // Check if token exists with above token id (incremented counter)\n        require(!_exists(tokenCounter));\n        // Check if token URI exists\n        require(!tokenURIExists[_tokenURI]);\n        // Check if token name exists\n        require(!tokenNameExists[_tokenURI]);\n        // Make passed token URI as exists\n        tokenURIExists[_tokenURI] = true;\n        // Make token name passed as exists\n        tokenNameExists[_name] = true;\n\n        // Minting\n        _mint(_gallery, tokenCounter);\n        // Set tokenURI (bind token id with the passed in token URI)\n        _setTokenURI(tokenCounter, _tokenURI);\n\n        // Create a new NFT item struct and pass in new values\n        Item memory newItem = Item(\n            tokenCounter,\n            _title,\n            _artist,\n            _tokenURI,\n            _gallery,\n            _currentOwner,\n            _previousOwner,\n            _price,\n            0,\n            true\n        );\n\n        collection[tokenCounter] = newItem;\n\n        // Emit mint event\n        emit Mint(_gallery, _price, tokenCounter, _tokenURI);\n    }\n\n    // Get owner of the token\n    function getTokenOwner(uint256 _tokenId) public view returns (address) {\n        address _tokenOwner = ownerOf(_tokenId);\n        return _tokenOwner;\n    }\n\n    // Get metadata of token\n    function getTokenMetaData(uint256 _tokenId)\n        public\n        view\n        returns (string memory)\n    {\n        string memory tokenMetaData = tokenURI(_tokenId);\n        return tokenMetaData;\n    }\n\n    // Get total number of tokens minted\n    function getNumberOfTokensMinted() public view returns (uint256) {\n        uint256 totalNumberOfTokensMinted = tokenCounter;\n        return totalNumberOfTokensMinted;\n    }\n\n    // Get total number of tokens owned by an address\n    function getTotalNumberOfTokensOwnedByAnAddress(address _owner)\n        public\n        view\n        returns (uint256)\n    {\n        uint256 totalNumberOfTokensOwned = balanceOf(_owner);\n        return totalNumberOfTokensOwned;\n    }\n\n    // Check if the token already exists\n    function getTokenExists(uint256 _tokenId) public view returns (bool) {\n        bool tokenExists = _exists(_tokenId);\n        return tokenExists;\n    }\n\n    // Buying a token by passing in the token ID\n    function buy(uint256 _tokenId) public payable {\n        // Check if the function caller is not a zero account address\n        require(msg.sender != address(0));\n        // Check if the id exists\n        require(_exists(_tokenId));\n        // Get the token's owner\n        address tokenOwner = ownerOf(_tokenId);\n        // Function caller should not be the owner\n        require(tokenOwner != msg.sender);\n        // Get the token from collection mapping and create memory of it as defined from struct => newItem\n        Item memory newItem = collection[_tokenId];\n        // Price sent in to buy should >= token's price\n        require(msg.value >= newItem.price);\n        // Token should be for sale\n        require(newItem.forSale = true);\n        // Transfer token from owner to buyer\n        _transfer(tokenOwner, msg.sender, _tokenId);\n        // Get owner of the token\n        address payable sendTo = newItem.currentOwner;\n        // Send token's value to the owner\n        sendTo.transfer(msg.value);\n        // Update the token's previousOwner\n        newItem.previousOwner = newItem.currentOwner;\n        newItem.currentOwner = payable(msg.sender);\n        newItem.numberOfTransfers += 1;\n        collection[_tokenId] = newItem;\n    }\n\n    // Toggle forSale\n    function toggleForSale(uint256 _tokenId) public {\n        // Require token exists\n        require(_exists(_tokenId));\n        // Get token's owner\n        address tokenOwner = ownerOf(_tokenId);\n        // Check token's owner should be caller\n        require(tokenOwner == msg.sender);\n        // Get the token from collection mapping and create memory of it as defined from struct => newItem\n        Item memory newItem = collection[_tokenId];\n        // Toggle forSale\n        if(newItem.forSale = true) {\n            newItem.forSale = false;\n        } else {\n            newItem.forSale = true;\n        }\n        collection[_tokenId] = newItem;\n    }\n\n\n\n    //Getting the collection data\n    // function checkNft(uint _index) public view returns (uint256 _tokenId, string memory _artist, string memory _title, bool _forSale, string memory _tokenURI, address _currentOwner) {\n    //     Item storage item = collection[_index];\n    //     return (item.tokenId, item.artist, item.title, item.forSale, item.tokenURI, item.currentOwner);\n    // }\n\n    // FOR CHECKING TOTAL SUPPLY\n    // function totalSupply() public view returns (uint256) {\n    //     return tokenCounter.current();\n    // }\n\n    // function _setTokenURI(uint256 tokenId, string memory _tokenURI)\n    //     internal\n    // {\n    //     _tokenURIs[tokenId] = _tokenURI;\n    // }\n\n    // function tokenURI(uint256 tokenId)\n    //     public\n    //     view\n    //     virtual\n    //     override\n    //     returns (string memory)\n    // {\n    //     require(_exists(tokenId));\n    //     string memory _tokenURI = _tokenURIs[tokenId];\n    //     return _tokenURI;\n    // }\n\n    // event Purchase(address _seller, address _buyer, uint256 _price);\n\n    // Reference: https://stackoverflow.com/questions/67317392/how-to-transfer-a-nft-from-one-account-to-another-using-erc721\n    //How to simulate the sale:\n\n    // The contract deployer (msg.sender) gets token ID 1.\n    // Execute allowBuy(1, 2) that will allow anyone to buy token ID 1 for 2 wei.\n    // From a second address, execute buy(1) sending along 2 wei, to buy the token ID 1.\n    // Call (the parent ERC721) function ownerOf(1) to validate that the owner is now the second address.\n    // function allow(uint256 _tokenId, address payable buyer) external {\n    //     require(msg.sender == ownerOf(_tokenId), \"Not the owner of this token!\");\n    //     approve(buyer, _tokenId);\n    //     collection[_tokenId].forSale == true;\n    // }\n\n    // function disallow(uint256 _tokenId) external view {\n    //     require(msg.sender == ownerOf(_tokenId), \"Not the owner of this token!\");\n    //     collection[_tokenId].forSale == false;\n    // }\n\n    // function buy(uint256 _tokenId) external payable {\n    //     require(msg.sender != address(0));\n    //     require(collection[_tokenId].forSale == true, \"This token is not for sale!\");\n    //     require(msg.value >= collection[_tokenId].price, \"Incorrect value!\");\n    //     address seller = collection[_tokenId].currentOwner;\n    //     payable(seller).transfer(msg.value); // send to the seller\n    //     collection[_tokenId].forSale == false;\n    //     collection[_tokenId].currentOwner == msg.sender;\n    //     emit Purchase(seller, msg.sender, msg.value);\n    // }\n}\n",
  "sourcePath": "/Users/qiandong/blockchain-dev/blockchain-developer-bootcamp-final-project/contracts/NFT.sol",
  "compiler": {
    "name": "solc",
    "version": "0.8.9+commit.e5eed63a.Emscripten.clang"
  },
  "schemaVersion": "3.4.3",
  "updatedAt": "2022-01-04T19:41:18.345Z",
  "devdoc": {
    "kind": "dev",
    "methods": {
      "approve(address,uint256)": {
        "details": "See {IERC721-approve}."
      },
      "balanceOf(address)": {
        "details": "See {IERC721-balanceOf}."
      },
      "getApproved(uint256)": {
        "details": "See {IERC721-getApproved}."
      },
      "isApprovedForAll(address,address)": {
        "details": "See {IERC721-isApprovedForAll}."
      },
      "name()": {
        "details": "See {IERC721Metadata-name}."
      },
      "owner()": {
        "details": "Returns the address of the current owner."
      },
      "ownerOf(uint256)": {
        "details": "See {IERC721-ownerOf}."
      },
      "renounceOwnership()": {
        "details": "Leaves the contract without owner. It will not be possible to call `onlyOwner` functions anymore. Can only be called by the current owner. NOTE: Renouncing ownership will leave the contract without an owner, thereby removing any functionality that is only available to the owner."
      },
      "safeTransferFrom(address,address,uint256)": {
        "details": "See {IERC721-safeTransferFrom}."
      },
      "safeTransferFrom(address,address,uint256,bytes)": {
        "details": "See {IERC721-safeTransferFrom}."
      },
      "setApprovalForAll(address,bool)": {
        "details": "See {IERC721-setApprovalForAll}."
      },
      "supportsInterface(bytes4)": {
        "details": "See {IERC165-supportsInterface}."
      },
      "symbol()": {
        "details": "See {IERC721Metadata-symbol}."
      },
      "tokenURI(uint256)": {
        "details": "See {IERC721Metadata-tokenURI}."
      },
      "transferFrom(address,address,uint256)": {
        "details": "See {IERC721-transferFrom}."
      },
      "transferOwnership(address)": {
        "details": "Transfers ownership of the contract to a new account (`newOwner`). Can only be called by the current owner."
      }
    },
    "version": 1
  },
  "userdoc": {
    "kind": "user",
    "methods": {},
    "version": 1
  }
}