{
  "contractName": "NFT",
  "abi": [
    {
      "inputs": [],
      "stateMutability": "nonpayable",
      "type": "constructor"
    },
    {
      "anonymous": false,
      "inputs": [
        {
          "indexed": true,
          "internalType": "address",
          "name": "owner",
          "type": "address"
        },
        {
          "indexed": true,
          "internalType": "address",
          "name": "approved",
          "type": "address"
        },
        {
          "indexed": true,
          "internalType": "uint256",
          "name": "tokenId",
          "type": "uint256"
        }
      ],
      "name": "Approval",
      "type": "event"
    },
    {
      "anonymous": false,
      "inputs": [
        {
          "indexed": true,
          "internalType": "address",
          "name": "owner",
          "type": "address"
        },
        {
          "indexed": true,
          "internalType": "address",
          "name": "operator",
          "type": "address"
        },
        {
          "indexed": false,
          "internalType": "bool",
          "name": "approved",
          "type": "bool"
        }
      ],
      "name": "ApprovalForAll",
      "type": "event"
    },
    {
      "anonymous": false,
      "inputs": [
        {
          "indexed": false,
          "internalType": "address",
          "name": "owner",
          "type": "address"
        },
        {
          "indexed": false,
          "internalType": "uint256",
          "name": "price",
          "type": "uint256"
        },
        {
          "indexed": false,
          "internalType": "uint256",
          "name": "id",
          "type": "uint256"
        },
        {
          "indexed": false,
          "internalType": "string",
          "name": "uri",
          "type": "string"
        }
      ],
      "name": "Mint",
      "type": "event"
    },
    {
      "anonymous": false,
      "inputs": [
        {
          "indexed": true,
          "internalType": "address",
          "name": "previousOwner",
          "type": "address"
        },
        {
          "indexed": true,
          "internalType": "address",
          "name": "newOwner",
          "type": "address"
        }
      ],
      "name": "OwnershipTransferred",
      "type": "event"
    },
    {
      "anonymous": false,
      "inputs": [
        {
          "indexed": false,
          "internalType": "address",
          "name": "_seller",
          "type": "address"
        },
        {
          "indexed": false,
          "internalType": "address",
          "name": "_buyer",
          "type": "address"
        },
        {
          "indexed": false,
          "internalType": "uint256",
          "name": "_price",
          "type": "uint256"
        }
      ],
      "name": "Purchase",
      "type": "event"
    },
    {
      "anonymous": false,
      "inputs": [
        {
          "indexed": true,
          "internalType": "address",
          "name": "from",
          "type": "address"
        },
        {
          "indexed": true,
          "internalType": "address",
          "name": "to",
          "type": "address"
        },
        {
          "indexed": true,
          "internalType": "uint256",
          "name": "tokenId",
          "type": "uint256"
        }
      ],
      "name": "Transfer",
      "type": "event"
    },
    {
      "inputs": [
        {
          "internalType": "address",
          "name": "to",
          "type": "address"
        },
        {
          "internalType": "uint256",
          "name": "tokenId",
          "type": "uint256"
        }
      ],
      "name": "approve",
      "outputs": [],
      "stateMutability": "nonpayable",
      "type": "function"
    },
    {
      "inputs": [
        {
          "internalType": "address",
          "name": "owner",
          "type": "address"
        }
      ],
      "name": "balanceOf",
      "outputs": [
        {
          "internalType": "uint256",
          "name": "",
          "type": "uint256"
        }
      ],
      "stateMutability": "view",
      "type": "function",
      "constant": true
    },
    {
      "inputs": [
        {
          "internalType": "uint256",
          "name": "",
          "type": "uint256"
        }
      ],
      "name": "collection",
      "outputs": [
        {
          "internalType": "uint256",
          "name": "tokenId",
          "type": "uint256"
        },
        {
          "internalType": "string",
          "name": "name",
          "type": "string"
        },
        {
          "internalType": "string",
          "name": "title",
          "type": "string"
        },
        {
          "internalType": "string",
          "name": "artist",
          "type": "string"
        },
        {
          "internalType": "string",
          "name": "tokenURI",
          "type": "string"
        },
        {
          "internalType": "address payable",
          "name": "gallery",
          "type": "address"
        },
        {
          "internalType": "address payable",
          "name": "currentOwner",
          "type": "address"
        },
        {
          "internalType": "uint256",
          "name": "price",
          "type": "uint256"
        },
        {
          "internalType": "uint256",
          "name": "numberOfTransfers",
          "type": "uint256"
        },
        {
          "internalType": "bool",
          "name": "forSale",
          "type": "bool"
        }
      ],
      "stateMutability": "view",
      "type": "function",
      "constant": true
    },
    {
      "inputs": [],
      "name": "collectionName",
      "outputs": [
        {
          "internalType": "string",
          "name": "",
          "type": "string"
        }
      ],
      "stateMutability": "view",
      "type": "function",
      "constant": true
    },
    {
      "inputs": [],
      "name": "collectionNameSymbol",
      "outputs": [
        {
          "internalType": "string",
          "name": "",
          "type": "string"
        }
      ],
      "stateMutability": "view",
      "type": "function",
      "constant": true
    },
    {
      "inputs": [
        {
          "internalType": "address",
          "name": "",
          "type": "address"
        }
      ],
      "name": "galleryOnlyMinter",
      "outputs": [
        {
          "internalType": "bool",
          "name": "",
          "type": "bool"
        }
      ],
      "stateMutability": "view",
      "type": "function",
      "constant": true
    },
    {
      "inputs": [
        {
          "internalType": "uint256",
          "name": "tokenId",
          "type": "uint256"
        }
      ],
      "name": "getApproved",
      "outputs": [
        {
          "internalType": "address",
          "name": "",
          "type": "address"
        }
      ],
      "stateMutability": "view",
      "type": "function",
      "constant": true
    },
    {
      "inputs": [
        {
          "internalType": "address",
          "name": "owner",
          "type": "address"
        },
        {
          "internalType": "address",
          "name": "operator",
          "type": "address"
        }
      ],
      "name": "isApprovedForAll",
      "outputs": [
        {
          "internalType": "bool",
          "name": "",
          "type": "bool"
        }
      ],
      "stateMutability": "view",
      "type": "function",
      "constant": true
    },
    {
      "inputs": [],
      "name": "name",
      "outputs": [
        {
          "internalType": "string",
          "name": "",
          "type": "string"
        }
      ],
      "stateMutability": "view",
      "type": "function",
      "constant": true
    },
    {
      "inputs": [],
      "name": "owner",
      "outputs": [
        {
          "internalType": "address",
          "name": "",
          "type": "address"
        }
      ],
      "stateMutability": "view",
      "type": "function",
      "constant": true
    },
    {
      "inputs": [
        {
          "internalType": "uint256",
          "name": "tokenId",
          "type": "uint256"
        }
      ],
      "name": "ownerOf",
      "outputs": [
        {
          "internalType": "address",
          "name": "",
          "type": "address"
        }
      ],
      "stateMutability": "view",
      "type": "function",
      "constant": true
    },
    {
      "inputs": [],
      "name": "renounceOwnership",
      "outputs": [],
      "stateMutability": "nonpayable",
      "type": "function"
    },
    {
      "inputs": [
        {
          "internalType": "address",
          "name": "from",
          "type": "address"
        },
        {
          "internalType": "address",
          "name": "to",
          "type": "address"
        },
        {
          "internalType": "uint256",
          "name": "tokenId",
          "type": "uint256"
        }
      ],
      "name": "safeTransferFrom",
      "outputs": [],
      "stateMutability": "nonpayable",
      "type": "function"
    },
    {
      "inputs": [
        {
          "internalType": "address",
          "name": "from",
          "type": "address"
        },
        {
          "internalType": "address",
          "name": "to",
          "type": "address"
        },
        {
          "internalType": "uint256",
          "name": "tokenId",
          "type": "uint256"
        },
        {
          "internalType": "bytes",
          "name": "_data",
          "type": "bytes"
        }
      ],
      "name": "safeTransferFrom",
      "outputs": [],
      "stateMutability": "nonpayable",
      "type": "function"
    },
    {
      "inputs": [
        {
          "internalType": "address",
          "name": "operator",
          "type": "address"
        },
        {
          "internalType": "bool",
          "name": "approved",
          "type": "bool"
        }
      ],
      "name": "setApprovalForAll",
      "outputs": [],
      "stateMutability": "nonpayable",
      "type": "function"
    },
    {
      "inputs": [
        {
          "internalType": "bytes4",
          "name": "interfaceId",
          "type": "bytes4"
        }
      ],
      "name": "supportsInterface",
      "outputs": [
        {
          "internalType": "bool",
          "name": "",
          "type": "bool"
        }
      ],
      "stateMutability": "view",
      "type": "function",
      "constant": true
    },
    {
      "inputs": [],
      "name": "symbol",
      "outputs": [
        {
          "internalType": "string",
          "name": "",
          "type": "string"
        }
      ],
      "stateMutability": "view",
      "type": "function",
      "constant": true
    },
    {
      "inputs": [],
      "name": "tokenCounter",
      "outputs": [
        {
          "internalType": "uint256",
          "name": "",
          "type": "uint256"
        }
      ],
      "stateMutability": "view",
      "type": "function",
      "constant": true
    },
    {
      "inputs": [
        {
          "internalType": "string",
          "name": "",
          "type": "string"
        }
      ],
      "name": "tokenNameExists",
      "outputs": [
        {
          "internalType": "bool",
          "name": "",
          "type": "bool"
        }
      ],
      "stateMutability": "view",
      "type": "function",
      "constant": true
    },
    {
      "inputs": [
        {
          "internalType": "uint256",
          "name": "tokenId",
          "type": "uint256"
        }
      ],
      "name": "tokenURI",
      "outputs": [
        {
          "internalType": "string",
          "name": "",
          "type": "string"
        }
      ],
      "stateMutability": "view",
      "type": "function",
      "constant": true
    },
    {
      "inputs": [
        {
          "internalType": "string",
          "name": "",
          "type": "string"
        }
      ],
      "name": "tokenURIExists",
      "outputs": [
        {
          "internalType": "bool",
          "name": "",
          "type": "bool"
        }
      ],
      "stateMutability": "view",
      "type": "function",
      "constant": true
    },
    {
      "inputs": [
        {
          "internalType": "address",
          "name": "from",
          "type": "address"
        },
        {
          "internalType": "address",
          "name": "to",
          "type": "address"
        },
        {
          "internalType": "uint256",
          "name": "tokenId",
          "type": "uint256"
        }
      ],
      "name": "transferFrom",
      "outputs": [],
      "stateMutability": "nonpayable",
      "type": "function"
    },
    {
      "inputs": [
        {
          "internalType": "address",
          "name": "newOwner",
          "type": "address"
        }
      ],
      "name": "transferOwnership",
      "outputs": [],
      "stateMutability": "nonpayable",
      "type": "function"
    },
    {
      "inputs": [
        {
          "internalType": "address",
          "name": "_account",
          "type": "address"
        }
      ],
      "name": "getMinterRole",
      "outputs": [
        {
          "internalType": "bool",
          "name": "",
          "type": "bool"
        }
      ],
      "stateMutability": "view",
      "type": "function",
      "constant": true
    },
    {
      "inputs": [
        {
          "internalType": "address",
          "name": "_minter",
          "type": "address"
        }
      ],
      "name": "addMinter",
      "outputs": [
        {
          "internalType": "bool",
          "name": "",
          "type": "bool"
        }
      ],
      "stateMutability": "payable",
      "type": "function",
      "payable": true
    },
    {
      "inputs": [
        {
          "internalType": "string",
          "name": "_name",
          "type": "string"
        },
        {
          "internalType": "string",
          "name": "_title",
          "type": "string"
        },
        {
          "internalType": "string",
          "name": "_artist",
          "type": "string"
        },
        {
          "internalType": "string",
          "name": "_tokenURI",
          "type": "string"
        },
        {
          "internalType": "address payable",
          "name": "_gallery",
          "type": "address"
        },
        {
          "internalType": "address payable",
          "name": "_currentOwner",
          "type": "address"
        },
        {
          "internalType": "uint256",
          "name": "_price",
          "type": "uint256"
        }
      ],
      "name": "mint",
      "outputs": [],
      "stateMutability": "nonpayable",
      "type": "function"
    },
    {
      "inputs": [
        {
          "internalType": "uint256",
          "name": "_tokenId",
          "type": "uint256"
        }
      ],
      "name": "getItem",
      "outputs": [
        {
          "internalType": "uint256",
          "name": "tokenId",
          "type": "uint256"
        },
        {
          "internalType": "string",
          "name": "name",
          "type": "string"
        },
        {
          "internalType": "string",
          "name": "title",
          "type": "string"
        },
        {
          "internalType": "string",
          "name": "artist",
          "type": "string"
        },
        {
          "internalType": "string",
          "name": "tokenURI",
          "type": "string"
        },
        {
          "internalType": "address",
          "name": "gallery",
          "type": "address"
        },
        {
          "internalType": "address",
          "name": "currentOwner",
          "type": "address"
        },
        {
          "internalType": "uint256",
          "name": "price",
          "type": "uint256"
        },
        {
          "internalType": "uint256",
          "name": "numberOfTransfers",
          "type": "uint256"
        },
        {
          "internalType": "bool",
          "name": "forSale",
          "type": "bool"
        }
      ],
      "stateMutability": "view",
      "type": "function",
      "constant": true
    },
    {
      "inputs": [
        {
          "internalType": "uint256",
          "name": "_tokenId",
          "type": "uint256"
        }
      ],
      "name": "getTokenOwner",
      "outputs": [
        {
          "internalType": "address",
          "name": "",
          "type": "address"
        }
      ],
      "stateMutability": "view",
      "type": "function",
      "constant": true
    },
    {
      "inputs": [
        {
          "internalType": "uint256",
          "name": "_tokenId",
          "type": "uint256"
        }
      ],
      "name": "getTokenMetaData",
      "outputs": [
        {
          "internalType": "string",
          "name": "",
          "type": "string"
        }
      ],
      "stateMutability": "view",
      "type": "function",
      "constant": true
    },
    {
      "inputs": [
        {
          "internalType": "uint256",
          "name": "_tokenId",
          "type": "uint256"
        }
      ],
      "name": "getArtist",
      "outputs": [
        {
          "internalType": "string",
          "name": "",
          "type": "string"
        }
      ],
      "stateMutability": "view",
      "type": "function",
      "constant": true
    },
    {
      "inputs": [
        {
          "internalType": "uint256",
          "name": "_tokenId",
          "type": "uint256"
        }
      ],
      "name": "getTitle",
      "outputs": [
        {
          "internalType": "string",
          "name": "",
          "type": "string"
        }
      ],
      "stateMutability": "view",
      "type": "function",
      "constant": true
    },
    {
      "inputs": [
        {
          "internalType": "uint256",
          "name": "_tokenId",
          "type": "uint256"
        }
      ],
      "name": "getNumberTransfers",
      "outputs": [
        {
          "internalType": "uint256",
          "name": "",
          "type": "uint256"
        }
      ],
      "stateMutability": "view",
      "type": "function",
      "constant": true
    },
    {
      "inputs": [],
      "name": "getNumberOfTokensMinted",
      "outputs": [
        {
          "internalType": "uint256",
          "name": "",
          "type": "uint256"
        }
      ],
      "stateMutability": "view",
      "type": "function",
      "constant": true
    },
    {
      "inputs": [
        {
          "internalType": "address",
          "name": "_owner",
          "type": "address"
        }
      ],
      "name": "getTotalNumberOfTokensOwnedByAnAddress",
      "outputs": [
        {
          "internalType": "uint256",
          "name": "",
          "type": "uint256"
        }
      ],
      "stateMutability": "view",
      "type": "function",
      "constant": true
    },
    {
      "inputs": [
        {
          "internalType": "uint256",
          "name": "_tokenId",
          "type": "uint256"
        }
      ],
      "name": "getTokenExists",
      "outputs": [
        {
          "internalType": "bool",
          "name": "",
          "type": "bool"
        }
      ],
      "stateMutability": "view",
      "type": "function",
      "constant": true
    },
    {
      "inputs": [
        {
          "internalType": "uint256",
          "name": "_tokenId",
          "type": "uint256"
        }
      ],
      "name": "buy",
      "outputs": [],
      "stateMutability": "payable",
      "type": "function",
      "payable": true
    },
    {
      "inputs": [
        {
          "internalType": "uint256",
          "name": "_tokenId",
          "type": "uint256"
        }
      ],
      "name": "toggleForSale",
      "outputs": [],
      "stateMutability": "nonpayable",
      "type": "function"
    }
  ],
  "bytecode": "0x60806040523480156200001157600080fd5b506040518060400160405280600b81526020017f4e46542047616c6c6572790000000000000000000000000000000000000000008152506040518060400160405280600381526020017f4e465400000000000000000000000000000000000000000000000000000000008152508160009080519060200190620000969291906200032a565b508060019080519060200190620000af9291906200032a565b505050620000d2620000c66200012860201b60201c565b6200013060201b60201c565b620000e2620001f660201b60201c565b60089080519060200190620000f99291906200032a565b506200010a6200029060201b60201c565b60099080519060200190620001219291906200032a565b506200043f565b600033905090565b6000600760009054906101000a900473ffffffffffffffffffffffffffffffffffffffff16905081600760006101000a81548173ffffffffffffffffffffffffffffffffffffffff021916908373ffffffffffffffffffffffffffffffffffffffff1602179055508173ffffffffffffffffffffffffffffffffffffffff168173ffffffffffffffffffffffffffffffffffffffff167f8be0079c531659141344cd1fd0a4f28419497f9722a3daafe3b4186f6b6457e060405160405180910390a35050565b606060008054620002079062000409565b80601f0160208091040260200160405190810160405280929190818152602001828054620002359062000409565b8015620002865780601f106200025a5761010080835404028352916020019162000286565b820191906000526020600020905b8154815290600101906020018083116200026857829003601f168201915b5050505050905090565b606060018054620002a19062000409565b80601f0160208091040260200160405190810160405280929190818152602001828054620002cf9062000409565b8015620003205780601f10620002f45761010080835404028352916020019162000320565b820191906000526020600020905b8154815290600101906020018083116200030257829003601f168201915b5050505050905090565b828054620003389062000409565b90600052602060002090601f0160209004810192826200035c5760008555620003a8565b82601f106200037757805160ff1916838001178555620003a8565b82800160010185558215620003a8579182015b82811115620003a75782518255916020019190600101906200038a565b5b509050620003b79190620003bb565b5090565b5b80821115620003d6576000816000905550600101620003bc565b5090565b7f4e487b7100000000000000000000000000000000000000000000000000000000600052602260045260246000fd5b600060028204905060018216806200042257607f821691505b60208210811415620004395762000438620003da565b5b50919050565b615622806200044f6000396000f3fe60806040526004361061021a5760003560e01c806376a6a8c911610123578063a5cd761f116100ab578063d96a094a1161006f578063d96a094a1461089d578063e5326ab1146108b9578063e985e9c5146108e4578063f077237714610921578063f2fde38b146109675761021a565b8063a5cd761f146107a4578063b88d4fde146107e1578063c87b56dd1461080a578063cc151f3a14610847578063d082e381146108725761021a565b806395d89b41116100f257806395d89b41146106ba578063983b2d56146106e5578063a22cb46514610715578063a32018b91461073e578063a46b1fac146107675761021a565b806376a6a8c9146105d8578063811dd0e2146106155780638da5cb5b14610652578063929a79b11461067d5761021a565b806342842e0e116101a65780636352211e116101755780636352211e146104df57806367c623cf1461051c5780636f9507f91461055957806370a0823114610584578063715018a6146105c15761021a565b806342842e0e146103ff578063439028501461042857806343d32ae71461046557806358dda898146104a25761021a565b8063095ea7b3116101ed578063095ea7b314610301578063142687f31461032a57806323b872dd146103675780633129e7731461039057806341e0f578146103d65761021a565b806301ffc9a71461021f57806306fdde031461025c578063081812fc1461028757806308c0e182146102c4575b600080fd5b34801561022b57600080fd5b5061024660048036038101906102419190613d21565b610990565b6040516102539190613d69565b60405180910390f35b34801561026857600080fd5b50610271610a72565b60405161027e9190613e1d565b60405180910390f35b34801561029357600080fd5b506102ae60048036038101906102a99190613e75565b610b04565b6040516102bb9190613ee3565b60405180910390f35b3480156102d057600080fd5b506102eb60048036038101906102e69190613e75565b610b89565b6040516102f89190613f0d565b60405180910390f35b34801561030d57600080fd5b5061032860048036038101906103239190613f54565b610bae565b005b34801561033657600080fd5b50610351600480360381019061034c9190613e75565b610cc6565b60405161035e9190613d69565b60405180910390f35b34801561037357600080fd5b5061038e60048036038101906103899190613f94565b610cdd565b005b34801561039c57600080fd5b506103b760048036038101906103b29190613e75565b610d3d565b6040516103cd9a99989796959493929190613fe7565b60405180910390f35b3480156103e257600080fd5b506103fd60048036038101906103f89190614212565b6110f2565b005b34801561040b57600080fd5b5061042660048036038101906104219190613f94565b611566565b005b34801561043457600080fd5b5061044f600480360381019061044a9190614324565b611586565b60405161045c9190613f0d565b60405180910390f35b34801561047157600080fd5b5061048c60048036038101906104879190614351565b61159d565b6040516104999190613d69565b60405180910390f35b3480156104ae57600080fd5b506104c960048036038101906104c49190614324565b6115d3565b6040516104d69190613d69565b60405180910390f35b3480156104eb57600080fd5b5061050660048036038101906105019190613e75565b611629565b6040516105139190613ee3565b60405180910390f35b34801561052857600080fd5b50610543600480360381019061053e9190613e75565b6116db565b6040516105509190613e1d565b60405180910390f35b34801561056557600080fd5b5061056e6116f3565b60405161057b9190613e1d565b60405180910390f35b34801561059057600080fd5b506105ab60048036038101906105a69190614324565b611781565b6040516105b89190613f0d565b60405180910390f35b3480156105cd57600080fd5b506105d6611839565b005b3480156105e457600080fd5b506105ff60048036038101906105fa9190614324565b6118c1565b60405161060c9190613d69565b60405180910390f35b34801561062157600080fd5b5061063c60048036038101906106379190613e75565b6118e1565b6040516106499190613e1d565b60405180910390f35b34801561065e57600080fd5b5061066761198f565b6040516106749190613ee3565b60405180910390f35b34801561068957600080fd5b506106a4600480360381019061069f9190613e75565b6119b9565b6040516106b19190613e1d565b60405180910390f35b3480156106c657600080fd5b506106cf611a67565b6040516106dc9190613e1d565b60405180910390f35b6106ff60048036038101906106fa9190614324565b611af9565b60405161070c9190613d69565b60405180910390f35b34801561072157600080fd5b5061073c600480360381019061073791906143c6565b611c03565b005b34801561074a57600080fd5b5061076560048036038101906107609190613e75565b611d84565b005b34801561077357600080fd5b5061078e60048036038101906107899190614351565b6122c9565b60405161079b9190613d69565b60405180910390f35b3480156107b057600080fd5b506107cb60048036038101906107c69190613e75565b6122ff565b6040516107d89190613ee3565b60405180910390f35b3480156107ed57600080fd5b50610808600480360381019061080391906144a7565b612316565b005b34801561081657600080fd5b50610831600480360381019061082c9190613e75565b612378565b60405161083e9190613e1d565b60405180910390f35b34801561085357600080fd5b5061085c6124ca565b6040516108699190613f0d565b60405180910390f35b34801561087e57600080fd5b506108876124d9565b6040516108949190613f0d565b60405180910390f35b6108b760048036038101906108b29190613e75565b6124df565b005b3480156108c557600080fd5b506108ce612b34565b6040516108db9190613e1d565b60405180910390f35b3480156108f057600080fd5b5061090b6004803603810190610906919061452a565b612bc2565b6040516109189190613d69565b60405180910390f35b34801561092d57600080fd5b5061094860048036038101906109439190613e75565b612c56565b60405161095e9a99989796959493929190614579565b60405180910390f35b34801561097357600080fd5b5061098e60048036038101906109899190614324565b612f17565b005b60007f80ac58cd000000000000000000000000000000000000000000000000000000007bffffffffffffffffffffffffffffffffffffffffffffffffffffffff1916827bffffffffffffffffffffffffffffffffffffffffffffffffffffffff19161480610a5b57507f5b5e139f000000000000000000000000000000000000000000000000000000007bffffffffffffffffffffffffffffffffffffffffffffffffffffffff1916827bffffffffffffffffffffffffffffffffffffffffffffffffffffffff1916145b80610a6b5750610a6a8261300f565b5b9050919050565b606060008054610a8190614660565b80601f0160208091040260200160405190810160405280929190818152602001828054610aad90614660565b8015610afa5780601f10610acf57610100808354040283529160200191610afa565b820191906000526020600020905b815481529060010190602001808311610add57829003601f168201915b5050505050905090565b6000610b0f82613079565b610b4e576040517f08c379a0000000000000000000000000000000000000000000000000000000008152600401610b4590614704565b60405180910390fd5b6004600083815260200190815260200160002060009054906101000a900473ffffffffffffffffffffffffffffffffffffffff169050919050565b600080600b600084815260200190815260200160002060080154905080915050919050565b6000610bb982611629565b90508073ffffffffffffffffffffffffffffffffffffffff168373ffffffffffffffffffffffffffffffffffffffff161415610c2a576040517f08c379a0000000000000000000000000000000000000000000000000000000008152600401610c2190614796565b60405180910390fd5b8073ffffffffffffffffffffffffffffffffffffffff16610c496130e5565b73ffffffffffffffffffffffffffffffffffffffff161480610c785750610c7781610c726130e5565b612bc2565b5b610cb7576040517f08c379a0000000000000000000000000000000000000000000000000000000008152600401610cae90614828565b60405180910390fd5b610cc183836130ed565b505050565b600080610cd283613079565b905080915050919050565b610cee610ce86130e5565b826131a6565b610d2d576040517f08c379a0000000000000000000000000000000000000000000000000000000008152600401610d24906148ba565b60405180910390fd5b610d38838383613284565b505050565b6000606080606080600080600080600080600b60008d81526020019081526020016000206040518061014001604052908160008201548152602001600182018054610d8790614660565b80601f0160208091040260200160405190810160405280929190818152602001828054610db390614660565b8015610e005780601f10610dd557610100808354040283529160200191610e00565b820191906000526020600020905b815481529060010190602001808311610de357829003601f168201915b50505050508152602001600282018054610e1990614660565b80601f0160208091040260200160405190810160405280929190818152602001828054610e4590614660565b8015610e925780601f10610e6757610100808354040283529160200191610e92565b820191906000526020600020905b815481529060010190602001808311610e7557829003601f168201915b50505050508152602001600382018054610eab90614660565b80601f0160208091040260200160405190810160405280929190818152602001828054610ed790614660565b8015610f245780601f10610ef957610100808354040283529160200191610f24565b820191906000526020600020905b815481529060010190602001808311610f0757829003601f168201915b50505050508152602001600482018054610f3d90614660565b80601f0160208091040260200160405190810160405280929190818152602001828054610f6990614660565b8015610fb65780601f10610f8b57610100808354040283529160200191610fb6565b820191906000526020600020905b815481529060010190602001808311610f9957829003601f168201915b505050505081526020016005820160009054906101000a900473ffffffffffffffffffffffffffffffffffffffff1673ffffffffffffffffffffffffffffffffffffffff1673ffffffffffffffffffffffffffffffffffffffff1681526020016006820160009054906101000a900473ffffffffffffffffffffffffffffffffffffffff1673ffffffffffffffffffffffffffffffffffffffff1673ffffffffffffffffffffffffffffffffffffffff16815260200160078201548152602001600882015481526020016009820160009054906101000a900460ff1615151515815250509050806000015181602001518260400151836060015184608001518560a001518660c001518760e001518861010001518961012001519a509a509a509a509a509a509a509a509a509a50509193959799509193959799565b60011515600e60008573ffffffffffffffffffffffffffffffffffffffff1673ffffffffffffffffffffffffffffffffffffffff16815260200190815260200160002060009054906101000a900460ff16151514611185576040517f08c379a000000000000000000000000000000000000000000000000000000000815260040161117c90614926565b60405180910390fd5b600a600081548092919061119890614975565b91905055506111a8600a54613079565b156111e8576040517f08c379a00000000000000000000000000000000000000000000000000000000081526004016111df90614a0a565b60405180910390fd5b600d846040516111f89190614a66565b908152602001604051809103902060009054906101000a900460ff1615611254576040517f08c379a000000000000000000000000000000000000000000000000000000000815260040161124b90614ac9565b60405180910390fd5b600c846040516112649190614a66565b908152602001604051809103902060009054906101000a900460ff16156112c0576040517f08c379a00000000000000000000000000000000000000000000000000000000081526004016112b790614b35565b60405180910390fd5b6001600d856040516112d29190614a66565b908152602001604051809103902060006101000a81548160ff0219169083151502179055506001600c886040516113099190614a66565b908152602001604051809103902060006101000a81548160ff02191690831515021790555061133a83600a546134e0565b611346600a54856136ae565b7fcd0e00beb8e6d5ab96ee16e6a1a735ff07cae8702f2e48feb32fefe40f25692c8382600a548760405161137d9493929190614bb4565b60405180910390a16000604051806101400160405280600a5481526020018981526020018881526020018781526020018681526020018573ffffffffffffffffffffffffffffffffffffffff1681526020018473ffffffffffffffffffffffffffffffffffffffff1681526020018381526020016000815260200160011515815250905080600b6000600a54815260200190815260200160002060008201518160000155602082015181600101908051906020019061143d929190613c12565b50604082015181600201908051906020019061145a929190613c12565b506060820151816003019080519060200190611477929190613c12565b506080820151816004019080519060200190611494929190613c12565b5060a08201518160050160006101000a81548173ffffffffffffffffffffffffffffffffffffffff021916908373ffffffffffffffffffffffffffffffffffffffff16021790555060c08201518160060160006101000a81548173ffffffffffffffffffffffffffffffffffffffff021916908373ffffffffffffffffffffffffffffffffffffffff16021790555060e0820151816007015561010082015181600801556101208201518160090160006101000a81548160ff0219169083151502179055509050505050505050505050565b61158183838360405180602001604052806000815250612316565b505050565b60008061159283611781565b905080915050919050565b600d818051602081018201805184825260208301602085012081835280955050505050506000915054906101000a900460ff1681565b6000600e60008373ffffffffffffffffffffffffffffffffffffffff1673ffffffffffffffffffffffffffffffffffffffff16815260200190815260200160002060009054906101000a900460ff169050919050565b6000806002600084815260200190815260200160002060009054906101000a900473ffffffffffffffffffffffffffffffffffffffff169050600073ffffffffffffffffffffffffffffffffffffffff168173ffffffffffffffffffffffffffffffffffffffff1614156116d2576040517f08c379a00000000000000000000000000000000000000000000000000000000081526004016116c990614c72565b60405180910390fd5b80915050919050565b606060006116e883612378565b905080915050919050565b6009805461170090614660565b80601f016020809104026020016040519081016040528092919081815260200182805461172c90614660565b80156117795780601f1061174e57610100808354040283529160200191611779565b820191906000526020600020905b81548152906001019060200180831161175c57829003601f168201915b505050505081565b60008073ffffffffffffffffffffffffffffffffffffffff168273ffffffffffffffffffffffffffffffffffffffff1614156117f2576040517f08c379a00000000000000000000000000000000000000000000000000000000081526004016117e990614d04565b60405180910390fd5b600360008373ffffffffffffffffffffffffffffffffffffffff1673ffffffffffffffffffffffffffffffffffffffff168152602001908152602001600020549050919050565b6118416130e5565b73ffffffffffffffffffffffffffffffffffffffff1661185f61198f565b73ffffffffffffffffffffffffffffffffffffffff16146118b5576040517f08c379a00000000000000000000000000000000000000000000000000000000081526004016118ac90614d70565b60405180910390fd5b6118bf6000613722565b565b600e6020528060005260406000206000915054906101000a900460ff1681565b60606000600b6000848152602001908152602001600020600301805461190690614660565b80601f016020809104026020016040519081016040528092919081815260200182805461193290614660565b801561197f5780601f106119545761010080835404028352916020019161197f565b820191906000526020600020905b81548152906001019060200180831161196257829003601f168201915b5050505050905080915050919050565b6000600760009054906101000a900473ffffffffffffffffffffffffffffffffffffffff16905090565b60606000600b600084815260200190815260200160002060020180546119de90614660565b80601f0160208091040260200160405190810160405280929190818152602001828054611a0a90614660565b8015611a575780601f10611a2c57610100808354040283529160200191611a57565b820191906000526020600020905b815481529060010190602001808311611a3a57829003601f168201915b5050505050905080915050919050565b606060018054611a7690614660565b80601f0160208091040260200160405190810160405280929190818152602001828054611aa290614660565b8015611aef5780601f10611ac457610100808354040283529160200191611aef565b820191906000526020600020905b815481529060010190602001808311611ad257829003601f168201915b5050505050905090565b6000801515600e60008473ffffffffffffffffffffffffffffffffffffffff1673ffffffffffffffffffffffffffffffffffffffff16815260200190815260200160002060009054906101000a900460ff16151514611b5757600080fd5b6001600e60008473ffffffffffffffffffffffffffffffffffffffff1673ffffffffffffffffffffffffffffffffffffffff16815260200190815260200160002060006101000a81548160ff021916908315150217905550600e60008373ffffffffffffffffffffffffffffffffffffffff1673ffffffffffffffffffffffffffffffffffffffff16815260200190815260200160002060009054906101000a900460ff169050919050565b611c0b6130e5565b73ffffffffffffffffffffffffffffffffffffffff168273ffffffffffffffffffffffffffffffffffffffff161415611c79576040517f08c379a0000000000000000000000000000000000000000000000000000000008152600401611c7090614ddc565b60405180910390fd5b8060056000611c866130e5565b73ffffffffffffffffffffffffffffffffffffffff1673ffffffffffffffffffffffffffffffffffffffff16815260200190815260200160002060008473ffffffffffffffffffffffffffffffffffffffff1673ffffffffffffffffffffffffffffffffffffffff16815260200190815260200160002060006101000a81548160ff0219169083151502179055508173ffffffffffffffffffffffffffffffffffffffff16611d336130e5565b73ffffffffffffffffffffffffffffffffffffffff167f17307eab39ab6107e8899845ad3d59bd9653f200f220920489ca2b5937696c3183604051611d789190613d69565b60405180910390a35050565b611d8d81613079565b611d9657600080fd5b6000611da182611629565b90503373ffffffffffffffffffffffffffffffffffffffff168173ffffffffffffffffffffffffffffffffffffffff1614611ddb57600080fd5b6000600b60008481526020019081526020016000206040518061014001604052908160008201548152602001600182018054611e1690614660565b80601f0160208091040260200160405190810160405280929190818152602001828054611e4290614660565b8015611e8f5780601f10611e6457610100808354040283529160200191611e8f565b820191906000526020600020905b815481529060010190602001808311611e7257829003601f168201915b50505050508152602001600282018054611ea890614660565b80601f0160208091040260200160405190810160405280929190818152602001828054611ed490614660565b8015611f215780601f10611ef657610100808354040283529160200191611f21565b820191906000526020600020905b815481529060010190602001808311611f0457829003601f168201915b50505050508152602001600382018054611f3a90614660565b80601f0160208091040260200160405190810160405280929190818152602001828054611f6690614660565b8015611fb35780601f10611f8857610100808354040283529160200191611fb3565b820191906000526020600020905b815481529060010190602001808311611f9657829003601f168201915b50505050508152602001600482018054611fcc90614660565b80601f0160208091040260200160405190810160405280929190818152602001828054611ff890614660565b80156120455780601f1061201a57610100808354040283529160200191612045565b820191906000526020600020905b81548152906001019060200180831161202857829003601f168201915b505050505081526020016005820160009054906101000a900473ffffffffffffffffffffffffffffffffffffffff1673ffffffffffffffffffffffffffffffffffffffff1673ffffffffffffffffffffffffffffffffffffffff1681526020016006820160009054906101000a900473ffffffffffffffffffffffffffffffffffffffff1673ffffffffffffffffffffffffffffffffffffffff1673ffffffffffffffffffffffffffffffffffffffff16815260200160078201548152602001600882015481526020016009820160009054906101000a900460ff16151515158152505090506001816101200190151590811515815250156121585760008161012001901515908115158152505061216b565b6001816101200190151590811515815250505b80600b60008581526020019081526020016000206000820151816000015560208201518160010190805190602001906121a5929190613c12565b5060408201518160020190805190602001906121c2929190613c12565b5060608201518160030190805190602001906121df929190613c12565b5060808201518160040190805190602001906121fc929190613c12565b5060a08201518160050160006101000a81548173ffffffffffffffffffffffffffffffffffffffff021916908373ffffffffffffffffffffffffffffffffffffffff16021790555060c08201518160060160006101000a81548173ffffffffffffffffffffffffffffffffffffffff021916908373ffffffffffffffffffffffffffffffffffffffff16021790555060e0820151816007015561010082015181600801556101208201518160090160006101000a81548160ff021916908315150217905550905050505050565b600c818051602081018201805184825260208301602085012081835280955050505050506000915054906101000a900460ff1681565b60008061230b83611629565b905080915050919050565b6123276123216130e5565b836131a6565b612366576040517f08c379a000000000000000000000000000000000000000000000000000000000815260040161235d906148ba565b60405180910390fd5b612372848484846137e8565b50505050565b606061238382613079565b6123c2576040517f08c379a00000000000000000000000000000000000000000000000000000000081526004016123b990614e6e565b60405180910390fd5b60006006600084815260200190815260200160002080546123e290614660565b80601f016020809104026020016040519081016040528092919081815260200182805461240e90614660565b801561245b5780601f106124305761010080835404028352916020019161245b565b820191906000526020600020905b81548152906001019060200180831161243e57829003601f168201915b50505050509050600061246c613844565b90506000815114156124825781925050506124c5565b6000825111156124b757808260405160200161249f929190614e8e565b604051602081830303815290604052925050506124c5565b6124c08461385b565b925050505b919050565b600080600a5490508091505090565b600a5481565b600073ffffffffffffffffffffffffffffffffffffffff163373ffffffffffffffffffffffffffffffffffffffff16141561251957600080fd5b61252281613079565b61252b57600080fd5b600061253682611629565b90503373ffffffffffffffffffffffffffffffffffffffff168173ffffffffffffffffffffffffffffffffffffffff16141561257157600080fd5b6000600b600084815260200190815260200160002060405180610140016040529081600082015481526020016001820180546125ac90614660565b80601f01602080910402602001604051908101604052809291908181526020018280546125d890614660565b80156126255780601f106125fa57610100808354040283529160200191612625565b820191906000526020600020905b81548152906001019060200180831161260857829003601f168201915b5050505050815260200160028201805461263e90614660565b80601f016020809104026020016040519081016040528092919081815260200182805461266a90614660565b80156126b75780601f1061268c576101008083540402835291602001916126b7565b820191906000526020600020905b81548152906001019060200180831161269a57829003601f168201915b505050505081526020016003820180546126d090614660565b80601f01602080910402602001604051908101604052809291908181526020018280546126fc90614660565b80156127495780601f1061271e57610100808354040283529160200191612749565b820191906000526020600020905b81548152906001019060200180831161272c57829003601f168201915b5050505050815260200160048201805461276290614660565b80601f016020809104026020016040519081016040528092919081815260200182805461278e90614660565b80156127db5780601f106127b0576101008083540402835291602001916127db565b820191906000526020600020905b8154815290600101906020018083116127be57829003601f168201915b505050505081526020016005820160009054906101000a900473ffffffffffffffffffffffffffffffffffffffff1673ffffffffffffffffffffffffffffffffffffffff1673ffffffffffffffffffffffffffffffffffffffff1681526020016006820160009054906101000a900473ffffffffffffffffffffffffffffffffffffffff1673ffffffffffffffffffffffffffffffffffffffff1673ffffffffffffffffffffffffffffffffffffffff16815260200160078201548152602001600882015481526020016009820160009054906101000a900460ff16151515158152505090508060e001513410156128d257600080fd5b60018161012001901515908115158152506128ec57600080fd5b6128f7823385613284565b60008160c0015190508073ffffffffffffffffffffffffffffffffffffffff166108fc349081150290604051600060405180830381858888f19350505050158015612946573d6000803e3d6000fd5b50338260c0019073ffffffffffffffffffffffffffffffffffffffff16908173ffffffffffffffffffffffffffffffffffffffff1681525050600182610100018181516129939190614eb2565b9150818152505081600b60008681526020019081526020016000206000820151816000015560208201518160010190805190602001906129d4929190613c12565b5060408201518160020190805190602001906129f1929190613c12565b506060820151816003019080519060200190612a0e929190613c12565b506080820151816004019080519060200190612a2b929190613c12565b5060a08201518160050160006101000a81548173ffffffffffffffffffffffffffffffffffffffff021916908373ffffffffffffffffffffffffffffffffffffffff16021790555060c08201518160060160006101000a81548173ffffffffffffffffffffffffffffffffffffffff021916908373ffffffffffffffffffffffffffffffffffffffff16021790555060e0820151816007015561010082015181600801556101208201518160090160006101000a81548160ff0219169083151502179055509050507f22e3ae3a20c49dce14046235895c7a3ffc0a6a5f3577c370177ad45fa619485d833334604051612b2693929190614f08565b60405180910390a150505050565b60088054612b4190614660565b80601f0160208091040260200160405190810160405280929190818152602001828054612b6d90614660565b8015612bba5780601f10612b8f57610100808354040283529160200191612bba565b820191906000526020600020905b815481529060010190602001808311612b9d57829003601f168201915b505050505081565b6000600560008473ffffffffffffffffffffffffffffffffffffffff1673ffffffffffffffffffffffffffffffffffffffff16815260200190815260200160002060008373ffffffffffffffffffffffffffffffffffffffff1673ffffffffffffffffffffffffffffffffffffffff16815260200190815260200160002060009054906101000a900460ff16905092915050565b600b602052806000526040600020600091509050806000015490806001018054612c7f90614660565b80601f0160208091040260200160405190810160405280929190818152602001828054612cab90614660565b8015612cf85780601f10612ccd57610100808354040283529160200191612cf8565b820191906000526020600020905b815481529060010190602001808311612cdb57829003601f168201915b505050505090806002018054612d0d90614660565b80601f0160208091040260200160405190810160405280929190818152602001828054612d3990614660565b8015612d865780601f10612d5b57610100808354040283529160200191612d86565b820191906000526020600020905b815481529060010190602001808311612d6957829003601f168201915b505050505090806003018054612d9b90614660565b80601f0160208091040260200160405190810160405280929190818152602001828054612dc790614660565b8015612e145780601f10612de957610100808354040283529160200191612e14565b820191906000526020600020905b815481529060010190602001808311612df757829003601f168201915b505050505090806004018054612e2990614660565b80601f0160208091040260200160405190810160405280929190818152602001828054612e5590614660565b8015612ea25780601f10612e7757610100808354040283529160200191612ea2565b820191906000526020600020905b815481529060010190602001808311612e8557829003601f168201915b5050505050908060050160009054906101000a900473ffffffffffffffffffffffffffffffffffffffff16908060060160009054906101000a900473ffffffffffffffffffffffffffffffffffffffff16908060070154908060080154908060090160009054906101000a900460ff1690508a565b612f1f6130e5565b73ffffffffffffffffffffffffffffffffffffffff16612f3d61198f565b73ffffffffffffffffffffffffffffffffffffffff1614612f93576040517f08c379a0000000000000000000000000000000000000000000000000000000008152600401612f8a90614d70565b60405180910390fd5b600073ffffffffffffffffffffffffffffffffffffffff168173ffffffffffffffffffffffffffffffffffffffff161415613003576040517f08c379a0000000000000000000000000000000000000000000000000000000008152600401612ffa90614fb1565b60405180910390fd5b61300c81613722565b50565b60007f01ffc9a7000000000000000000000000000000000000000000000000000000007bffffffffffffffffffffffffffffffffffffffffffffffffffffffff1916827bffffffffffffffffffffffffffffffffffffffffffffffffffffffff1916149050919050565b60008073ffffffffffffffffffffffffffffffffffffffff166002600084815260200190815260200160002060009054906101000a900473ffffffffffffffffffffffffffffffffffffffff1673ffffffffffffffffffffffffffffffffffffffff1614159050919050565b600033905090565b816004600083815260200190815260200160002060006101000a81548173ffffffffffffffffffffffffffffffffffffffff021916908373ffffffffffffffffffffffffffffffffffffffff160217905550808273ffffffffffffffffffffffffffffffffffffffff1661316083611629565b73ffffffffffffffffffffffffffffffffffffffff167f8c5be1e5ebec7d5bd14f71427d1e84f3dd0314c0f7b2291e5b200ac8c7c3b92560405160405180910390a45050565b60006131b182613079565b6131f0576040517f08c379a00000000000000000000000000000000000000000000000000000000081526004016131e790615043565b60405180910390fd5b60006131fb83611629565b90508073ffffffffffffffffffffffffffffffffffffffff168473ffffffffffffffffffffffffffffffffffffffff16148061326a57508373ffffffffffffffffffffffffffffffffffffffff1661325284610b04565b73ffffffffffffffffffffffffffffffffffffffff16145b8061327b575061327a8185612bc2565b5b91505092915050565b8273ffffffffffffffffffffffffffffffffffffffff166132a482611629565b73ffffffffffffffffffffffffffffffffffffffff16146132fa576040517f08c379a00000000000000000000000000000000000000000000000000000000081526004016132f1906150d5565b60405180910390fd5b600073ffffffffffffffffffffffffffffffffffffffff168273ffffffffffffffffffffffffffffffffffffffff16141561336a576040517f08c379a000000000000000000000000000000000000000000000000000000000815260040161336190615167565b60405180910390fd5b613375838383613902565b6133806000826130ed565b6001600360008573ffffffffffffffffffffffffffffffffffffffff1673ffffffffffffffffffffffffffffffffffffffff16815260200190815260200160002060008282546133d09190615187565b925050819055506001600360008473ffffffffffffffffffffffffffffffffffffffff1673ffffffffffffffffffffffffffffffffffffffff16815260200190815260200160002060008282546134279190614eb2565b92505081905550816002600083815260200190815260200160002060006101000a81548173ffffffffffffffffffffffffffffffffffffffff021916908373ffffffffffffffffffffffffffffffffffffffff160217905550808273ffffffffffffffffffffffffffffffffffffffff168473ffffffffffffffffffffffffffffffffffffffff167fddf252ad1be2c89b69c2b068fc378daa952ba7f163c4a11628f55a4df523b3ef60405160405180910390a4505050565b600073ffffffffffffffffffffffffffffffffffffffff168273ffffffffffffffffffffffffffffffffffffffff161415613550576040517f08c379a000000000000000000000000000000000000000000000000000000000815260040161354790615207565b60405180910390fd5b61355981613079565b15613599576040517f08c379a000000000000000000000000000000000000000000000000000000000815260040161359090615273565b60405180910390fd5b6135a560008383613902565b6001600360008473ffffffffffffffffffffffffffffffffffffffff1673ffffffffffffffffffffffffffffffffffffffff16815260200190815260200160002060008282546135f59190614eb2565b92505081905550816002600083815260200190815260200160002060006101000a81548173ffffffffffffffffffffffffffffffffffffffff021916908373ffffffffffffffffffffffffffffffffffffffff160217905550808273ffffffffffffffffffffffffffffffffffffffff16600073ffffffffffffffffffffffffffffffffffffffff167fddf252ad1be2c89b69c2b068fc378daa952ba7f163c4a11628f55a4df523b3ef60405160405180910390a45050565b6136b782613079565b6136f6576040517f08c379a00000000000000000000000000000000000000000000000000000000081526004016136ed90615305565b60405180910390fd5b8060066000848152602001908152602001600020908051906020019061371d929190613c12565b505050565b6000600760009054906101000a900473ffffffffffffffffffffffffffffffffffffffff16905081600760006101000a81548173ffffffffffffffffffffffffffffffffffffffff021916908373ffffffffffffffffffffffffffffffffffffffff1602179055508173ffffffffffffffffffffffffffffffffffffffff168173ffffffffffffffffffffffffffffffffffffffff167f8be0079c531659141344cd1fd0a4f28419497f9722a3daafe3b4186f6b6457e060405160405180910390a35050565b6137f3848484613284565b6137ff84848484613907565b61383e576040517f08c379a000000000000000000000000000000000000000000000000000000000815260040161383590615397565b60405180910390fd5b50505050565b606060405180602001604052806000815250905090565b606061386682613079565b6138a5576040517f08c379a000000000000000000000000000000000000000000000000000000000815260040161389c90615429565b60405180910390fd5b60006138af613844565b905060008151116138cf57604051806020016040528060008152506138fa565b806138d984613a9e565b6040516020016138ea929190614e8e565b6040516020818303038152906040525b915050919050565b505050565b60006139288473ffffffffffffffffffffffffffffffffffffffff16613bff565b15613a91578373ffffffffffffffffffffffffffffffffffffffff1663150b7a026139516130e5565b8786866040518563ffffffff1660e01b8152600401613973949392919061549e565b602060405180830381600087803b15801561398d57600080fd5b505af19250505080156139be57506040513d601f19601f820116820180604052508101906139bb91906154ff565b60015b613a41573d80600081146139ee576040519150601f19603f3d011682016040523d82523d6000602084013e6139f3565b606091505b50600081511415613a39576040517f08c379a0000000000000000000000000000000000000000000000000000000008152600401613a3090615397565b60405180910390fd5b805181602001fd5b63150b7a0260e01b7bffffffffffffffffffffffffffffffffffffffffffffffffffffffff1916817bffffffffffffffffffffffffffffffffffffffffffffffffffffffff191614915050613a96565b600190505b949350505050565b60606000821415613ae6576040518060400160405280600181526020017f30000000000000000000000000000000000000000000000000000000000000008152509050613bfa565b600082905060005b60008214613b18578080613b0190614975565b915050600a82613b11919061555b565b9150613aee565b60008167ffffffffffffffff811115613b3457613b336140a9565b5b6040519080825280601f01601f191660200182016040528015613b665781602001600182028036833780820191505090505b5090505b60008514613bf357600182613b7f9190615187565b9150600a85613b8e919061558c565b6030613b9a9190614eb2565b60f81b818381518110613bb057613baf6155bd565b5b60200101907effffffffffffffffffffffffffffffffffffffffffffffffffffffffffffff1916908160001a905350600a85613bec919061555b565b9450613b6a565b8093505050505b919050565b600080823b905060008111915050919050565b828054613c1e90614660565b90600052602060002090601f016020900481019282613c405760008555613c87565b82601f10613c5957805160ff1916838001178555613c87565b82800160010185558215613c87579182015b82811115613c86578251825591602001919060010190613c6b565b5b509050613c949190613c98565b5090565b5b80821115613cb1576000816000905550600101613c99565b5090565b6000604051905090565b600080fd5b600080fd5b60007fffffffff0000000000000000000000000000000000000000000000000000000082169050919050565b613cfe81613cc9565b8114613d0957600080fd5b50565b600081359050613d1b81613cf5565b92915050565b600060208284031215613d3757613d36613cbf565b5b6000613d4584828501613d0c565b91505092915050565b60008115159050919050565b613d6381613d4e565b82525050565b6000602082019050613d7e6000830184613d5a565b92915050565b600081519050919050565b600082825260208201905092915050565b60005b83811015613dbe578082015181840152602081019050613da3565b83811115613dcd576000848401525b50505050565b6000601f19601f8301169050919050565b6000613def82613d84565b613df98185613d8f565b9350613e09818560208601613da0565b613e1281613dd3565b840191505092915050565b60006020820190508181036000830152613e378184613de4565b905092915050565b6000819050919050565b613e5281613e3f565b8114613e5d57600080fd5b50565b600081359050613e6f81613e49565b92915050565b600060208284031215613e8b57613e8a613cbf565b5b6000613e9984828501613e60565b91505092915050565b600073ffffffffffffffffffffffffffffffffffffffff82169050919050565b6000613ecd82613ea2565b9050919050565b613edd81613ec2565b82525050565b6000602082019050613ef86000830184613ed4565b92915050565b613f0781613e3f565b82525050565b6000602082019050613f226000830184613efe565b92915050565b613f3181613ec2565b8114613f3c57600080fd5b50565b600081359050613f4e81613f28565b92915050565b60008060408385031215613f6b57613f6a613cbf565b5b6000613f7985828601613f3f565b9250506020613f8a85828601613e60565b9150509250929050565b600080600060608486031215613fad57613fac613cbf565b5b6000613fbb86828701613f3f565b9350506020613fcc86828701613f3f565b9250506040613fdd86828701613e60565b9150509250925092565b600061014082019050613ffd600083018d613efe565b818103602083015261400f818c613de4565b90508181036040830152614023818b613de4565b90508181036060830152614037818a613de4565b9050818103608083015261404b8189613de4565b905061405a60a0830188613ed4565b61406760c0830187613ed4565b61407460e0830186613efe565b614082610100830185613efe565b614090610120830184613d5a565b9b9a5050505050505050505050565b600080fd5b600080fd5b7f4e487b7100000000000000000000000000000000000000000000000000000000600052604160045260246000fd5b6140e182613dd3565b810181811067ffffffffffffffff82111715614100576140ff6140a9565b5b80604052505050565b6000614113613cb5565b905061411f82826140d8565b919050565b600067ffffffffffffffff82111561413f5761413e6140a9565b5b61414882613dd3565b9050602081019050919050565b82818337600083830152505050565b600061417761417284614124565b614109565b905082815260208101848484011115614193576141926140a4565b5b61419e848285614155565b509392505050565b600082601f8301126141bb576141ba61409f565b5b81356141cb848260208601614164565b91505092915050565b60006141df82613ea2565b9050919050565b6141ef816141d4565b81146141fa57600080fd5b50565b60008135905061420c816141e6565b92915050565b600080600080600080600060e0888a03121561423157614230613cbf565b5b600088013567ffffffffffffffff81111561424f5761424e613cc4565b5b61425b8a828b016141a6565b975050602088013567ffffffffffffffff81111561427c5761427b613cc4565b5b6142888a828b016141a6565b965050604088013567ffffffffffffffff8111156142a9576142a8613cc4565b5b6142b58a828b016141a6565b955050606088013567ffffffffffffffff8111156142d6576142d5613cc4565b5b6142e28a828b016141a6565b94505060806142f38a828b016141fd565b93505060a06143048a828b016141fd565b92505060c06143158a828b01613e60565b91505092959891949750929550565b60006020828403121561433a57614339613cbf565b5b600061434884828501613f3f565b91505092915050565b60006020828403121561436757614366613cbf565b5b600082013567ffffffffffffffff81111561438557614384613cc4565b5b614391848285016141a6565b91505092915050565b6143a381613d4e565b81146143ae57600080fd5b50565b6000813590506143c08161439a565b92915050565b600080604083850312156143dd576143dc613cbf565b5b60006143eb85828601613f3f565b92505060206143fc858286016143b1565b9150509250929050565b600067ffffffffffffffff821115614421576144206140a9565b5b61442a82613dd3565b9050602081019050919050565b600061444a61444584614406565b614109565b905082815260208101848484011115614466576144656140a4565b5b614471848285614155565b509392505050565b600082601f83011261448e5761448d61409f565b5b813561449e848260208601614437565b91505092915050565b600080600080608085870312156144c1576144c0613cbf565b5b60006144cf87828801613f3f565b94505060206144e087828801613f3f565b93505060406144f187828801613e60565b925050606085013567ffffffffffffffff81111561451257614511613cc4565b5b61451e87828801614479565b91505092959194509250565b6000806040838503121561454157614540613cbf565b5b600061454f85828601613f3f565b925050602061456085828601613f3f565b9150509250929050565b614573816141d4565b82525050565b60006101408201905061458f600083018d613efe565b81810360208301526145a1818c613de4565b905081810360408301526145b5818b613de4565b905081810360608301526145c9818a613de4565b905081810360808301526145dd8189613de4565b90506145ec60a083018861456a565b6145f960c083018761456a565b61460660e0830186613efe565b614614610100830185613efe565b614622610120830184613d5a565b9b9a5050505050505050505050565b7f4e487b7100000000000000000000000000000000000000000000000000000000600052602260045260246000fd5b6000600282049050600182168061467857607f821691505b6020821081141561468c5761468b614631565b5b50919050565b7f4552433732313a20617070726f76656420717565727920666f72206e6f6e657860008201527f697374656e7420746f6b656e0000000000000000000000000000000000000000602082015250565b60006146ee602c83613d8f565b91506146f982614692565b604082019050919050565b6000602082019050818103600083015261471d816146e1565b9050919050565b7f4552433732313a20617070726f76616c20746f2063757272656e74206f776e6560008201527f7200000000000000000000000000000000000000000000000000000000000000602082015250565b6000614780602183613d8f565b915061478b82614724565b604082019050919050565b600060208201905081810360008301526147af81614773565b9050919050565b7f4552433732313a20617070726f76652063616c6c6572206973206e6f74206f7760008201527f6e6572206e6f7220617070726f76656420666f7220616c6c0000000000000000602082015250565b6000614812603883613d8f565b915061481d826147b6565b604082019050919050565b6000602082019050818103600083015261484181614805565b9050919050565b7f4552433732313a207472616e736665722063616c6c6572206973206e6f74206f60008201527f776e6572206e6f7220617070726f766564000000000000000000000000000000602082015250565b60006148a4603183613d8f565b91506148af82614848565b604082019050919050565b600060208201905081810360008301526148d381614897565b9050919050565b7f4f6e6c79207468652067616c6c6572792063616e206d696e7421000000000000600082015250565b6000614910601a83613d8f565b915061491b826148da565b602082019050919050565b6000602082019050818103600083015261493f81614903565b9050919050565b7f4e487b7100000000000000000000000000000000000000000000000000000000600052601160045260246000fd5b600061498082613e3f565b91507fffffffffffffffffffffffffffffffffffffffffffffffffffffffffffffffff8214156149b3576149b2614946565b5b600182019050919050565b7f546f6b656e20436f756e74206578697374732100000000000000000000000000600082015250565b60006149f4601383613d8f565b91506149ff826149be565b602082019050919050565b60006020820190508181036000830152614a23816149e7565b9050919050565b600081905092915050565b6000614a4082613d84565b614a4a8185614a2a565b9350614a5a818560208601613da0565b80840191505092915050565b6000614a728284614a35565b915081905092915050565b7f546f6b656e205552492065786973747321000000000000000000000000000000600082015250565b6000614ab3601183613d8f565b9150614abe82614a7d565b602082019050919050565b60006020820190508181036000830152614ae281614aa6565b9050919050565b7f546f6b656e204e616d6520657869737473210000000000000000000000000000600082015250565b6000614b1f601283613d8f565b9150614b2a82614ae9565b602082019050919050565b60006020820190508181036000830152614b4e81614b12565b9050919050565b6000819050919050565b6000614b7a614b75614b7084613ea2565b614b55565b613ea2565b9050919050565b6000614b8c82614b5f565b9050919050565b6000614b9e82614b81565b9050919050565b614bae81614b93565b82525050565b6000608082019050614bc96000830187614ba5565b614bd66020830186613efe565b614be36040830185613efe565b8181036060830152614bf58184613de4565b905095945050505050565b7f4552433732313a206f776e657220717565727920666f72206e6f6e657869737460008201527f656e7420746f6b656e0000000000000000000000000000000000000000000000602082015250565b6000614c5c602983613d8f565b9150614c6782614c00565b604082019050919050565b60006020820190508181036000830152614c8b81614c4f565b9050919050565b7f4552433732313a2062616c616e636520717565727920666f7220746865207a6560008201527f726f206164647265737300000000000000000000000000000000000000000000602082015250565b6000614cee602a83613d8f565b9150614cf982614c92565b604082019050919050565b60006020820190508181036000830152614d1d81614ce1565b9050919050565b7f4f776e61626c653a2063616c6c6572206973206e6f7420746865206f776e6572600082015250565b6000614d5a602083613d8f565b9150614d6582614d24565b602082019050919050565b60006020820190508181036000830152614d8981614d4d565b9050919050565b7f4552433732313a20617070726f766520746f2063616c6c657200000000000000600082015250565b6000614dc6601983613d8f565b9150614dd182614d90565b602082019050919050565b60006020820190508181036000830152614df581614db9565b9050919050565b7f45524337323155524953746f726167653a2055524920717565727920666f722060008201527f6e6f6e6578697374656e7420746f6b656e000000000000000000000000000000602082015250565b6000614e58603183613d8f565b9150614e6382614dfc565b604082019050919050565b60006020820190508181036000830152614e8781614e4b565b9050919050565b6000614e9a8285614a35565b9150614ea68284614a35565b91508190509392505050565b6000614ebd82613e3f565b9150614ec883613e3f565b9250827fffffffffffffffffffffffffffffffffffffffffffffffffffffffffffffffff03821115614efd57614efc614946565b5b828201905092915050565b6000606082019050614f1d6000830186613ed4565b614f2a6020830185613ed4565b614f376040830184613efe565b949350505050565b7f4f776e61626c653a206e6577206f776e657220697320746865207a65726f206160008201527f6464726573730000000000000000000000000000000000000000000000000000602082015250565b6000614f9b602683613d8f565b9150614fa682614f3f565b604082019050919050565b60006020820190508181036000830152614fca81614f8e565b9050919050565b7f4552433732313a206f70657261746f7220717565727920666f72206e6f6e657860008201527f697374656e7420746f6b656e0000000000000000000000000000000000000000602082015250565b600061502d602c83613d8f565b915061503882614fd1565b604082019050919050565b6000602082019050818103600083015261505c81615020565b9050919050565b7f4552433732313a207472616e73666572206f6620746f6b656e2074686174206960008201527f73206e6f74206f776e0000000000000000000000000000000000000000000000602082015250565b60006150bf602983613d8f565b91506150ca82615063565b604082019050919050565b600060208201905081810360008301526150ee816150b2565b9050919050565b7f4552433732313a207472616e7366657220746f20746865207a65726f2061646460008201527f7265737300000000000000000000000000000000000000000000000000000000602082015250565b6000615151602483613d8f565b915061515c826150f5565b604082019050919050565b6000602082019050818103600083015261518081615144565b9050919050565b600061519282613e3f565b915061519d83613e3f565b9250828210156151b0576151af614946565b5b828203905092915050565b7f4552433732313a206d696e7420746f20746865207a65726f2061646472657373600082015250565b60006151f1602083613d8f565b91506151fc826151bb565b602082019050919050565b60006020820190508181036000830152615220816151e4565b9050919050565b7f4552433732313a20746f6b656e20616c7265616479206d696e74656400000000600082015250565b600061525d601c83613d8f565b915061526882615227565b602082019050919050565b6000602082019050818103600083015261528c81615250565b9050919050565b7f45524337323155524953746f726167653a2055524920736574206f66206e6f6e60008201527f6578697374656e7420746f6b656e000000000000000000000000000000000000602082015250565b60006152ef602e83613d8f565b91506152fa82615293565b604082019050919050565b6000602082019050818103600083015261531e816152e2565b9050919050565b7f4552433732313a207472616e7366657220746f206e6f6e20455243373231526560008201527f63656976657220696d706c656d656e7465720000000000000000000000000000602082015250565b6000615381603283613d8f565b915061538c82615325565b604082019050919050565b600060208201905081810360008301526153b081615374565b9050919050565b7f4552433732314d657461646174613a2055524920717565727920666f72206e6f60008201527f6e6578697374656e7420746f6b656e0000000000000000000000000000000000602082015250565b6000615413602f83613d8f565b915061541e826153b7565b604082019050919050565b6000602082019050818103600083015261544281615406565b9050919050565b600081519050919050565b600082825260208201905092915050565b600061547082615449565b61547a8185615454565b935061548a818560208601613da0565b61549381613dd3565b840191505092915050565b60006080820190506154b36000830187613ed4565b6154c06020830186613ed4565b6154cd6040830185613efe565b81810360608301526154df8184615465565b905095945050505050565b6000815190506154f981613cf5565b92915050565b60006020828403121561551557615514613cbf565b5b6000615523848285016154ea565b91505092915050565b7f4e487b7100000000000000000000000000000000000000000000000000000000600052601260045260246000fd5b600061556682613e3f565b915061557183613e3f565b9250826155815761558061552c565b5b828204905092915050565b600061559782613e3f565b91506155a283613e3f565b9250826155b2576155b161552c565b5b828206905092915050565b7f4e487b7100000000000000000000000000000000000000000000000000000000600052603260045260246000fdfea2646970667358221220c15c8c4ec561882f0fce7f682aa9cc63b9bd4bb7f8e9afc09b20c8001dd5094e64736f6c63430008090033",
  "immutableReferences": {},
  "source": "// SPDX-License-Identifier: MIT\npragma solidity >=0.5.16 <0.9.0;\n\nimport \"@openzeppelin/contracts/token/ERC721/ERC721.sol\";\nimport \"@openzeppelin/contracts/access/Ownable.sol\";\nimport \"@openzeppelin/contracts/token/ERC721/extensions/ERC721URIStorage.sol\";\n// import \"@openzeppelin/contracts/utils/Counters.sol\";\nimport \"@openzeppelin/contracts/utils/math/SafeMath.sol\";\n\ncontract NFT is ERC721URIStorage, Ownable {\n    // Contract's collection name\n    string public collectionName;\n    // Contract's token symbol\n    string public collectionNameSymbol;\n    // Total number of NFT's minted\n    uint256 public tokenCounter;\n    struct Item {\n        uint256 tokenId;\n        string name;\n        string title;\n        string artist;\n        string tokenURI;\n        address payable gallery; //minted by\n        address payable currentOwner;\n        uint256 price;\n        uint256 numberOfTransfers;\n        bool forSale;\n    }\n\n    // Puts all pieces in a collection\n    mapping(uint256 => Item) public collection;\n\n    // Checking if token name exists\n    mapping(string => bool) public tokenNameExists;\n    // Check if tokenURI exists\n    mapping(string => bool) public tokenURIExists;\n\n    // Creates role for minting only\n    mapping(address => bool) public galleryOnlyMinter;\n\n    // Initialize contract while deployment with contract's collection name and token\n    constructor() ERC721(\"NFT Gallery\", \"NFT\") {\n        collectionName = name();\n        collectionNameSymbol = symbol();\n    }\n\n    // Minting permissions\n    function getMinterRole(address _account) public view returns (bool) {\n        return galleryOnlyMinter[_account];\n    }\n\n    function addMinter(address _minter) public payable returns (bool) {\n        require(galleryOnlyMinter[_minter] == false);\n        galleryOnlyMinter[_minter] = true;\n        return galleryOnlyMinter[_minter];\n    }\n\n    event Mint(address owner, uint256 price, uint256 id, string uri);\n\n    //Minting function\n    function mint(\n        string memory _name,\n        string memory _title,\n        string memory _artist,\n        string memory _tokenURI,\n        address payable _gallery,\n        address payable _currentOwner,\n        uint256 _price\n    ) public {\n        // Only the gallery can mint\n        require(\n            galleryOnlyMinter[_gallery] == true,\n            \"Only the gallery can mint!\"\n        );\n        // Increment Counter\n        tokenCounter++;\n        // Check if token exists with above token id (incremented counter)\n        require(!_exists(tokenCounter), \"Token Count exists!\");\n        // Check if token URI exists\n        require(!tokenURIExists[_tokenURI], \"Token URI exists!\");\n        // Check if token name exists\n        require(!tokenNameExists[_tokenURI], \"Token Name exists!\");\n        // Make passed token URI as exists\n        tokenURIExists[_tokenURI] = true;\n        // // Make token name passed as exists\n        tokenNameExists[_name] = true;\n\n        // Minting\n        _mint(_gallery, tokenCounter);\n        // Set tokenURI (bind token id with the passed in token URI)\n        _setTokenURI(tokenCounter, _tokenURI);\n\n        // Emit mint event\n        emit Mint(_gallery, _price, tokenCounter, _tokenURI);\n\n        // Create a new NFT item struct and pass in new values\n        Item memory newItem = Item(\n            tokenCounter,\n            _name,\n            _title,\n            _artist,\n            _tokenURI,\n            _gallery,\n            _currentOwner,\n            _price,\n            0,\n            true\n        );\n\n        collection[tokenCounter] = newItem;\n    }\n\n\n    function getItem(uint256 _tokenId)\n        public\n        view\n        returns (uint256 tokenId, string memory name, string memory title, string memory artist, string memory tokenURI, address gallery, address currentOwner, uint256 price, uint256 numberOfTransfers, bool forSale)\n    {\n        // copy the data into memory\n        Item memory x = collection[_tokenId];\n        \n        // break the struct's members out into a tuple\n        // in the same order that they appear in the struct\n        return (x.tokenId, x.name, x.title , x.artist , x.tokenURI, x.gallery, x.currentOwner, x.price, x.numberOfTransfers, x.forSale);\n    }\n\n    // Get owner of the token\n    function getTokenOwner(uint256 _tokenId) public view returns (address) {\n        address _tokenOwner = ownerOf(_tokenId);\n        return _tokenOwner;\n    }\n\n    // Get metadata of token\n    function getTokenMetaData(uint256 _tokenId)\n        public\n        view\n        returns (string memory)\n    {\n        string memory tokenMetaData = tokenURI(_tokenId);\n        return tokenMetaData;\n    }\n\n    function getArtist(uint256 _tokenId) public view returns (string memory) {\n        string memory artist = collection[_tokenId].artist;\n        return artist;\n    }\n\n    function getTitle(uint256 _tokenId) public view returns (string memory) {\n        string memory title = collection[_tokenId].title;\n        return title;\n    }\n\n    function getNumberTransfers(uint256 _tokenId) public view returns (uint256)\n    {\n        uint256 num = collection[_tokenId]\n            .numberOfTransfers;\n        return num;\n    }\n\n    // Get total number of tokens minted\n    function getNumberOfTokensMinted() public view returns (uint256) {\n        uint256 totalNumberOfTokensMinted = tokenCounter;\n        return totalNumberOfTokensMinted;\n    }\n\n    // Get total number of tokens owned by an address\n    function getTotalNumberOfTokensOwnedByAnAddress(address _owner)\n        public\n        view\n        returns (uint256)\n    {\n        uint256 totalNumberOfTokensOwned = balanceOf(_owner);\n        return totalNumberOfTokensOwned;\n    }\n\n    // Check if the token already exists\n    function getTokenExists(uint256 _tokenId) public view returns (bool) {\n        bool tokenExists = _exists(_tokenId);\n        return tokenExists;\n    }\n\n    event Purchase(address _seller, address _buyer, uint256 _price);\n\n    // Buying a token by passing in the token ID\n    function buy(uint256 _tokenId) public payable {\n        // Check if the function caller is not a zero account address\n        require(msg.sender != address(0));\n        // Check if the id exists\n        require(_exists(_tokenId));\n        // Get the token's owner\n        address tokenOwner = ownerOf(_tokenId);\n        // Function caller should not be the owner\n        require(tokenOwner != msg.sender);\n        // Get the token from collection mapping and create memory of it as defined from struct => newItem\n        Item memory newItem = collection[_tokenId];\n        // Price sent in to buy should >= token's price\n        require(msg.value >= newItem.price);\n        // Token should be for sale\n        require(newItem.forSale = true);\n        // Transfer token from owner to buyer\n        _transfer(tokenOwner, msg.sender, _tokenId);\n        // Get owner of the token\n        address payable sendTo = newItem.currentOwner;\n        // Send token's value to the owner\n        sendTo.transfer(msg.value);\n        // Update current owner\n        newItem.currentOwner = payable(msg.sender);\n        newItem.numberOfTransfers += 1;\n        collection[_tokenId] = newItem;\n        emit Purchase(tokenOwner, msg.sender, msg.value);\n    }\n\n    // Toggle forSale\n    function toggleForSale(uint256 _tokenId) public {\n        // Require token exists\n        require(_exists(_tokenId));\n        // Get token's owner\n        address tokenOwner = ownerOf(_tokenId);\n        // Check token's owner should be caller\n        require(tokenOwner == msg.sender);\n        // Get the token from collection mapping and create memory of it as defined from struct => newItem\n        Item memory newItem = collection[_tokenId];\n        // Toggle forSale\n        if (newItem.forSale = true) {\n            newItem.forSale = false;\n        } else {\n            newItem.forSale = true;\n        }\n        collection[_tokenId] = newItem;\n    }\n}\n",
  "sourcePath": "/Users/qiandong/blockchain-dev/blockchain-developer-bootcamp-final-project/contracts/NFT.sol",
  "compiler": {
    "name": "solc",
    "version": "0.8.9+commit.e5eed63a.Emscripten.clang"
  },
  "schemaVersion": "3.4.3",
  "updatedAt": "2022-01-11T14:10:54.560Z",
  "networkType": "ethereum",
  "devdoc": {
    "kind": "dev",
    "methods": {
      "approve(address,uint256)": {
        "details": "See {IERC721-approve}."
      },
      "balanceOf(address)": {
        "details": "See {IERC721-balanceOf}."
      },
      "getApproved(uint256)": {
        "details": "See {IERC721-getApproved}."
      },
      "isApprovedForAll(address,address)": {
        "details": "See {IERC721-isApprovedForAll}."
      },
      "name()": {
        "details": "See {IERC721Metadata-name}."
      },
      "owner()": {
        "details": "Returns the address of the current owner."
      },
      "ownerOf(uint256)": {
        "details": "See {IERC721-ownerOf}."
      },
      "renounceOwnership()": {
        "details": "Leaves the contract without owner. It will not be possible to call `onlyOwner` functions anymore. Can only be called by the current owner. NOTE: Renouncing ownership will leave the contract without an owner, thereby removing any functionality that is only available to the owner."
      },
      "safeTransferFrom(address,address,uint256)": {
        "details": "See {IERC721-safeTransferFrom}."
      },
      "safeTransferFrom(address,address,uint256,bytes)": {
        "details": "See {IERC721-safeTransferFrom}."
      },
      "setApprovalForAll(address,bool)": {
        "details": "See {IERC721-setApprovalForAll}."
      },
      "supportsInterface(bytes4)": {
        "details": "See {IERC165-supportsInterface}."
      },
      "symbol()": {
        "details": "See {IERC721Metadata-symbol}."
      },
      "tokenURI(uint256)": {
        "details": "See {IERC721Metadata-tokenURI}."
      },
      "transferFrom(address,address,uint256)": {
        "details": "See {IERC721-transferFrom}."
      },
      "transferOwnership(address)": {
        "details": "Transfers ownership of the contract to a new account (`newOwner`). Can only be called by the current owner."
      }
    },
    "version": 1
  },
  "userdoc": {
    "kind": "user",
    "methods": {},
    "version": 1
  }
}