{
  "contractName": "NFT",
  "abi": [
    {
      "inputs": [
        {
          "internalType": "address",
          "name": "gallery",
          "type": "address"
        }
      ],
      "stateMutability": "nonpayable",
      "type": "constructor"
    },
    {
      "anonymous": false,
      "inputs": [
        {
          "indexed": true,
          "internalType": "address",
          "name": "owner",
          "type": "address"
        },
        {
          "indexed": true,
          "internalType": "address",
          "name": "approved",
          "type": "address"
        },
        {
          "indexed": true,
          "internalType": "uint256",
          "name": "tokenId",
          "type": "uint256"
        }
      ],
      "name": "Approval",
      "type": "event"
    },
    {
      "anonymous": false,
      "inputs": [
        {
          "indexed": true,
          "internalType": "address",
          "name": "owner",
          "type": "address"
        },
        {
          "indexed": true,
          "internalType": "address",
          "name": "operator",
          "type": "address"
        },
        {
          "indexed": false,
          "internalType": "bool",
          "name": "approved",
          "type": "bool"
        }
      ],
      "name": "ApprovalForAll",
      "type": "event"
    },
    {
      "anonymous": false,
      "inputs": [
        {
          "indexed": true,
          "internalType": "address",
          "name": "previousOwner",
          "type": "address"
        },
        {
          "indexed": true,
          "internalType": "address",
          "name": "newOwner",
          "type": "address"
        }
      ],
      "name": "OwnershipTransferred",
      "type": "event"
    },
    {
      "anonymous": false,
      "inputs": [
        {
          "indexed": false,
          "internalType": "address",
          "name": "owner",
          "type": "address"
        },
        {
          "indexed": false,
          "internalType": "uint256",
          "name": "price",
          "type": "uint256"
        },
        {
          "indexed": false,
          "internalType": "uint256",
          "name": "id",
          "type": "uint256"
        },
        {
          "indexed": false,
          "internalType": "string",
          "name": "uri",
          "type": "string"
        }
      ],
      "name": "Purchase",
      "type": "event"
    },
    {
      "anonymous": false,
      "inputs": [
        {
          "indexed": true,
          "internalType": "address",
          "name": "from",
          "type": "address"
        },
        {
          "indexed": true,
          "internalType": "address",
          "name": "to",
          "type": "address"
        },
        {
          "indexed": true,
          "internalType": "uint256",
          "name": "tokenId",
          "type": "uint256"
        }
      ],
      "name": "Transfer",
      "type": "event"
    },
    {
      "inputs": [
        {
          "internalType": "address",
          "name": "to",
          "type": "address"
        },
        {
          "internalType": "uint256",
          "name": "tokenId",
          "type": "uint256"
        }
      ],
      "name": "approve",
      "outputs": [],
      "stateMutability": "nonpayable",
      "type": "function"
    },
    {
      "inputs": [
        {
          "internalType": "address",
          "name": "owner",
          "type": "address"
        }
      ],
      "name": "balanceOf",
      "outputs": [
        {
          "internalType": "uint256",
          "name": "",
          "type": "uint256"
        }
      ],
      "stateMutability": "view",
      "type": "function",
      "constant": true
    },
    {
      "inputs": [
        {
          "internalType": "uint256",
          "name": "",
          "type": "uint256"
        }
      ],
      "name": "collection",
      "outputs": [
        {
          "internalType": "uint256",
          "name": "tokenId",
          "type": "uint256"
        },
        {
          "internalType": "string",
          "name": "title",
          "type": "string"
        },
        {
          "internalType": "string",
          "name": "artist",
          "type": "string"
        },
        {
          "internalType": "string",
          "name": "tokenURI",
          "type": "string"
        },
        {
          "internalType": "address payable",
          "name": "mintedBy",
          "type": "address"
        },
        {
          "internalType": "address payable",
          "name": "currentOwner",
          "type": "address"
        },
        {
          "internalType": "uint256",
          "name": "price",
          "type": "uint256"
        },
        {
          "internalType": "uint256",
          "name": "numberOfTransfers",
          "type": "uint256"
        },
        {
          "internalType": "bool",
          "name": "forSale",
          "type": "bool"
        }
      ],
      "stateMutability": "view",
      "type": "function",
      "constant": true
    },
    {
      "inputs": [
        {
          "internalType": "uint256",
          "name": "tokenId",
          "type": "uint256"
        }
      ],
      "name": "getApproved",
      "outputs": [
        {
          "internalType": "address",
          "name": "",
          "type": "address"
        }
      ],
      "stateMutability": "view",
      "type": "function",
      "constant": true
    },
    {
      "inputs": [
        {
          "internalType": "address",
          "name": "owner",
          "type": "address"
        },
        {
          "internalType": "address",
          "name": "operator",
          "type": "address"
        }
      ],
      "name": "isApprovedForAll",
      "outputs": [
        {
          "internalType": "bool",
          "name": "",
          "type": "bool"
        }
      ],
      "stateMutability": "view",
      "type": "function",
      "constant": true
    },
    {
      "inputs": [],
      "name": "name",
      "outputs": [
        {
          "internalType": "string",
          "name": "",
          "type": "string"
        }
      ],
      "stateMutability": "view",
      "type": "function",
      "constant": true
    },
    {
      "inputs": [],
      "name": "owner",
      "outputs": [
        {
          "internalType": "address",
          "name": "",
          "type": "address"
        }
      ],
      "stateMutability": "view",
      "type": "function",
      "constant": true
    },
    {
      "inputs": [
        {
          "internalType": "uint256",
          "name": "tokenId",
          "type": "uint256"
        }
      ],
      "name": "ownerOf",
      "outputs": [
        {
          "internalType": "address",
          "name": "",
          "type": "address"
        }
      ],
      "stateMutability": "view",
      "type": "function",
      "constant": true
    },
    {
      "inputs": [
        {
          "internalType": "uint256",
          "name": "",
          "type": "uint256"
        }
      ],
      "name": "price",
      "outputs": [
        {
          "internalType": "uint256",
          "name": "",
          "type": "uint256"
        }
      ],
      "stateMutability": "view",
      "type": "function",
      "constant": true
    },
    {
      "inputs": [],
      "name": "renounceOwnership",
      "outputs": [],
      "stateMutability": "nonpayable",
      "type": "function"
    },
    {
      "inputs": [
        {
          "internalType": "address",
          "name": "from",
          "type": "address"
        },
        {
          "internalType": "address",
          "name": "to",
          "type": "address"
        },
        {
          "internalType": "uint256",
          "name": "tokenId",
          "type": "uint256"
        }
      ],
      "name": "safeTransferFrom",
      "outputs": [],
      "stateMutability": "nonpayable",
      "type": "function"
    },
    {
      "inputs": [
        {
          "internalType": "address",
          "name": "from",
          "type": "address"
        },
        {
          "internalType": "address",
          "name": "to",
          "type": "address"
        },
        {
          "internalType": "uint256",
          "name": "tokenId",
          "type": "uint256"
        },
        {
          "internalType": "bytes",
          "name": "_data",
          "type": "bytes"
        }
      ],
      "name": "safeTransferFrom",
      "outputs": [],
      "stateMutability": "nonpayable",
      "type": "function"
    },
    {
      "inputs": [
        {
          "internalType": "address",
          "name": "operator",
          "type": "address"
        },
        {
          "internalType": "bool",
          "name": "approved",
          "type": "bool"
        }
      ],
      "name": "setApprovalForAll",
      "outputs": [],
      "stateMutability": "nonpayable",
      "type": "function"
    },
    {
      "inputs": [
        {
          "internalType": "uint256",
          "name": "",
          "type": "uint256"
        }
      ],
      "name": "sold",
      "outputs": [
        {
          "internalType": "bool",
          "name": "",
          "type": "bool"
        }
      ],
      "stateMutability": "view",
      "type": "function",
      "constant": true
    },
    {
      "inputs": [
        {
          "internalType": "bytes4",
          "name": "interfaceId",
          "type": "bytes4"
        }
      ],
      "name": "supportsInterface",
      "outputs": [
        {
          "internalType": "bool",
          "name": "",
          "type": "bool"
        }
      ],
      "stateMutability": "view",
      "type": "function",
      "constant": true
    },
    {
      "inputs": [],
      "name": "symbol",
      "outputs": [
        {
          "internalType": "string",
          "name": "",
          "type": "string"
        }
      ],
      "stateMutability": "view",
      "type": "function",
      "constant": true
    },
    {
      "inputs": [
        {
          "internalType": "uint256",
          "name": "tokenId",
          "type": "uint256"
        }
      ],
      "name": "tokenURI",
      "outputs": [
        {
          "internalType": "string",
          "name": "",
          "type": "string"
        }
      ],
      "stateMutability": "view",
      "type": "function",
      "constant": true
    },
    {
      "inputs": [
        {
          "internalType": "address",
          "name": "from",
          "type": "address"
        },
        {
          "internalType": "address",
          "name": "to",
          "type": "address"
        },
        {
          "internalType": "uint256",
          "name": "tokenId",
          "type": "uint256"
        }
      ],
      "name": "transferFrom",
      "outputs": [],
      "stateMutability": "nonpayable",
      "type": "function"
    },
    {
      "inputs": [
        {
          "internalType": "address",
          "name": "newOwner",
          "type": "address"
        }
      ],
      "name": "transferOwnership",
      "outputs": [],
      "stateMutability": "nonpayable",
      "type": "function"
    }
  ],
  "bytecode": "0x60806040523480156200001157600080fd5b5060405162002f6438038062002f64833981810160405281019062000037919062000327565b6040518060400160405280600b81526020017f4e46542047616c6c6572790000000000000000000000000000000000000000008152506040518060400160405280600381526020017f4e465400000000000000000000000000000000000000000000000000000000008152508160009080519060200190620000bb9291906200020d565b508060019080519060200190620000d49291906200020d565b505050620000f7620000eb6200013f60201b60201c565b6200014760201b60201c565b80600760006101000a81548173ffffffffffffffffffffffffffffffffffffffff021916908373ffffffffffffffffffffffffffffffffffffffff16021790555050620003be565b600033905090565b6000600660009054906101000a900473ffffffffffffffffffffffffffffffffffffffff16905081600660006101000a81548173ffffffffffffffffffffffffffffffffffffffff021916908373ffffffffffffffffffffffffffffffffffffffff1602179055508173ffffffffffffffffffffffffffffffffffffffff168173ffffffffffffffffffffffffffffffffffffffff167f8be0079c531659141344cd1fd0a4f28419497f9722a3daafe3b4186f6b6457e060405160405180910390a35050565b8280546200021b9062000388565b90600052602060002090601f0160209004810192826200023f57600085556200028b565b82601f106200025a57805160ff19168380011785556200028b565b828001600101855582156200028b579182015b828111156200028a5782518255916020019190600101906200026d565b5b5090506200029a91906200029e565b5090565b5b80821115620002b95760008160009055506001016200029f565b5090565b600080fd5b600073ffffffffffffffffffffffffffffffffffffffff82169050919050565b6000620002ef82620002c2565b9050919050565b6200030181620002e2565b81146200030d57600080fd5b50565b6000815190506200032181620002f6565b92915050565b60006020828403121562000340576200033f620002bd565b5b6000620003508482850162000310565b91505092915050565b7f4e487b7100000000000000000000000000000000000000000000000000000000600052602260045260246000fd5b60006002820490506001821680620003a157607f821691505b60208210811415620003b857620003b762000359565b5b50919050565b612b9680620003ce6000396000f3fe608060405234801561001057600080fd5b50600436106101215760003560e01c8063715018a6116100ad578063b88d4fde11610071578063b88d4fde1461031a578063c87b56dd14610336578063e985e9c514610366578063f077237714610396578063f2fde38b146103ce57610121565b8063715018a6146102885780638da5cb5b1461029257806395d89b41146102b05780639c03facb146102ce578063a22cb465146102fe57610121565b806323b872dd116100f457806323b872dd146101c057806326a49e37146101dc57806342842e0e1461020c5780636352211e1461022857806370a082311461025857610121565b806301ffc9a71461012657806306fdde0314610156578063081812fc14610174578063095ea7b3146101a4575b600080fd5b610140600480360381019061013b9190611a30565b6103ea565b60405161014d9190611a78565b60405180910390f35b61015e6104cc565b60405161016b9190611b2c565b60405180910390f35b61018e60048036038101906101899190611b84565b61055e565b60405161019b9190611bf2565b60405180910390f35b6101be60048036038101906101b99190611c39565b6105e3565b005b6101da60048036038101906101d59190611c79565b6106fb565b005b6101f660048036038101906101f19190611b84565b61075b565b6040516102039190611cdb565b60405180910390f35b61022660048036038101906102219190611c79565b610773565b005b610242600480360381019061023d9190611b84565b610793565b60405161024f9190611bf2565b60405180910390f35b610272600480360381019061026d9190611cf6565b610845565b60405161027f9190611cdb565b60405180910390f35b6102906108fd565b005b61029a610985565b6040516102a79190611bf2565b60405180910390f35b6102b86109af565b6040516102c59190611b2c565b60405180910390f35b6102e860048036038101906102e39190611b84565b610a41565b6040516102f59190611a78565b60405180910390f35b61031860048036038101906103139190611d4f565b610a61565b005b610334600480360381019061032f9190611ec4565b610be2565b005b610350600480360381019061034b9190611b84565b610c44565b60405161035d9190611b2c565b60405180910390f35b610380600480360381019061037b9190611f47565b610ceb565b60405161038d9190611a78565b60405180910390f35b6103b060048036038101906103ab9190611b84565b610d7f565b6040516103c599989796959493929190611fa8565b60405180910390f35b6103e860048036038101906103e39190611cf6565b610fb2565b005b60007f80ac58cd000000000000000000000000000000000000000000000000000000007bffffffffffffffffffffffffffffffffffffffffffffffffffffffff1916827bffffffffffffffffffffffffffffffffffffffffffffffffffffffff191614806104b557507f5b5e139f000000000000000000000000000000000000000000000000000000007bffffffffffffffffffffffffffffffffffffffffffffffffffffffff1916827bffffffffffffffffffffffffffffffffffffffffffffffffffffffff1916145b806104c557506104c4826110aa565b5b9050919050565b6060600080546104db90612079565b80601f016020809104026020016040519081016040528092919081815260200182805461050790612079565b80156105545780601f1061052957610100808354040283529160200191610554565b820191906000526020600020905b81548152906001019060200180831161053757829003601f168201915b5050505050905090565b600061056982611114565b6105a8576040517f08c379a000000000000000000000000000000000000000000000000000000000815260040161059f9061211d565b60405180910390fd5b6004600083815260200190815260200160002060009054906101000a900473ffffffffffffffffffffffffffffffffffffffff169050919050565b60006105ee82610793565b90508073ffffffffffffffffffffffffffffffffffffffff168373ffffffffffffffffffffffffffffffffffffffff16141561065f576040517f08c379a0000000000000000000000000000000000000000000000000000000008152600401610656906121af565b60405180910390fd5b8073ffffffffffffffffffffffffffffffffffffffff1661067e611180565b73ffffffffffffffffffffffffffffffffffffffff1614806106ad57506106ac816106a7611180565b610ceb565b5b6106ec576040517f08c379a00000000000000000000000000000000000000000000000000000000081526004016106e390612241565b60405180910390fd5b6106f68383611188565b505050565b61070c610706611180565b82611241565b61074b576040517f08c379a0000000000000000000000000000000000000000000000000000000008152600401610742906122d3565b60405180910390fd5b61075683838361131f565b505050565b60096020528060005260406000206000915090505481565b61078e83838360405180602001604052806000815250610be2565b505050565b6000806002600084815260200190815260200160002060009054906101000a900473ffffffffffffffffffffffffffffffffffffffff169050600073ffffffffffffffffffffffffffffffffffffffff168173ffffffffffffffffffffffffffffffffffffffff16141561083c576040517f08c379a000000000000000000000000000000000000000000000000000000000815260040161083390612365565b60405180910390fd5b80915050919050565b60008073ffffffffffffffffffffffffffffffffffffffff168273ffffffffffffffffffffffffffffffffffffffff1614156108b6576040517f08c379a00000000000000000000000000000000000000000000000000000000081526004016108ad906123f7565b60405180910390fd5b600360008373ffffffffffffffffffffffffffffffffffffffff1673ffffffffffffffffffffffffffffffffffffffff168152602001908152602001600020549050919050565b610905611180565b73ffffffffffffffffffffffffffffffffffffffff16610923610985565b73ffffffffffffffffffffffffffffffffffffffff1614610979576040517f08c379a000000000000000000000000000000000000000000000000000000000815260040161097090612463565b60405180910390fd5b610983600061157b565b565b6000600660009054906101000a900473ffffffffffffffffffffffffffffffffffffffff16905090565b6060600180546109be90612079565b80601f01602080910402602001604051908101604052809291908181526020018280546109ea90612079565b8015610a375780601f10610a0c57610100808354040283529160200191610a37565b820191906000526020600020905b815481529060010190602001808311610a1a57829003601f168201915b5050505050905090565b60086020528060005260406000206000915054906101000a900460ff1681565b610a69611180565b73ffffffffffffffffffffffffffffffffffffffff168273ffffffffffffffffffffffffffffffffffffffff161415610ad7576040517f08c379a0000000000000000000000000000000000000000000000000000000008152600401610ace906124cf565b60405180910390fd5b8060056000610ae4611180565b73ffffffffffffffffffffffffffffffffffffffff1673ffffffffffffffffffffffffffffffffffffffff16815260200190815260200160002060008473ffffffffffffffffffffffffffffffffffffffff1673ffffffffffffffffffffffffffffffffffffffff16815260200190815260200160002060006101000a81548160ff0219169083151502179055508173ffffffffffffffffffffffffffffffffffffffff16610b91611180565b73ffffffffffffffffffffffffffffffffffffffff167f17307eab39ab6107e8899845ad3d59bd9653f200f220920489ca2b5937696c3183604051610bd69190611a78565b60405180910390a35050565b610bf3610bed611180565b83611241565b610c32576040517f08c379a0000000000000000000000000000000000000000000000000000000008152600401610c29906122d3565b60405180910390fd5b610c3e84848484611641565b50505050565b6060610c4f82611114565b610c8e576040517f08c379a0000000000000000000000000000000000000000000000000000000008152600401610c8590612561565b60405180910390fd5b6000610c9861169d565b90506000815111610cb85760405180602001604052806000815250610ce3565b80610cc2846116b4565b604051602001610cd39291906125bd565b6040516020818303038152906040525b915050919050565b6000600560008473ffffffffffffffffffffffffffffffffffffffff1673ffffffffffffffffffffffffffffffffffffffff16815260200190815260200160002060008373ffffffffffffffffffffffffffffffffffffffff1673ffffffffffffffffffffffffffffffffffffffff16815260200190815260200160002060009054906101000a900460ff16905092915050565b600a602052806000526040600020600091509050806000015490806001018054610da890612079565b80601f0160208091040260200160405190810160405280929190818152602001828054610dd490612079565b8015610e215780601f10610df657610100808354040283529160200191610e21565b820191906000526020600020905b815481529060010190602001808311610e0457829003601f168201915b505050505090806002018054610e3690612079565b80601f0160208091040260200160405190810160405280929190818152602001828054610e6290612079565b8015610eaf5780601f10610e8457610100808354040283529160200191610eaf565b820191906000526020600020905b815481529060010190602001808311610e9257829003601f168201915b505050505090806003018054610ec490612079565b80601f0160208091040260200160405190810160405280929190818152602001828054610ef090612079565b8015610f3d5780601f10610f1257610100808354040283529160200191610f3d565b820191906000526020600020905b815481529060010190602001808311610f2057829003601f168201915b5050505050908060040160009054906101000a900473ffffffffffffffffffffffffffffffffffffffff16908060050160009054906101000a900473ffffffffffffffffffffffffffffffffffffffff16908060060154908060070154908060080160009054906101000a900460ff16905089565b610fba611180565b73ffffffffffffffffffffffffffffffffffffffff16610fd8610985565b73ffffffffffffffffffffffffffffffffffffffff161461102e576040517f08c379a000000000000000000000000000000000000000000000000000000000815260040161102590612463565b60405180910390fd5b600073ffffffffffffffffffffffffffffffffffffffff168173ffffffffffffffffffffffffffffffffffffffff16141561109e576040517f08c379a000000000000000000000000000000000000000000000000000000000815260040161109590612653565b60405180910390fd5b6110a78161157b565b50565b60007f01ffc9a7000000000000000000000000000000000000000000000000000000007bffffffffffffffffffffffffffffffffffffffffffffffffffffffff1916827bffffffffffffffffffffffffffffffffffffffffffffffffffffffff1916149050919050565b60008073ffffffffffffffffffffffffffffffffffffffff166002600084815260200190815260200160002060009054906101000a900473ffffffffffffffffffffffffffffffffffffffff1673ffffffffffffffffffffffffffffffffffffffff1614159050919050565b600033905090565b816004600083815260200190815260200160002060006101000a81548173ffffffffffffffffffffffffffffffffffffffff021916908373ffffffffffffffffffffffffffffffffffffffff160217905550808273ffffffffffffffffffffffffffffffffffffffff166111fb83610793565b73ffffffffffffffffffffffffffffffffffffffff167f8c5be1e5ebec7d5bd14f71427d1e84f3dd0314c0f7b2291e5b200ac8c7c3b92560405160405180910390a45050565b600061124c82611114565b61128b576040517f08c379a0000000000000000000000000000000000000000000000000000000008152600401611282906126e5565b60405180910390fd5b600061129683610793565b90508073ffffffffffffffffffffffffffffffffffffffff168473ffffffffffffffffffffffffffffffffffffffff16148061130557508373ffffffffffffffffffffffffffffffffffffffff166112ed8461055e565b73ffffffffffffffffffffffffffffffffffffffff16145b8061131657506113158185610ceb565b5b91505092915050565b8273ffffffffffffffffffffffffffffffffffffffff1661133f82610793565b73ffffffffffffffffffffffffffffffffffffffff1614611395576040517f08c379a000000000000000000000000000000000000000000000000000000000815260040161138c90612777565b60405180910390fd5b600073ffffffffffffffffffffffffffffffffffffffff168273ffffffffffffffffffffffffffffffffffffffff161415611405576040517f08c379a00000000000000000000000000000000000000000000000000000000081526004016113fc90612809565b60405180910390fd5b611410838383611815565b61141b600082611188565b6001600360008573ffffffffffffffffffffffffffffffffffffffff1673ffffffffffffffffffffffffffffffffffffffff168152602001908152602001600020600082825461146b9190612858565b925050819055506001600360008473ffffffffffffffffffffffffffffffffffffffff1673ffffffffffffffffffffffffffffffffffffffff16815260200190815260200160002060008282546114c2919061288c565b92505081905550816002600083815260200190815260200160002060006101000a81548173ffffffffffffffffffffffffffffffffffffffff021916908373ffffffffffffffffffffffffffffffffffffffff160217905550808273ffffffffffffffffffffffffffffffffffffffff168473ffffffffffffffffffffffffffffffffffffffff167fddf252ad1be2c89b69c2b068fc378daa952ba7f163c4a11628f55a4df523b3ef60405160405180910390a4505050565b6000600660009054906101000a900473ffffffffffffffffffffffffffffffffffffffff16905081600660006101000a81548173ffffffffffffffffffffffffffffffffffffffff021916908373ffffffffffffffffffffffffffffffffffffffff1602179055508173ffffffffffffffffffffffffffffffffffffffff168173ffffffffffffffffffffffffffffffffffffffff167f8be0079c531659141344cd1fd0a4f28419497f9722a3daafe3b4186f6b6457e060405160405180910390a35050565b61164c84848461131f565b6116588484848461181a565b611697576040517f08c379a000000000000000000000000000000000000000000000000000000000815260040161168e90612954565b60405180910390fd5b50505050565b606060405180602001604052806000815250905090565b606060008214156116fc576040518060400160405280600181526020017f30000000000000000000000000000000000000000000000000000000000000008152509050611810565b600082905060005b6000821461172e57808061171790612974565b915050600a8261172791906129ec565b9150611704565b60008167ffffffffffffffff81111561174a57611749611d99565b5b6040519080825280601f01601f19166020018201604052801561177c5781602001600182028036833780820191505090505b5090505b60008514611809576001826117959190612858565b9150600a856117a49190612a1d565b60306117b0919061288c565b60f81b8183815181106117c6576117c5612a4e565b5b60200101907effffffffffffffffffffffffffffffffffffffffffffffffffffffffffffff1916908160001a905350600a8561180291906129ec565b9450611780565b8093505050505b919050565b505050565b600061183b8473ffffffffffffffffffffffffffffffffffffffff166119b1565b156119a4578373ffffffffffffffffffffffffffffffffffffffff1663150b7a02611864611180565b8786866040518563ffffffff1660e01b81526004016118869493929190612ad2565b602060405180830381600087803b1580156118a057600080fd5b505af19250505080156118d157506040513d601f19601f820116820180604052508101906118ce9190612b33565b60015b611954573d8060008114611901576040519150601f19603f3d011682016040523d82523d6000602084013e611906565b606091505b5060008151141561194c576040517f08c379a000000000000000000000000000000000000000000000000000000000815260040161194390612954565b60405180910390fd5b805181602001fd5b63150b7a0260e01b7bffffffffffffffffffffffffffffffffffffffffffffffffffffffff1916817bffffffffffffffffffffffffffffffffffffffffffffffffffffffff1916149150506119a9565b600190505b949350505050565b600080823b905060008111915050919050565b6000604051905090565b600080fd5b600080fd5b60007fffffffff0000000000000000000000000000000000000000000000000000000082169050919050565b611a0d816119d8565b8114611a1857600080fd5b50565b600081359050611a2a81611a04565b92915050565b600060208284031215611a4657611a456119ce565b5b6000611a5484828501611a1b565b91505092915050565b60008115159050919050565b611a7281611a5d565b82525050565b6000602082019050611a8d6000830184611a69565b92915050565b600081519050919050565b600082825260208201905092915050565b60005b83811015611acd578082015181840152602081019050611ab2565b83811115611adc576000848401525b50505050565b6000601f19601f8301169050919050565b6000611afe82611a93565b611b088185611a9e565b9350611b18818560208601611aaf565b611b2181611ae2565b840191505092915050565b60006020820190508181036000830152611b468184611af3565b905092915050565b6000819050919050565b611b6181611b4e565b8114611b6c57600080fd5b50565b600081359050611b7e81611b58565b92915050565b600060208284031215611b9a57611b996119ce565b5b6000611ba884828501611b6f565b91505092915050565b600073ffffffffffffffffffffffffffffffffffffffff82169050919050565b6000611bdc82611bb1565b9050919050565b611bec81611bd1565b82525050565b6000602082019050611c076000830184611be3565b92915050565b611c1681611bd1565b8114611c2157600080fd5b50565b600081359050611c3381611c0d565b92915050565b60008060408385031215611c5057611c4f6119ce565b5b6000611c5e85828601611c24565b9250506020611c6f85828601611b6f565b9150509250929050565b600080600060608486031215611c9257611c916119ce565b5b6000611ca086828701611c24565b9350506020611cb186828701611c24565b9250506040611cc286828701611b6f565b9150509250925092565b611cd581611b4e565b82525050565b6000602082019050611cf06000830184611ccc565b92915050565b600060208284031215611d0c57611d0b6119ce565b5b6000611d1a84828501611c24565b91505092915050565b611d2c81611a5d565b8114611d3757600080fd5b50565b600081359050611d4981611d23565b92915050565b60008060408385031215611d6657611d656119ce565b5b6000611d7485828601611c24565b9250506020611d8585828601611d3a565b9150509250929050565b600080fd5b600080fd5b7f4e487b7100000000000000000000000000000000000000000000000000000000600052604160045260246000fd5b611dd182611ae2565b810181811067ffffffffffffffff82111715611df057611def611d99565b5b80604052505050565b6000611e036119c4565b9050611e0f8282611dc8565b919050565b600067ffffffffffffffff821115611e2f57611e2e611d99565b5b611e3882611ae2565b9050602081019050919050565b82818337600083830152505050565b6000611e67611e6284611e14565b611df9565b905082815260208101848484011115611e8357611e82611d94565b5b611e8e848285611e45565b509392505050565b600082601f830112611eab57611eaa611d8f565b5b8135611ebb848260208601611e54565b91505092915050565b60008060008060808587031215611ede57611edd6119ce565b5b6000611eec87828801611c24565b9450506020611efd87828801611c24565b9350506040611f0e87828801611b6f565b925050606085013567ffffffffffffffff811115611f2f57611f2e6119d3565b5b611f3b87828801611e96565b91505092959194509250565b60008060408385031215611f5e57611f5d6119ce565b5b6000611f6c85828601611c24565b9250506020611f7d85828601611c24565b9150509250929050565b6000611f9282611bb1565b9050919050565b611fa281611f87565b82525050565b600061012082019050611fbe600083018c611ccc565b8181036020830152611fd0818b611af3565b90508181036040830152611fe4818a611af3565b90508181036060830152611ff88189611af3565b90506120076080830188611f99565b61201460a0830187611f99565b61202160c0830186611ccc565b61202e60e0830185611ccc565b61203c610100830184611a69565b9a9950505050505050505050565b7f4e487b7100000000000000000000000000000000000000000000000000000000600052602260045260246000fd5b6000600282049050600182168061209157607f821691505b602082108114156120a5576120a461204a565b5b50919050565b7f4552433732313a20617070726f76656420717565727920666f72206e6f6e657860008201527f697374656e7420746f6b656e0000000000000000000000000000000000000000602082015250565b6000612107602c83611a9e565b9150612112826120ab565b604082019050919050565b60006020820190508181036000830152612136816120fa565b9050919050565b7f4552433732313a20617070726f76616c20746f2063757272656e74206f776e6560008201527f7200000000000000000000000000000000000000000000000000000000000000602082015250565b6000612199602183611a9e565b91506121a48261213d565b604082019050919050565b600060208201905081810360008301526121c88161218c565b9050919050565b7f4552433732313a20617070726f76652063616c6c6572206973206e6f74206f7760008201527f6e6572206e6f7220617070726f76656420666f7220616c6c0000000000000000602082015250565b600061222b603883611a9e565b9150612236826121cf565b604082019050919050565b6000602082019050818103600083015261225a8161221e565b9050919050565b7f4552433732313a207472616e736665722063616c6c6572206973206e6f74206f60008201527f776e6572206e6f7220617070726f766564000000000000000000000000000000602082015250565b60006122bd603183611a9e565b91506122c882612261565b604082019050919050565b600060208201905081810360008301526122ec816122b0565b9050919050565b7f4552433732313a206f776e657220717565727920666f72206e6f6e657869737460008201527f656e7420746f6b656e0000000000000000000000000000000000000000000000602082015250565b600061234f602983611a9e565b915061235a826122f3565b604082019050919050565b6000602082019050818103600083015261237e81612342565b9050919050565b7f4552433732313a2062616c616e636520717565727920666f7220746865207a6560008201527f726f206164647265737300000000000000000000000000000000000000000000602082015250565b60006123e1602a83611a9e565b91506123ec82612385565b604082019050919050565b60006020820190508181036000830152612410816123d4565b9050919050565b7f4f776e61626c653a2063616c6c6572206973206e6f7420746865206f776e6572600082015250565b600061244d602083611a9e565b915061245882612417565b602082019050919050565b6000602082019050818103600083015261247c81612440565b9050919050565b7f4552433732313a20617070726f766520746f2063616c6c657200000000000000600082015250565b60006124b9601983611a9e565b91506124c482612483565b602082019050919050565b600060208201905081810360008301526124e8816124ac565b9050919050565b7f4552433732314d657461646174613a2055524920717565727920666f72206e6f60008201527f6e6578697374656e7420746f6b656e0000000000000000000000000000000000602082015250565b600061254b602f83611a9e565b9150612556826124ef565b604082019050919050565b6000602082019050818103600083015261257a8161253e565b9050919050565b600081905092915050565b600061259782611a93565b6125a18185612581565b93506125b1818560208601611aaf565b80840191505092915050565b60006125c9828561258c565b91506125d5828461258c565b91508190509392505050565b7f4f776e61626c653a206e6577206f776e657220697320746865207a65726f206160008201527f6464726573730000000000000000000000000000000000000000000000000000602082015250565b600061263d602683611a9e565b9150612648826125e1565b604082019050919050565b6000602082019050818103600083015261266c81612630565b9050919050565b7f4552433732313a206f70657261746f7220717565727920666f72206e6f6e657860008201527f697374656e7420746f6b656e0000000000000000000000000000000000000000602082015250565b60006126cf602c83611a9e565b91506126da82612673565b604082019050919050565b600060208201905081810360008301526126fe816126c2565b9050919050565b7f4552433732313a207472616e73666572206f6620746f6b656e2074686174206960008201527f73206e6f74206f776e0000000000000000000000000000000000000000000000602082015250565b6000612761602983611a9e565b915061276c82612705565b604082019050919050565b6000602082019050818103600083015261279081612754565b9050919050565b7f4552433732313a207472616e7366657220746f20746865207a65726f2061646460008201527f7265737300000000000000000000000000000000000000000000000000000000602082015250565b60006127f3602483611a9e565b91506127fe82612797565b604082019050919050565b60006020820190508181036000830152612822816127e6565b9050919050565b7f4e487b7100000000000000000000000000000000000000000000000000000000600052601160045260246000fd5b600061286382611b4e565b915061286e83611b4e565b92508282101561288157612880612829565b5b828203905092915050565b600061289782611b4e565b91506128a283611b4e565b9250827fffffffffffffffffffffffffffffffffffffffffffffffffffffffffffffffff038211156128d7576128d6612829565b5b828201905092915050565b7f4552433732313a207472616e7366657220746f206e6f6e20455243373231526560008201527f63656976657220696d706c656d656e7465720000000000000000000000000000602082015250565b600061293e603283611a9e565b9150612949826128e2565b604082019050919050565b6000602082019050818103600083015261296d81612931565b9050919050565b600061297f82611b4e565b91507fffffffffffffffffffffffffffffffffffffffffffffffffffffffffffffffff8214156129b2576129b1612829565b5b600182019050919050565b7f4e487b7100000000000000000000000000000000000000000000000000000000600052601260045260246000fd5b60006129f782611b4e565b9150612a0283611b4e565b925082612a1257612a116129bd565b5b828204905092915050565b6000612a2882611b4e565b9150612a3383611b4e565b925082612a4357612a426129bd565b5b828206905092915050565b7f4e487b7100000000000000000000000000000000000000000000000000000000600052603260045260246000fd5b600081519050919050565b600082825260208201905092915050565b6000612aa482612a7d565b612aae8185612a88565b9350612abe818560208601611aaf565b612ac781611ae2565b840191505092915050565b6000608082019050612ae76000830187611be3565b612af46020830186611be3565b612b016040830185611ccc565b8181036060830152612b138184612a99565b905095945050505050565b600081519050612b2d81611a04565b92915050565b600060208284031215612b4957612b486119ce565b5b6000612b5784828501612b1e565b9150509291505056fea26469706673582212200770e2b51e62dc22fce11d217255db591576754cd8767f059b13ac194c19dc8064736f6c63430008090033",
  "immutableReferences": {},
  "source": "// SPDX-License-Identifier: MIT\npragma solidity >=0.5.16 <0.9.0;\n\nimport \"@openzeppelin/contracts/token/ERC721/ERC721.sol\";\nimport \"@openzeppelin/contracts/access/Ownable.sol\";\nimport \"@openzeppelin/contracts/token/ERC721/extensions/ERC721URIStorage.sol\";\nimport \"@openzeppelin/contracts/token/ERC721/extensions/ERC721URIStorage.sol\";\nimport \"@openzeppelin/contracts/utils/Counters.sol\";\nimport \"@openzeppelin/contracts/utils/math/SafeMath.sol\";\n\ncontract NFT is ERC721, Ownable {\n    address _owner;\n    mapping(uint256 => bool) public sold;\n    mapping(uint256 => uint256) public price;\n\n    event Purchase(address owner, uint256 price, uint256 id, string uri);\n\n    // initialize contract while deployment with contract's collection name and token\n    constructor(address gallery) ERC721(\"NFT Gallery\", \"NFT\") {\n        _owner = gallery;\n    }\n\n    struct ArtPiece {\n        uint256 tokenId;\n        string title;\n        string artist;\n        string tokenURI;\n        address payable mintedBy;\n        address payable currentOwner;\n        uint256 price;\n        uint256 numberOfTransfers;\n        bool forSale;\n    }\n\n    mapping(uint256 => ArtPiece) public collection;\n\n}\n\n// minting a new piece\n// function mint(string memory _name, string memory _tokenURI, uint256 _price) external {\n//     require(msg.sender != address(0));\n// }\n//     public\n//     onlyOwner\n//     returns (bool)\n// {\n//     uint256 _tokenId = totalSupply() + 1;\n//     price[_tokenId] = _price;\n\n//     _mint(address(this), _tokenId);\n//     _setTokenURI(_tokenId, _tokenURI);\n\n//     return true;\n// }\n\n// function buy(uint256 _id) external payable {\n//     _validate(_id);\n//     _trade(_id);\n\n//     emit Purchase(msg.sender, price[_id], _id, tokenURI(_id));\n// }\n\n// function _validate(uint256 _id) internal {\n//     require(_exists(_id), \"Error, wrong Token id\");\n//     require(!sold[_id], \"Error, Token is sold\");\n//     require(msg.value >= price[_id], \"Error, Token costs more\");\n// }\n\n// function _trade(uint256 _id) internal {\n//     _transfer(address(this), msg.sender, _id);\n//     _owner.transfer(msg.value);\n//     sold[_id] = true;\n// }\n",
  "sourcePath": "/Users/qiandong/blockchain-dev/blockchain-developer-bootcamp-final-project/contracts/NFT.sol",
  "compiler": {
    "name": "solc",
    "version": "0.8.9+commit.e5eed63a.Emscripten.clang"
  },
  "schemaVersion": "3.4.3",
  "updatedAt": "2021-11-19T18:02:24.993Z",
  "networkType": "ethereum",
  "devdoc": {
    "kind": "dev",
    "methods": {
      "approve(address,uint256)": {
        "details": "See {IERC721-approve}."
      },
      "balanceOf(address)": {
        "details": "See {IERC721-balanceOf}."
      },
      "getApproved(uint256)": {
        "details": "See {IERC721-getApproved}."
      },
      "isApprovedForAll(address,address)": {
        "details": "See {IERC721-isApprovedForAll}."
      },
      "name()": {
        "details": "See {IERC721Metadata-name}."
      },
      "owner()": {
        "details": "Returns the address of the current owner."
      },
      "ownerOf(uint256)": {
        "details": "See {IERC721-ownerOf}."
      },
      "renounceOwnership()": {
        "details": "Leaves the contract without owner. It will not be possible to call `onlyOwner` functions anymore. Can only be called by the current owner. NOTE: Renouncing ownership will leave the contract without an owner, thereby removing any functionality that is only available to the owner."
      },
      "safeTransferFrom(address,address,uint256)": {
        "details": "See {IERC721-safeTransferFrom}."
      },
      "safeTransferFrom(address,address,uint256,bytes)": {
        "details": "See {IERC721-safeTransferFrom}."
      },
      "setApprovalForAll(address,bool)": {
        "details": "See {IERC721-setApprovalForAll}."
      },
      "supportsInterface(bytes4)": {
        "details": "See {IERC165-supportsInterface}."
      },
      "symbol()": {
        "details": "See {IERC721Metadata-symbol}."
      },
      "tokenURI(uint256)": {
        "details": "See {IERC721Metadata-tokenURI}."
      },
      "transferFrom(address,address,uint256)": {
        "details": "See {IERC721-transferFrom}."
      },
      "transferOwnership(address)": {
        "details": "Transfers ownership of the contract to a new account (`newOwner`). Can only be called by the current owner."
      }
    },
    "version": 1
  },
  "userdoc": {
    "kind": "user",
    "methods": {},
    "version": 1
  }
}