{
  "contractName": "NFTGallery",
  "abi": [
    {
      "inputs": [],
      "stateMutability": "nonpayable",
      "type": "constructor"
    },
    {
      "anonymous": false,
      "inputs": [
        {
          "indexed": true,
          "internalType": "address",
          "name": "owner",
          "type": "address"
        },
        {
          "indexed": true,
          "internalType": "address",
          "name": "approved",
          "type": "address"
        },
        {
          "indexed": true,
          "internalType": "uint256",
          "name": "tokenId",
          "type": "uint256"
        }
      ],
      "name": "Approval",
      "type": "event"
    },
    {
      "anonymous": false,
      "inputs": [
        {
          "indexed": true,
          "internalType": "address",
          "name": "owner",
          "type": "address"
        },
        {
          "indexed": true,
          "internalType": "address",
          "name": "operator",
          "type": "address"
        },
        {
          "indexed": false,
          "internalType": "bool",
          "name": "approved",
          "type": "bool"
        }
      ],
      "name": "ApprovalForAll",
      "type": "event"
    },
    {
      "anonymous": false,
      "inputs": [
        {
          "indexed": false,
          "internalType": "address",
          "name": "owner",
          "type": "address"
        },
        {
          "indexed": false,
          "internalType": "uint256",
          "name": "listIdPricing",
          "type": "uint256"
        },
        {
          "indexed": false,
          "internalType": "uint256",
          "name": "id",
          "type": "uint256"
        },
        {
          "indexed": false,
          "internalType": "string",
          "name": "uri",
          "type": "string"
        }
      ],
      "name": "Purchase",
      "type": "event"
    },
    {
      "anonymous": false,
      "inputs": [
        {
          "indexed": true,
          "internalType": "address",
          "name": "from",
          "type": "address"
        },
        {
          "indexed": true,
          "internalType": "address",
          "name": "to",
          "type": "address"
        },
        {
          "indexed": true,
          "internalType": "uint256",
          "name": "tokenId",
          "type": "uint256"
        }
      ],
      "name": "Transfer",
      "type": "event"
    },
    {
      "inputs": [
        {
          "internalType": "address",
          "name": "to",
          "type": "address"
        },
        {
          "internalType": "uint256",
          "name": "tokenId",
          "type": "uint256"
        }
      ],
      "name": "approve",
      "outputs": [],
      "stateMutability": "nonpayable",
      "type": "function"
    },
    {
      "inputs": [
        {
          "internalType": "address",
          "name": "owner",
          "type": "address"
        }
      ],
      "name": "balanceOf",
      "outputs": [
        {
          "internalType": "uint256",
          "name": "",
          "type": "uint256"
        }
      ],
      "stateMutability": "view",
      "type": "function"
    },
    {
      "inputs": [
        {
          "internalType": "uint256",
          "name": "tokenId",
          "type": "uint256"
        }
      ],
      "name": "getApproved",
      "outputs": [
        {
          "internalType": "address",
          "name": "",
          "type": "address"
        }
      ],
      "stateMutability": "view",
      "type": "function"
    },
    {
      "inputs": [
        {
          "internalType": "address",
          "name": "owner",
          "type": "address"
        },
        {
          "internalType": "address",
          "name": "operator",
          "type": "address"
        }
      ],
      "name": "isApprovedForAll",
      "outputs": [
        {
          "internalType": "bool",
          "name": "",
          "type": "bool"
        }
      ],
      "stateMutability": "view",
      "type": "function"
    },
    {
      "inputs": [
        {
          "internalType": "uint256",
          "name": "",
          "type": "uint256"
        }
      ],
      "name": "listIdPricing",
      "outputs": [
        {
          "internalType": "uint256",
          "name": "",
          "type": "uint256"
        }
      ],
      "stateMutability": "view",
      "type": "function"
    },
    {
      "inputs": [],
      "name": "name",
      "outputs": [
        {
          "internalType": "string",
          "name": "",
          "type": "string"
        }
      ],
      "stateMutability": "view",
      "type": "function"
    },
    {
      "inputs": [],
      "name": "owner",
      "outputs": [
        {
          "internalType": "address",
          "name": "",
          "type": "address"
        }
      ],
      "stateMutability": "view",
      "type": "function"
    },
    {
      "inputs": [
        {
          "internalType": "uint256",
          "name": "tokenId",
          "type": "uint256"
        }
      ],
      "name": "ownerOf",
      "outputs": [
        {
          "internalType": "address",
          "name": "",
          "type": "address"
        }
      ],
      "stateMutability": "view",
      "type": "function"
    },
    {
      "inputs": [],
      "name": "purchasePrice",
      "outputs": [
        {
          "internalType": "uint256",
          "name": "",
          "type": "uint256"
        }
      ],
      "stateMutability": "view",
      "type": "function"
    },
    {
      "inputs": [
        {
          "internalType": "address",
          "name": "from",
          "type": "address"
        },
        {
          "internalType": "address",
          "name": "to",
          "type": "address"
        },
        {
          "internalType": "uint256",
          "name": "tokenId",
          "type": "uint256"
        }
      ],
      "name": "safeTransferFrom",
      "outputs": [],
      "stateMutability": "nonpayable",
      "type": "function"
    },
    {
      "inputs": [
        {
          "internalType": "address",
          "name": "from",
          "type": "address"
        },
        {
          "internalType": "address",
          "name": "to",
          "type": "address"
        },
        {
          "internalType": "uint256",
          "name": "tokenId",
          "type": "uint256"
        },
        {
          "internalType": "bytes",
          "name": "_data",
          "type": "bytes"
        }
      ],
      "name": "safeTransferFrom",
      "outputs": [],
      "stateMutability": "nonpayable",
      "type": "function"
    },
    {
      "inputs": [
        {
          "internalType": "address",
          "name": "operator",
          "type": "address"
        },
        {
          "internalType": "bool",
          "name": "approved",
          "type": "bool"
        }
      ],
      "name": "setApprovalForAll",
      "outputs": [],
      "stateMutability": "nonpayable",
      "type": "function"
    },
    {
      "inputs": [
        {
          "internalType": "uint256",
          "name": "",
          "type": "uint256"
        }
      ],
      "name": "sold",
      "outputs": [
        {
          "internalType": "bool",
          "name": "",
          "type": "bool"
        }
      ],
      "stateMutability": "view",
      "type": "function"
    },
    {
      "inputs": [],
      "name": "stopped",
      "outputs": [
        {
          "internalType": "bool",
          "name": "",
          "type": "bool"
        }
      ],
      "stateMutability": "view",
      "type": "function"
    },
    {
      "inputs": [
        {
          "internalType": "bytes4",
          "name": "interfaceId",
          "type": "bytes4"
        }
      ],
      "name": "supportsInterface",
      "outputs": [
        {
          "internalType": "bool",
          "name": "",
          "type": "bool"
        }
      ],
      "stateMutability": "view",
      "type": "function"
    },
    {
      "inputs": [],
      "name": "symbol",
      "outputs": [
        {
          "internalType": "string",
          "name": "",
          "type": "string"
        }
      ],
      "stateMutability": "view",
      "type": "function"
    },
    {
      "inputs": [
        {
          "internalType": "uint256",
          "name": "tokenId",
          "type": "uint256"
        }
      ],
      "name": "tokenURI",
      "outputs": [
        {
          "internalType": "string",
          "name": "",
          "type": "string"
        }
      ],
      "stateMutability": "view",
      "type": "function"
    },
    {
      "inputs": [
        {
          "internalType": "address",
          "name": "from",
          "type": "address"
        },
        {
          "internalType": "address",
          "name": "to",
          "type": "address"
        },
        {
          "internalType": "uint256",
          "name": "tokenId",
          "type": "uint256"
        }
      ],
      "name": "transferFrom",
      "outputs": [],
      "stateMutability": "nonpayable",
      "type": "function"
    },
    {
      "inputs": [],
      "name": "emergency",
      "outputs": [],
      "stateMutability": "nonpayable",
      "type": "function"
    }
  ],
  "bytecode": "0x60806040526000600a60006101000a81548160ff0219169083151502179055503480156200002c57600080fd5b506040518060400160405280601281526020017f4e46542047616c6c6572792050696563657300000000000000000000000000008152506040518060400160405280600781526020017f417274776f726b000000000000000000000000000000000000000000000000008152508160009080519060200190620000b192919062000114565b508060019080519060200190620000ca92919062000114565b50505033600660006101000a81548173ffffffffffffffffffffffffffffffffffffffff021916908373ffffffffffffffffffffffffffffffffffffffff16021790555062000229565b8280546200012290620001f3565b90600052602060002090601f01602090048101928262000146576000855562000192565b82601f106200016157805160ff191683800117855562000192565b8280016001018555821562000192579182015b828111156200019157825182559160200191906001019062000174565b5b509050620001a19190620001a5565b5090565b5b80821115620001c0576000816000905550600101620001a6565b5090565b7f4e487b7100000000000000000000000000000000000000000000000000000000600052602260045260246000fd5b600060028204905060018216806200020c57607f821691505b60208210811415620002235762000222620001c4565b5b50919050565b61260d80620002396000396000f3fe608060405234801561001057600080fd5b50600436106101215760003560e01c80638da5cb5b116100ad578063c87b56dd11610071578063c87b56dd1461031a578063caa6fea41461034a578063defd6c5f14610354578063e985e9c514610372578063ebd4d0bb146103a257610121565b80638da5cb5b1461027657806395d89b41146102945780639c03facb146102b2578063a22cb465146102e2578063b88d4fde146102fe57610121565b806323b872dd116100f457806323b872dd146101c057806342842e0e146101dc5780636352211e146101f857806370a082311461022857806375f12b211461025857610121565b806301ffc9a71461012657806306fdde0314610156578063081812fc14610174578063095ea7b3146101a4575b600080fd5b610140600480360381019061013b9190611668565b6103d2565b60405161014d91906116b0565b60405180910390f35b61015e6104b4565b60405161016b9190611764565b60405180910390f35b61018e600480360381019061018991906117bc565b610546565b60405161019b919061182a565b60405180910390f35b6101be60048036038101906101b99190611871565b6105cb565b005b6101da60048036038101906101d591906118b1565b6106e3565b005b6101f660048036038101906101f191906118b1565b610743565b005b610212600480360381019061020d91906117bc565b610763565b60405161021f919061182a565b60405180910390f35b610242600480360381019061023d9190611904565b610815565b60405161024f9190611940565b60405180910390f35b6102606108cd565b60405161026d91906116b0565b60405180910390f35b61027e6108e0565b60405161028b919061182a565b60405180910390f35b61029c610906565b6040516102a99190611764565b60405180910390f35b6102cc60048036038101906102c791906117bc565b610998565b6040516102d991906116b0565b60405180910390f35b6102fc60048036038101906102f79190611987565b6109b8565b005b61031860048036038101906103139190611afc565b610b39565b005b610334600480360381019061032f91906117bc565b610b9b565b6040516103419190611764565b60405180910390f35b610352610c42565b005b61035c610cf6565b6040516103699190611940565b60405180910390f35b61038c60048036038101906103879190611b7f565b610cfc565b60405161039991906116b0565b60405180910390f35b6103bc60048036038101906103b791906117bc565b610d90565b6040516103c99190611940565b60405180910390f35b60007f80ac58cd000000000000000000000000000000000000000000000000000000007bffffffffffffffffffffffffffffffffffffffffffffffffffffffff1916827bffffffffffffffffffffffffffffffffffffffffffffffffffffffff1916148061049d57507f5b5e139f000000000000000000000000000000000000000000000000000000007bffffffffffffffffffffffffffffffffffffffffffffffffffffffff1916827bffffffffffffffffffffffffffffffffffffffffffffffffffffffff1916145b806104ad57506104ac82610da8565b5b9050919050565b6060600080546104c390611bee565b80601f01602080910402602001604051908101604052809291908181526020018280546104ef90611bee565b801561053c5780601f106105115761010080835404028352916020019161053c565b820191906000526020600020905b81548152906001019060200180831161051f57829003601f168201915b5050505050905090565b600061055182610e12565b610590576040517f08c379a000000000000000000000000000000000000000000000000000000000815260040161058790611c92565b60405180910390fd5b6004600083815260200190815260200160002060009054906101000a900473ffffffffffffffffffffffffffffffffffffffff169050919050565b60006105d682610763565b90508073ffffffffffffffffffffffffffffffffffffffff168373ffffffffffffffffffffffffffffffffffffffff161415610647576040517f08c379a000000000000000000000000000000000000000000000000000000000815260040161063e90611d24565b60405180910390fd5b8073ffffffffffffffffffffffffffffffffffffffff16610666610e7e565b73ffffffffffffffffffffffffffffffffffffffff16148061069557506106948161068f610e7e565b610cfc565b5b6106d4576040517f08c379a00000000000000000000000000000000000000000000000000000000081526004016106cb90611db6565b60405180910390fd5b6106de8383610e86565b505050565b6106f46106ee610e7e565b82610f3f565b610733576040517f08c379a000000000000000000000000000000000000000000000000000000000815260040161072a90611e48565b60405180910390fd5b61073e83838361101d565b505050565b61075e83838360405180602001604052806000815250610b39565b505050565b6000806002600084815260200190815260200160002060009054906101000a900473ffffffffffffffffffffffffffffffffffffffff169050600073ffffffffffffffffffffffffffffffffffffffff168173ffffffffffffffffffffffffffffffffffffffff16141561080c576040517f08c379a000000000000000000000000000000000000000000000000000000000815260040161080390611eda565b60405180910390fd5b80915050919050565b60008073ffffffffffffffffffffffffffffffffffffffff168273ffffffffffffffffffffffffffffffffffffffff161415610886576040517f08c379a000000000000000000000000000000000000000000000000000000000815260040161087d90611f6c565b60405180910390fd5b600360008373ffffffffffffffffffffffffffffffffffffffff1673ffffffffffffffffffffffffffffffffffffffff168152602001908152602001600020549050919050565b600a60009054906101000a900460ff1681565b600660009054906101000a900473ffffffffffffffffffffffffffffffffffffffff1681565b60606001805461091590611bee565b80601f016020809104026020016040519081016040528092919081815260200182805461094190611bee565b801561098e5780601f106109635761010080835404028352916020019161098e565b820191906000526020600020905b81548152906001019060200180831161097157829003601f168201915b5050505050905090565b60086020528060005260406000206000915054906101000a900460ff1681565b6109c0610e7e565b73ffffffffffffffffffffffffffffffffffffffff168273ffffffffffffffffffffffffffffffffffffffff161415610a2e576040517f08c379a0000000000000000000000000000000000000000000000000000000008152600401610a2590611fd8565b60405180910390fd5b8060056000610a3b610e7e565b73ffffffffffffffffffffffffffffffffffffffff1673ffffffffffffffffffffffffffffffffffffffff16815260200190815260200160002060008473ffffffffffffffffffffffffffffffffffffffff1673ffffffffffffffffffffffffffffffffffffffff16815260200190815260200160002060006101000a81548160ff0219169083151502179055508173ffffffffffffffffffffffffffffffffffffffff16610ae8610e7e565b73ffffffffffffffffffffffffffffffffffffffff167f17307eab39ab6107e8899845ad3d59bd9653f200f220920489ca2b5937696c3183604051610b2d91906116b0565b60405180910390a35050565b610b4a610b44610e7e565b83610f3f565b610b89576040517f08c379a0000000000000000000000000000000000000000000000000000000008152600401610b8090611e48565b60405180910390fd5b610b9584848484611279565b50505050565b6060610ba682610e12565b610be5576040517f08c379a0000000000000000000000000000000000000000000000000000000008152600401610bdc9061206a565b60405180910390fd5b6000610bef6112d5565b90506000815111610c0f5760405180602001604052806000815250610c3a565b80610c19846112ec565b604051602001610c2a9291906120c6565b6040516020818303038152906040525b915050919050565b600660009054906101000a900473ffffffffffffffffffffffffffffffffffffffff1673ffffffffffffffffffffffffffffffffffffffff163373ffffffffffffffffffffffffffffffffffffffff1614610c9c57600080fd5b60001515600a60009054906101000a900460ff1615151415610cd8576001600a60006101000a81548160ff021916908315150217905550610cf4565b6000600a60006101000a81548160ff0219169083151502179055505b565b60075481565b6000600560008473ffffffffffffffffffffffffffffffffffffffff1673ffffffffffffffffffffffffffffffffffffffff16815260200190815260200160002060008373ffffffffffffffffffffffffffffffffffffffff1673ffffffffffffffffffffffffffffffffffffffff16815260200190815260200160002060009054906101000a900460ff16905092915050565b60096020528060005260406000206000915090505481565b60007f01ffc9a7000000000000000000000000000000000000000000000000000000007bffffffffffffffffffffffffffffffffffffffffffffffffffffffff1916827bffffffffffffffffffffffffffffffffffffffffffffffffffffffff1916149050919050565b60008073ffffffffffffffffffffffffffffffffffffffff166002600084815260200190815260200160002060009054906101000a900473ffffffffffffffffffffffffffffffffffffffff1673ffffffffffffffffffffffffffffffffffffffff1614159050919050565b600033905090565b816004600083815260200190815260200160002060006101000a81548173ffffffffffffffffffffffffffffffffffffffff021916908373ffffffffffffffffffffffffffffffffffffffff160217905550808273ffffffffffffffffffffffffffffffffffffffff16610ef983610763565b73ffffffffffffffffffffffffffffffffffffffff167f8c5be1e5ebec7d5bd14f71427d1e84f3dd0314c0f7b2291e5b200ac8c7c3b92560405160405180910390a45050565b6000610f4a82610e12565b610f89576040517f08c379a0000000000000000000000000000000000000000000000000000000008152600401610f809061215c565b60405180910390fd5b6000610f9483610763565b90508073ffffffffffffffffffffffffffffffffffffffff168473ffffffffffffffffffffffffffffffffffffffff16148061100357508373ffffffffffffffffffffffffffffffffffffffff16610feb84610546565b73ffffffffffffffffffffffffffffffffffffffff16145b8061101457506110138185610cfc565b5b91505092915050565b8273ffffffffffffffffffffffffffffffffffffffff1661103d82610763565b73ffffffffffffffffffffffffffffffffffffffff1614611093576040517f08c379a000000000000000000000000000000000000000000000000000000000815260040161108a906121ee565b60405180910390fd5b600073ffffffffffffffffffffffffffffffffffffffff168273ffffffffffffffffffffffffffffffffffffffff161415611103576040517f08c379a00000000000000000000000000000000000000000000000000000000081526004016110fa90612280565b60405180910390fd5b61110e83838361144d565b611119600082610e86565b6001600360008573ffffffffffffffffffffffffffffffffffffffff1673ffffffffffffffffffffffffffffffffffffffff168152602001908152602001600020600082825461116991906122cf565b925050819055506001600360008473ffffffffffffffffffffffffffffffffffffffff1673ffffffffffffffffffffffffffffffffffffffff16815260200190815260200160002060008282546111c09190612303565b92505081905550816002600083815260200190815260200160002060006101000a81548173ffffffffffffffffffffffffffffffffffffffff021916908373ffffffffffffffffffffffffffffffffffffffff160217905550808273ffffffffffffffffffffffffffffffffffffffff168473ffffffffffffffffffffffffffffffffffffffff167fddf252ad1be2c89b69c2b068fc378daa952ba7f163c4a11628f55a4df523b3ef60405160405180910390a4505050565b61128484848461101d565b61129084848484611452565b6112cf576040517f08c379a00000000000000000000000000000000000000000000000000000000081526004016112c6906123cb565b60405180910390fd5b50505050565b606060405180602001604052806000815250905090565b60606000821415611334576040518060400160405280600181526020017f30000000000000000000000000000000000000000000000000000000000000008152509050611448565b600082905060005b6000821461136657808061134f906123eb565b915050600a8261135f9190612463565b915061133c565b60008167ffffffffffffffff811115611382576113816119d1565b5b6040519080825280601f01601f1916602001820160405280156113b45781602001600182028036833780820191505090505b5090505b60008514611441576001826113cd91906122cf565b9150600a856113dc9190612494565b60306113e89190612303565b60f81b8183815181106113fe576113fd6124c5565b5b60200101907effffffffffffffffffffffffffffffffffffffffffffffffffffffffffffff1916908160001a905350600a8561143a9190612463565b94506113b8565b8093505050505b919050565b505050565b60006114738473ffffffffffffffffffffffffffffffffffffffff166115e9565b156115dc578373ffffffffffffffffffffffffffffffffffffffff1663150b7a0261149c610e7e565b8786866040518563ffffffff1660e01b81526004016114be9493929190612549565b602060405180830381600087803b1580156114d857600080fd5b505af192505050801561150957506040513d601f19601f8201168201806040525081019061150691906125aa565b60015b61158c573d8060008114611539576040519150601f19603f3d011682016040523d82523d6000602084013e61153e565b606091505b50600081511415611584576040517f08c379a000000000000000000000000000000000000000000000000000000000815260040161157b906123cb565b60405180910390fd5b805181602001fd5b63150b7a0260e01b7bffffffffffffffffffffffffffffffffffffffffffffffffffffffff1916817bffffffffffffffffffffffffffffffffffffffffffffffffffffffff1916149150506115e1565b600190505b949350505050565b600080823b905060008111915050919050565b6000604051905090565b600080fd5b600080fd5b60007fffffffff0000000000000000000000000000000000000000000000000000000082169050919050565b61164581611610565b811461165057600080fd5b50565b6000813590506116628161163c565b92915050565b60006020828403121561167e5761167d611606565b5b600061168c84828501611653565b91505092915050565b60008115159050919050565b6116aa81611695565b82525050565b60006020820190506116c560008301846116a1565b92915050565b600081519050919050565b600082825260208201905092915050565b60005b838110156117055780820151818401526020810190506116ea565b83811115611714576000848401525b50505050565b6000601f19601f8301169050919050565b6000611736826116cb565b61174081856116d6565b93506117508185602086016116e7565b6117598161171a565b840191505092915050565b6000602082019050818103600083015261177e818461172b565b905092915050565b6000819050919050565b61179981611786565b81146117a457600080fd5b50565b6000813590506117b681611790565b92915050565b6000602082840312156117d2576117d1611606565b5b60006117e0848285016117a7565b91505092915050565b600073ffffffffffffffffffffffffffffffffffffffff82169050919050565b6000611814826117e9565b9050919050565b61182481611809565b82525050565b600060208201905061183f600083018461181b565b92915050565b61184e81611809565b811461185957600080fd5b50565b60008135905061186b81611845565b92915050565b6000806040838503121561188857611887611606565b5b60006118968582860161185c565b92505060206118a7858286016117a7565b9150509250929050565b6000806000606084860312156118ca576118c9611606565b5b60006118d88682870161185c565b93505060206118e98682870161185c565b92505060406118fa868287016117a7565b9150509250925092565b60006020828403121561191a57611919611606565b5b60006119288482850161185c565b91505092915050565b61193a81611786565b82525050565b60006020820190506119556000830184611931565b92915050565b61196481611695565b811461196f57600080fd5b50565b6000813590506119818161195b565b92915050565b6000806040838503121561199e5761199d611606565b5b60006119ac8582860161185c565b92505060206119bd85828601611972565b9150509250929050565b600080fd5b600080fd5b7f4e487b7100000000000000000000000000000000000000000000000000000000600052604160045260246000fd5b611a098261171a565b810181811067ffffffffffffffff82111715611a2857611a276119d1565b5b80604052505050565b6000611a3b6115fc565b9050611a478282611a00565b919050565b600067ffffffffffffffff821115611a6757611a666119d1565b5b611a708261171a565b9050602081019050919050565b82818337600083830152505050565b6000611a9f611a9a84611a4c565b611a31565b905082815260208101848484011115611abb57611aba6119cc565b5b611ac6848285611a7d565b509392505050565b600082601f830112611ae357611ae26119c7565b5b8135611af3848260208601611a8c565b91505092915050565b60008060008060808587031215611b1657611b15611606565b5b6000611b248782880161185c565b9450506020611b358782880161185c565b9350506040611b46878288016117a7565b925050606085013567ffffffffffffffff811115611b6757611b6661160b565b5b611b7387828801611ace565b91505092959194509250565b60008060408385031215611b9657611b95611606565b5b6000611ba48582860161185c565b9250506020611bb58582860161185c565b9150509250929050565b7f4e487b7100000000000000000000000000000000000000000000000000000000600052602260045260246000fd5b60006002820490506001821680611c0657607f821691505b60208210811415611c1a57611c19611bbf565b5b50919050565b7f4552433732313a20617070726f76656420717565727920666f72206e6f6e657860008201527f697374656e7420746f6b656e0000000000000000000000000000000000000000602082015250565b6000611c7c602c836116d6565b9150611c8782611c20565b604082019050919050565b60006020820190508181036000830152611cab81611c6f565b9050919050565b7f4552433732313a20617070726f76616c20746f2063757272656e74206f776e6560008201527f7200000000000000000000000000000000000000000000000000000000000000602082015250565b6000611d0e6021836116d6565b9150611d1982611cb2565b604082019050919050565b60006020820190508181036000830152611d3d81611d01565b9050919050565b7f4552433732313a20617070726f76652063616c6c6572206973206e6f74206f7760008201527f6e6572206e6f7220617070726f76656420666f7220616c6c0000000000000000602082015250565b6000611da06038836116d6565b9150611dab82611d44565b604082019050919050565b60006020820190508181036000830152611dcf81611d93565b9050919050565b7f4552433732313a207472616e736665722063616c6c6572206973206e6f74206f60008201527f776e6572206e6f7220617070726f766564000000000000000000000000000000602082015250565b6000611e326031836116d6565b9150611e3d82611dd6565b604082019050919050565b60006020820190508181036000830152611e6181611e25565b9050919050565b7f4552433732313a206f776e657220717565727920666f72206e6f6e657869737460008201527f656e7420746f6b656e0000000000000000000000000000000000000000000000602082015250565b6000611ec46029836116d6565b9150611ecf82611e68565b604082019050919050565b60006020820190508181036000830152611ef381611eb7565b9050919050565b7f4552433732313a2062616c616e636520717565727920666f7220746865207a6560008201527f726f206164647265737300000000000000000000000000000000000000000000602082015250565b6000611f56602a836116d6565b9150611f6182611efa565b604082019050919050565b60006020820190508181036000830152611f8581611f49565b9050919050565b7f4552433732313a20617070726f766520746f2063616c6c657200000000000000600082015250565b6000611fc26019836116d6565b9150611fcd82611f8c565b602082019050919050565b60006020820190508181036000830152611ff181611fb5565b9050919050565b7f4552433732314d657461646174613a2055524920717565727920666f72206e6f60008201527f6e6578697374656e7420746f6b656e0000000000000000000000000000000000602082015250565b6000612054602f836116d6565b915061205f82611ff8565b604082019050919050565b6000602082019050818103600083015261208381612047565b9050919050565b600081905092915050565b60006120a0826116cb565b6120aa818561208a565b93506120ba8185602086016116e7565b80840191505092915050565b60006120d28285612095565b91506120de8284612095565b91508190509392505050565b7f4552433732313a206f70657261746f7220717565727920666f72206e6f6e657860008201527f697374656e7420746f6b656e0000000000000000000000000000000000000000602082015250565b6000612146602c836116d6565b9150612151826120ea565b604082019050919050565b6000602082019050818103600083015261217581612139565b9050919050565b7f4552433732313a207472616e73666572206f6620746f6b656e2074686174206960008201527f73206e6f74206f776e0000000000000000000000000000000000000000000000602082015250565b60006121d86029836116d6565b91506121e38261217c565b604082019050919050565b60006020820190508181036000830152612207816121cb565b9050919050565b7f4552433732313a207472616e7366657220746f20746865207a65726f2061646460008201527f7265737300000000000000000000000000000000000000000000000000000000602082015250565b600061226a6024836116d6565b91506122758261220e565b604082019050919050565b600060208201905081810360008301526122998161225d565b9050919050565b7f4e487b7100000000000000000000000000000000000000000000000000000000600052601160045260246000fd5b60006122da82611786565b91506122e583611786565b9250828210156122f8576122f76122a0565b5b828203905092915050565b600061230e82611786565b915061231983611786565b9250827fffffffffffffffffffffffffffffffffffffffffffffffffffffffffffffffff0382111561234e5761234d6122a0565b5b828201905092915050565b7f4552433732313a207472616e7366657220746f206e6f6e20455243373231526560008201527f63656976657220696d706c656d656e7465720000000000000000000000000000602082015250565b60006123b56032836116d6565b91506123c082612359565b604082019050919050565b600060208201905081810360008301526123e4816123a8565b9050919050565b60006123f682611786565b91507fffffffffffffffffffffffffffffffffffffffffffffffffffffffffffffffff821415612429576124286122a0565b5b600182019050919050565b7f4e487b7100000000000000000000000000000000000000000000000000000000600052601260045260246000fd5b600061246e82611786565b915061247983611786565b92508261248957612488612434565b5b828204905092915050565b600061249f82611786565b91506124aa83611786565b9250826124ba576124b9612434565b5b828206905092915050565b7f4e487b7100000000000000000000000000000000000000000000000000000000600052603260045260246000fd5b600081519050919050565b600082825260208201905092915050565b600061251b826124f4565b61252581856124ff565b93506125358185602086016116e7565b61253e8161171a565b840191505092915050565b600060808201905061255e600083018761181b565b61256b602083018661181b565b6125786040830185611931565b818103606083015261258a8184612510565b905095945050505050565b6000815190506125a48161163c565b92915050565b6000602082840312156125c0576125bf611606565b5b60006125ce84828501612595565b9150509291505056fea2646970667358221220bc0ce218b7cd56a88193269cb4640ca16aaa4daa160f7581fcd2a67b5c9f8e6b64736f6c63430008090033",
  "immutableReferences": {},
  "source": "// SPDX-License-Identifier: MIT\npragma solidity ^0.8.0;\n\nimport \"@openzeppelin/contracts/token/ERC721/ERC721.sol\";\nimport \"@openzeppelin/contracts/utils/math/SafeMath.sol\";\nimport \"@openzeppelin/contracts/access/Ownable.sol\";\n\ncontract NFTGallery is ERC721 {\n    using SafeMath for uint256;\n\n    address public owner;\n    uint256 public purchasePrice;\n    // address public currentOwner;\n    mapping(uint256 => bool) public sold;\n    mapping(uint256 => uint256) public listIdPricing;\n    event Purchase(\n        address owner,\n        uint256 listIdPricing,\n        uint256 id,\n        string uri\n    );\n    bool public stopped = false;\n\n    //only owner access\n    modifier onlyOwner() {\n        require(msg.sender == owner);\n        _;\n    }\n\n    //stopping others during purchase\n    modifier stopInCaseOfEmergency() {\n        require(!stopped);\n        _;\n    }\n\n    modifier onlyInCaseOfEmergency() {\n        require(stopped);\n        _;\n    }\n\n    function emergency() public onlyOwner {\n        if (stopped == false) {\n            stopped = true;\n        } else {\n            stopped = false;\n        }\n    }\n\n    //sets contract owner as currentOwner\n    constructor() public ERC721(\"NFT Gallery Pieces\", \"Artwork\") {\n        owner = msg.sender;\n    }\n\n    // function mint(string memory _tokenURI, uint256 _price)\n    //     public\n    //     onlyOwner\n    //     returns (bool)\n    // {\n    //     uint256 _tokenId = totalSupply() + 1;\n    //     price[_tokenId] = _price;\n    //     _mint(address(this), _tokenId);\n    //     _setTokenURI(_tokenId, _tokenURI);\n    //     return true;\n    // }\n\n    // function buy(uint256 _id) external payable {\n    //     _validate(_id);\n    //     _trade(_id);\n    //     emit Purchase(msg.sender, price[_id], _id, tokenURI(_id));\n    // }\n\n    // function _validate(uint256 _id) internal {\n    //     require(_exists(_id), \"Error, wrong Token id\");\n    //     require(!sold[_id], \"Error, Token is sold\");\n    //     require(msg.value >= price[_id], \"Error, Token costs more\");\n    // }\n\n//     function _trade(uint256 _id) internal {\n//         _transfer(address(this), msg.sender, _id);\n//         _owner.transfer(msg.value);\n//         sold[_id] = true;\n//     }\n}\n",
  "sourcePath": "/Users/qiandong/blockchain-dev/blockchain-developer-bootcamp-final-project/contracts/NFTGallery.sol",
  "compiler": {
    "name": "solc",
    "version": "0.8.9+commit.e5eed63a.Emscripten.clang"
  },
  "schemaVersion": "3.4.3",
  "updatedAt": "2021-11-12T14:32:09.029Z",
  "devdoc": {
    "kind": "dev",
    "methods": {
      "approve(address,uint256)": {
        "details": "See {IERC721-approve}."
      },
      "balanceOf(address)": {
        "details": "See {IERC721-balanceOf}."
      },
      "getApproved(uint256)": {
        "details": "See {IERC721-getApproved}."
      },
      "isApprovedForAll(address,address)": {
        "details": "See {IERC721-isApprovedForAll}."
      },
      "name()": {
        "details": "See {IERC721Metadata-name}."
      },
      "ownerOf(uint256)": {
        "details": "See {IERC721-ownerOf}."
      },
      "safeTransferFrom(address,address,uint256)": {
        "details": "See {IERC721-safeTransferFrom}."
      },
      "safeTransferFrom(address,address,uint256,bytes)": {
        "details": "See {IERC721-safeTransferFrom}."
      },
      "setApprovalForAll(address,bool)": {
        "details": "See {IERC721-setApprovalForAll}."
      },
      "supportsInterface(bytes4)": {
        "details": "See {IERC165-supportsInterface}."
      },
      "symbol()": {
        "details": "See {IERC721Metadata-symbol}."
      },
      "tokenURI(uint256)": {
        "details": "See {IERC721Metadata-tokenURI}."
      },
      "transferFrom(address,address,uint256)": {
        "details": "See {IERC721-transferFrom}."
      }
    },
    "version": 1
  },
  "userdoc": {
    "kind": "user",
    "methods": {},
    "version": 1
  }
}